{
  "_format": "hh-sol-artifact-1",
  "contractName": "Whisper",
  "sourceName": "contracts/Whisper.sol",
  "abi": [
    {
      "inputs": [
        {
          "internalType": "address",
          "name": "_mimc5",
          "type": "address"
        }
      ],
      "stateMutability": "nonpayable",
      "type": "constructor"
    },
    {
      "inputs": [],
      "name": "ReentrancyGuardReentrantCall",
      "type": "error"
    },
    {
      "anonymous": false,
      "inputs": [
        {
          "indexed": false,
          "internalType": "uint256",
          "name": "root",
          "type": "uint256"
        },
        {
          "indexed": false,
          "internalType": "uint256[10]",
          "name": "hashPairings",
          "type": "uint256[10]"
        },
        {
          "indexed": false,
          "internalType": "uint8[10]",
          "name": "hashDirections",
          "type": "uint8[10]"
        }
      ],
      "name": "Deposit",
      "type": "event"
    },
    {
      "inputs": [
        {
          "internalType": "uint256",
          "name": "_commitment",
          "type": "uint256"
        }
      ],
      "name": "addCommitment",
      "outputs": [],
      "stateMutability": "nonpayable",
      "type": "function"
    },
    {
      "inputs": [
        {
          "internalType": "uint256",
          "name": "_nullifierHash",
          "type": "uint256"
        }
      ],
      "name": "addNullifierHash",
      "outputs": [],
      "stateMutability": "nonpayable",
      "type": "function"
    },
    {
      "inputs": [
        {
          "internalType": "address",
          "name": "_caller",
          "type": "address"
        }
      ],
      "name": "allowCaller",
      "outputs": [],
      "stateMutability": "nonpayable",
      "type": "function"
    },
    {
      "inputs": [
        {
          "internalType": "address",
          "name": "",
          "type": "address"
        }
      ],
      "name": "isAllowedCaller",
      "outputs": [
        {
          "internalType": "bool",
          "name": "",
          "type": "bool"
        }
      ],
      "stateMutability": "view",
      "type": "function"
    },
    {
      "inputs": [],
      "name": "nextLeafIndex",
      "outputs": [
        {
          "internalType": "uint256",
          "name": "",
          "type": "uint256"
        }
      ],
      "stateMutability": "view",
      "type": "function"
    }
  ],
  "bytecode": "0x6080604052600a600460006101000a81548160ff021916908360ff1602179055506040518061014001604052807fda70048a78ea262e7e52673edf42cd03aab854843aea37a75cc187a4215e42aa81526020017fce42a193851ab7eb183af214cabde108e98967cae4c1807edd1a3eecb565f78e81526020017f8001bdc085186237cc899529c2d234a6c8e8d53ef24079e87f818e7f813c07ef81526020017f3b5f53c4217eba75893869078d3db3b644cce573d22b5df2982a2dfff5006e9681526020017f6d5202467af82a66bcabc732607986afad45290b8cc19b92ddac7ff389f232da81526020017f8d4472f54e79585a74777b790cb404f4499e3398a67351a4dc3ba873585e4e4e81526020017fd22075a40d568b57bba3bd523a3d01c59980830874cc3af8635a5b463089c56c81526020017f6e0ffcc8e87dbad6e5d38b8d759af751481ba32876efe28f6cfcbe3521cf64c181526020017f7e62e40fec32a60107bd998a724cde7c5904961a96cf5c35f75d099b9224b3ad81526020017ffd87aa8ee2b8e2842a020f34668c0bb6398b5164a76bb9f8793ce307aef7b59c815250600990600a620001b89291906200027d565b50348015620001c657600080fd5b5060405162001527380380620015278339818101604052810190620001ec91906200034b565b600160008190555080600260006101000a81548173ffffffffffffffffffffffffffffffffffffffff021916908373ffffffffffffffffffffffffffffffffffffffff16021790555033600160006101000a81548173ffffffffffffffffffffffffffffffffffffffff021916908373ffffffffffffffffffffffffffffffffffffffff160217905550506200037d565b82600a8101928215620002af579160200282015b82811115620002ae57825182559160200191906001019062000291565b5b509050620002be9190620002c2565b5090565b5b80821115620002dd576000816000905550600101620002c3565b5090565b600080fd5b600073ffffffffffffffffffffffffffffffffffffffff82169050919050565b60006200031382620002e6565b9050919050565b620003258162000306565b81146200033157600080fd5b50565b60008151905062000345816200031a565b92915050565b600060208284031215620003645762000363620002e1565b5b6000620003748482850162000334565b91505092915050565b61119a806200038d6000396000f3fe608060405234801561001057600080fd5b50600436106100575760003560e01c80630be4f4221461005c5780636b94fbda1461007a578063797a6890146100965780639e44ac0f146100b2578063a6801258146100ce575b600080fd5b6100646100fe565b6040516100719190610882565b60405180910390f35b610094600480360381019061008f91906108ce565b610104565b005b6100b060048036038101906100ab91906108ce565b610230565b005b6100cc60048036038101906100c79190610959565b6106a6565b005b6100e860048036038101906100e39190610959565b610791565b6040516100f591906109a1565b60405180910390f35b60055481565b600360003373ffffffffffffffffffffffffffffffffffffffff1673ffffffffffffffffffffffffffffffffffffffff16815260200190815260200160002060009054906101000a900460ff16610190576040517f08c379a000000000000000000000000000000000000000000000000000000000815260040161018790610a19565b60405180910390fd5b6101986107b1565b6007600082815260200190815260200160002060009054906101000a900460ff16156101f9576040517f08c379a00000000000000000000000000000000000000000000000000000000081526004016101f090610a85565b60405180910390fd5b60016007600083815260200190815260200160002060006101000a81548160ff02191690831515021790555061022d6107f7565b50565b600360003373ffffffffffffffffffffffffffffffffffffffff1673ffffffffffffffffffffffffffffffffffffffff16815260200190815260200160002060009054906101000a900460ff166102bc576040517f08c379a00000000000000000000000000000000000000000000000000000000081526004016102b390610a19565b60405180910390fd5b6102c46107b1565b6008600082815260200190815260200160002060009054906101000a900460ff1615610325576040517f08c379a000000000000000000000000000000000000000000000000000000000815260040161031c90610af1565b60405180910390fd5b600460009054906101000a900460ff1660026103419190610c80565b60055410610384576040517f08c379a000000000000000000000000000000000000000000000000000000000815260040161037b90610d17565b60405180910390fd5b600061038e610801565b610396610824565b6000600554905060008590506000806103ad610847565b60005b600460009054906101000a900460ff1660ff168160ff16101561060e5760006002876103dc9190610d66565b036104655784935060098160ff16600a81106103fb576103fa610d97565b5b0154925060098160ff16600a811061041657610415610d97565b5b0154888260ff16600a811061042e5761042d610d97565b5b6020020181815250506000878260ff16600a811061044f5761044e610d97565b5b602002019060ff16908160ff16815250506104e7565b600660008260ff1660ff168152602001908152602001600020549350849250600660008260ff1660ff16815260200190815260200160002054888260ff16600a81106104b4576104b3610d97565b5b6020020181815250506001878260ff16600a81106104d5576104d4610d97565b5b602002019060ff16908160ff16815250505b84600660008360ff1660ff16815260200190815260200160002081905550838260006002811061051a57610519610d97565b5b602002018181525050828260016002811061053857610537610d97565b5b6020020181815250506000600260009054906101000a900473ffffffffffffffffffffffffffffffffffffffff1673ffffffffffffffffffffffffffffffffffffffff1663d622e5a4620249f0858e6040518463ffffffff1660e01b81526004016105a4929190610e71565b6020604051808303818786fa1580156105c1573d6000803e3d6000fd5b50505050506040513d601f19601f820116820180604052508101906105e69190610eaf565b90508095506002876105f89190610edc565b965050808061060690610f0d565b9150506103b0565b508397506001600560008282546106259190610f36565b925050819055506001600860008b815260200190815260200160002060006101000a81548160ff0219169083151502179055507fe6ab8667cb740d6c65a4ad321c031eb42f6c5085d5753238d1b2e1e370c1348388888860405161068b93929190611099565b60405180910390a150505050505050506106a36107f7565b50565b600160009054906101000a900473ffffffffffffffffffffffffffffffffffffffff1673ffffffffffffffffffffffffffffffffffffffff163373ffffffffffffffffffffffffffffffffffffffff1614610736576040517f08c379a000000000000000000000000000000000000000000000000000000000815260040161072d90611144565b60405180910390fd5b6001600360008373ffffffffffffffffffffffffffffffffffffffff1673ffffffffffffffffffffffffffffffffffffffff16815260200190815260200160002060006101000a81548160ff02191690831515021790555050565b60036020528060005260406000206000915054906101000a900460ff1681565b6002600054036107ed576040517f3ee5aeb500000000000000000000000000000000000000000000000000000000815260040160405180910390fd5b6002600081905550565b6001600081905550565b604051806101400160405280600a90602082028036833780820191505090505090565b604051806101400160405280600a90602082028036833780820191505090505090565b6040518060400160405280600290602082028036833780820191505090505090565b6000819050919050565b61087c81610869565b82525050565b60006020820190506108976000830184610873565b92915050565b600080fd5b6108ab81610869565b81146108b657600080fd5b50565b6000813590506108c8816108a2565b92915050565b6000602082840312156108e4576108e361089d565b5b60006108f2848285016108b9565b91505092915050565b600073ffffffffffffffffffffffffffffffffffffffff82169050919050565b6000610926826108fb565b9050919050565b6109368161091b565b811461094157600080fd5b50565b6000813590506109538161092d565b92915050565b60006020828403121561096f5761096e61089d565b5b600061097d84828501610944565b91505092915050565b60008115159050919050565b61099b81610986565b82525050565b60006020820190506109b66000830184610992565b92915050565b600082825260208201905092915050565b7f43616c6c6572206e6f7420616c6c6f7765640000000000000000000000000000600082015250565b6000610a036012836109bc565b9150610a0e826109cd565b602082019050919050565b60006020820190508181036000830152610a32816109f6565b9050919050565b7f4e756c6c6966696572206861736820616c726561647920657869737473000000600082015250565b6000610a6f601d836109bc565b9150610a7a82610a39565b602082019050919050565b60006020820190508181036000830152610a9e81610a62565b9050919050565b7f436f6d6d69746d656e7420616c72656164792065786973747300000000000000600082015250565b6000610adb6019836109bc565b9150610ae682610aa5565b602082019050919050565b60006020820190508181036000830152610b0a81610ace565b9050919050565b7f4e487b7100000000000000000000000000000000000000000000000000000000600052601160045260246000fd5b60008160011c9050919050565b6000808291508390505b6001851115610b9757808604811115610b7357610b72610b11565b5b6001851615610b825780820291505b8081029050610b9085610b40565b9450610b57565b94509492505050565b600082610bb05760019050610c6c565b81610bbe5760009050610c6c565b8160018114610bd45760028114610bde57610c0d565b6001915050610c6c565b60ff841115610bf057610bef610b11565b5b8360020a915084821115610c0757610c06610b11565b5b50610c6c565b5060208310610133831016604e8410600b8410161715610c425782820a905083811115610c3d57610c3c610b11565b5b610c6c565b610c4f8484846001610b4d565b92509050818404811115610c6657610c65610b11565b5b81810290505b9392505050565b600060ff82169050919050565b6000610c8b82610869565b9150610c9683610c73565b9250610cc37fffffffffffffffffffffffffffffffffffffffffffffffffffffffffffffffff8484610ba0565b905092915050565b7f547265652069732066756c6c0000000000000000000000000000000000000000600082015250565b6000610d01600c836109bc565b9150610d0c82610ccb565b602082019050919050565b60006020820190508181036000830152610d3081610cf4565b9050919050565b7f4e487b7100000000000000000000000000000000000000000000000000000000600052601260045260246000fd5b6000610d7182610869565b9150610d7c83610869565b925082610d8c57610d8b610d37565b5b828206905092915050565b7f4e487b7100000000000000000000000000000000000000000000000000000000600052603260045260246000fd5b600060029050919050565b600081905092915050565b6000819050919050565b610def81610869565b82525050565b6000610e018383610de6565b60208301905092915050565b6000602082019050919050565b610e2381610dc6565b610e2d8184610dd1565b9250610e3882610ddc565b8060005b83811015610e69578151610e508782610df5565b9650610e5b83610e0d565b925050600181019050610e3c565b505050505050565b6000606082019050610e866000830185610e1a565b610e936040830184610873565b9392505050565b600081519050610ea9816108a2565b92915050565b600060208284031215610ec557610ec461089d565b5b6000610ed384828501610e9a565b91505092915050565b6000610ee782610869565b9150610ef283610869565b925082610f0257610f01610d37565b5b828204905092915050565b6000610f1882610c73565b915060ff8203610f2b57610f2a610b11565b5b600182019050919050565b6000610f4182610869565b9150610f4c83610869565b9250828201905080821115610f6457610f63610b11565b5b92915050565b6000600a9050919050565b600081905092915050565b6000819050919050565b6000602082019050919050565b610fa081610f6a565b610faa8184610f75565b9250610fb582610f80565b8060005b83811015610fe6578151610fcd8782610df5565b9650610fd883610f8a565b925050600181019050610fb9565b505050505050565b6000600a9050919050565b600081905092915050565b6000819050919050565b61101781610c73565b82525050565b6000611029838361100e565b60208301905092915050565b6000602082019050919050565b61104b81610fee565b6110558184610ff9565b925061106082611004565b8060005b83811015611091578151611078878261101d565b965061108383611035565b925050600181019050611064565b505050505050565b60006102a0820190506110af6000830186610873565b6110bc6020830185610f97565b6110ca610160830184611042565b949350505050565b7f4f6e6c79206f776e65722063616e2063616c6c20746869732066756e6374696f60008201527f6e00000000000000000000000000000000000000000000000000000000000000602082015250565b600061112e6021836109bc565b9150611139826110d2565b604082019050919050565b6000602082019050818103600083015261115d81611121565b905091905056fea26469706673582212206ac22337d5c2835e438e97098d161710b34ee368475b00197fdf813c85e80bc364736f6c63430008140033",
  "linkReferences": {},
  "deployedLinkReferences": {}
}