{
  "_format": "hh-sol-artifact-1",
  "contractName": "Whisper",
  "sourceName": "contracts/Whisper.sol",
  "abi": [
    {
      "inputs": [
        {
          "internalType": "address",
          "name": "_mimc5",
          "type": "address"
        },
        {
          "internalType": "address",
          "name": "_verifier",
          "type": "address"
        },
        {
          "internalType": "uint256",
          "name": "_depositAmount",
          "type": "uint256"
        }
      ],
      "stateMutability": "nonpayable",
      "type": "constructor"
    },
    {
      "inputs": [],
      "name": "ReentrancyGuardReentrantCall",
      "type": "error"
    },
    {
      "anonymous": false,
      "inputs": [
        {
          "indexed": false,
          "internalType": "uint256",
          "name": "root",
          "type": "uint256"
        },
        {
          "indexed": false,
          "internalType": "uint256[10]",
          "name": "hashPairings",
          "type": "uint256[10]"
        },
        {
          "indexed": false,
          "internalType": "uint8[10]",
          "name": "hashDirections",
          "type": "uint8[10]"
        }
      ],
      "name": "Deposit",
      "type": "event"
    },
    {
      "inputs": [
        {
          "internalType": "uint256",
          "name": "_commitment",
          "type": "uint256"
        }
      ],
      "name": "deposit",
      "outputs": [],
      "stateMutability": "payable",
      "type": "function"
    },
    {
      "inputs": [],
      "name": "depositAmount",
      "outputs": [
        {
          "internalType": "uint256",
          "name": "",
          "type": "uint256"
        }
      ],
      "stateMutability": "view",
      "type": "function"
    },
    {
      "inputs": [],
      "name": "fees",
      "outputs": [
        {
          "internalType": "uint256",
          "name": "",
          "type": "uint256"
        }
      ],
      "stateMutability": "view",
      "type": "function"
    },
    {
      "inputs": [],
      "name": "nextLeafIndex",
      "outputs": [
        {
          "internalType": "uint256",
          "name": "",
          "type": "uint256"
        }
      ],
      "stateMutability": "view",
      "type": "function"
    },
    {
      "inputs": [
        {
          "internalType": "uint256",
          "name": "_fees",
          "type": "uint256"
        }
      ],
      "name": "setFees",
      "outputs": [],
      "stateMutability": "nonpayable",
      "type": "function"
    },
    {
      "inputs": [
        {
          "internalType": "uint256[2]",
          "name": "_pA",
          "type": "uint256[2]"
        },
        {
          "internalType": "uint256[2][2]",
          "name": "_pB",
          "type": "uint256[2][2]"
        },
        {
          "internalType": "uint256[2]",
          "name": "_pC",
          "type": "uint256[2]"
        },
        {
          "internalType": "uint256[1]",
          "name": "_pubSignals",
          "type": "uint256[1]"
        }
      ],
      "name": "withdraw",
      "outputs": [],
      "stateMutability": "nonpayable",
      "type": "function"
    }
  ],
  "bytecode": "0x6080604052655af3107a4000600455600a600560146101000a81548160ff021916908360ff1602179055506040518061014001604052807fda70048a78ea262e7e52673edf42cd03aab854843aea37a75cc187a4215e42aa81526020017fce42a193851ab7eb183af214cabde108e98967cae4c1807edd1a3eecb565f78e81526020017f8001bdc085186237cc899529c2d234a6c8e8d53ef24079e87f818e7f813c07ef81526020017f3b5f53c4217eba75893869078d3db3b644cce573d22b5df2982a2dfff5006e9681526020017f6d5202467af82a66bcabc732607986afad45290b8cc19b92ddac7ff389f232da81526020017f8d4472f54e79585a74777b790cb404f4499e3398a67351a4dc3ba873585e4e4e81526020017fd22075a40d568b57bba3bd523a3d01c59980830874cc3af8635a5b463089c56c81526020017f6e0ffcc8e87dbad6e5d38b8d759af751481ba32876efe28f6cfcbe3521cf64c181526020017f7e62e40fec32a60107bd998a724cde7c5904961a96cf5c35f75d099b9224b3ad81526020017ffd87aa8ee2b8e2842a020f34668c0bb6398b5164a76bb9f8793ce307aef7b59c815250600a90600a620001c2929190620002d1565b50348015620001d057600080fd5b5060405162001aa438038062001aa48339818101604052810190620001f69190620003da565b600160008190555082600560006101000a81548173ffffffffffffffffffffffffffffffffffffffff021916908373ffffffffffffffffffffffffffffffffffffffff16021790555081600160006101000a81548173ffffffffffffffffffffffffffffffffffffffff021916908373ffffffffffffffffffffffffffffffffffffffff1602179055508060038190555033600260006101000a81548173ffffffffffffffffffffffffffffffffffffffff021916908373ffffffffffffffffffffffffffffffffffffffff16021790555050505062000436565b82600a810192821562000303579160200282015b8281111562000302578251825591602001919060010190620002e5565b5b50905062000312919062000316565b5090565b5b808211156200033157600081600090555060010162000317565b5090565b600080fd5b600073ffffffffffffffffffffffffffffffffffffffff82169050919050565b600062000367826200033a565b9050919050565b62000379816200035a565b81146200038557600080fd5b50565b60008151905062000399816200036e565b92915050565b6000819050919050565b620003b4816200039f565b8114620003c057600080fd5b50565b600081519050620003d481620003a9565b92915050565b600080600060608486031215620003f657620003f562000335565b5b6000620004068682870162000388565b9350506020620004198682870162000388565b92505060406200042c86828701620003c3565b9150509250925092565b61165e80620004466000396000f3fe6080604052600436106100555760003560e01c80630be4f4221461005a5780633d18678e14610085578063419759f5146100ae578063768ea39d146100d95780639af1d35a14610102578063b6b55f251461012d575b600080fd5b34801561006657600080fd5b5061006f610149565b60405161007c9190610a0d565b60405180910390f35b34801561009157600080fd5b506100ac60048036038101906100a79190610a59565b61014f565b005b3480156100ba57600080fd5b506100c36101e9565b6040516100d09190610a0d565b60405180910390f35b3480156100e557600080fd5b5061010060048036038101906100fb9190610af1565b6101ef565b005b34801561010e57600080fd5b506101176104f5565b6040516101249190610a0d565b60405180910390f35b61014760048036038101906101429190610a59565b6104fb565b005b60065481565b600260009054906101000a900473ffffffffffffffffffffffffffffffffffffffff1673ffffffffffffffffffffffffffffffffffffffff163373ffffffffffffffffffffffffffffffffffffffff16146101df576040517f08c379a00000000000000000000000000000000000000000000000000000000081526004016101d690610bdd565b60405180910390fd5b8060048190555050565b60035481565b600354471015610234576040517f08c379a000000000000000000000000000000000000000000000000000000000815260040161022b90610c49565b60405180910390fd5b60008160006001811061024a57610249610c69565b5b602002013590506008600082815260200190815260200160002060009054906101000a900460ff16156102b2576040517f08c379a00000000000000000000000000000000000000000000000000000000081526004016102a990610ce4565b60405180910390fd5b60003373ffffffffffffffffffffffffffffffffffffffff1690506000600160009054906101000a900473ffffffffffffffffffffffffffffffffffffffff1673ffffffffffffffffffffffffffffffffffffffff168787876040518060400160405280888152602001878152506040516024016103339493929190610e87565b60405160208183030381529060405263f5c9d69e60e01b6020820180517bffffffffffffffffffffffffffffffffffffffffffffffffffffffff83818316178352505050506040516103859190610f3f565b6000604051808303816000865af19150503d80600081146103c2576040519150601f19603f3d011682016040523d82523d6000602084013e6103c7565b606091505b505090508061040b576040517f08c379a000000000000000000000000000000000000000000000000000000000815260040161040290610fa2565b60405180910390fd5b60016008600085815260200190815260200160002060006101000a81548160ff021916908315150217905550600033905060008173ffffffffffffffffffffffffffffffffffffffff1660035460405161046490610fe8565b60006040518083038185875af1925050503d80600081146104a1576040519150601f19603f3d011682016040523d82523d6000602084013e6104a6565b606091505b50509050806104ea576040517f08c379a00000000000000000000000000000000000000000000000000000000081526004016104e190611049565b60405180910390fd5b505050505050505050565b60045481565b61050361093c565b60006004546003546105159190611098565b9050803414610559576040517f08c379a000000000000000000000000000000000000000000000000000000000815260040161055090611118565b60405180910390fd5b6009600083815260200190815260200160002060009054906101000a900460ff16156105ba576040517f08c379a00000000000000000000000000000000000000000000000000000000081526004016105b190611184565b60405180910390fd5b600560149054906101000a900460ff1660026105d691906112e4565b60065410610619576040517f08c379a00000000000000000000000000000000000000000000000000000000081526004016106109061137b565b60405180910390fd5b600061062361098c565b61062b6109af565b6000600654905060008690506000806106426109d2565b60005b600560149054906101000a900460ff1660ff168160ff1610156108a357600060028761067191906113ca565b036106fa57849350600a8160ff16600a81106106905761068f610c69565b5b01549250600a8160ff16600a81106106ab576106aa610c69565b5b0154888260ff16600a81106106c3576106c2610c69565b5b6020020181815250506000878260ff16600a81106106e4576106e3610c69565b5b602002019060ff16908160ff168152505061077c565b600760008260ff1660ff168152602001908152602001600020549350849250600760008260ff1660ff16815260200190815260200160002054888260ff16600a811061074957610748610c69565b5b6020020181815250506001878260ff16600a811061076a57610769610c69565b5b602002019060ff16908160ff16815250505b84600760008360ff1660ff1681526020019081526020016000208190555083826000600281106107af576107ae610c69565b5b60200201818152505082826001600281106107cd576107cc610c69565b5b6020020181815250506000600560009054906101000a900473ffffffffffffffffffffffffffffffffffffffff1673ffffffffffffffffffffffffffffffffffffffff1663d622e5a4620249f0858f6040518463ffffffff1660e01b81526004016108399291906113fb565b6020604051808303818786fa158015610856573d6000803e3d6000fd5b50505050506040513d601f19601f8201168201806040525081019061087b9190611439565b905080955060028761088d9190611466565b965050808061089b90611497565b915050610645565b508397506001600660008282546108ba9190611098565b925050819055506001600960008c815260200190815260200160002060006101000a81548160ff0219169083151502179055507fe6ab8667cb740d6c65a4ad321c031eb42f6c5085d5753238d1b2e1e370c13483888888604051610920939291906115ef565b60405180910390a1505050505050505050610939610982565b50565b600260005403610978576040517f3ee5aeb500000000000000000000000000000000000000000000000000000000815260040160405180910390fd5b6002600081905550565b6001600081905550565b604051806101400160405280600a90602082028036833780820191505090505090565b604051806101400160405280600a90602082028036833780820191505090505090565b6040518060400160405280600290602082028036833780820191505090505090565b6000819050919050565b610a07816109f4565b82525050565b6000602082019050610a2260008301846109fe565b92915050565b600080fd5b610a36816109f4565b8114610a4157600080fd5b50565b600081359050610a5381610a2d565b92915050565b600060208284031215610a6f57610a6e610a28565b5b6000610a7d84828501610a44565b91505092915050565b600080fd5b600081905082602060020282011115610aa757610aa6610a86565b5b92915050565b600081905082604060020282011115610ac957610ac8610a86565b5b92915050565b600081905082602060010282011115610aeb57610aea610a86565b5b92915050565b6000806000806101208587031215610b0c57610b0b610a28565b5b6000610b1a87828801610a8b565b9450506040610b2b87828801610aad565b93505060c0610b3c87828801610a8b565b925050610100610b4e87828801610acf565b91505092959194509250565b600082825260208201905092915050565b7f4f6e6c79206f776e65722063616e2063616c6c20746869732066756e6374696f60008201527f6e00000000000000000000000000000000000000000000000000000000000000602082015250565b6000610bc7602183610b5a565b9150610bd282610b6b565b604082019050919050565b60006020820190508181036000830152610bf681610bba565b9050919050565b7f496e73756666696369656e742062616c616e6365000000000000000000000000600082015250565b6000610c33601483610b5a565b9150610c3e82610bfd565b602082019050919050565b60006020820190508181036000830152610c6281610c26565b9050919050565b7f4e487b7100000000000000000000000000000000000000000000000000000000600052603260045260246000fd5b7f4e756c6c6966696572206861736820616c726561647920657869737473000000600082015250565b6000610cce601d83610b5a565b9150610cd982610c98565b602082019050919050565b60006020820190508181036000830152610cfd81610cc1565b9050919050565b82818337505050565b610d1960408383610d04565b5050565b600060029050919050565b600081905092915050565b6000819050919050565b610d4960408383610d04565b5050565b6000610d598383610d3d565b60408301905092915050565b600082905092915050565b6000604082019050919050565b610d8681610d1d565b610d908184610d28565b9250610d9b82610d33565b8060005b83811015610dd457610db18284610d65565b610dbb8782610d4d565b9650610dc683610d70565b925050600181019050610d9f565b505050505050565b600060029050919050565b600081905092915050565b6000819050919050565b610e05816109f4565b82525050565b6000610e178383610dfc565b60208301905092915050565b6000602082019050919050565b610e3981610ddc565b610e438184610de7565b9250610e4e82610df2565b8060005b83811015610e7f578151610e668782610e0b565b9650610e7183610e23565b925050600181019050610e52565b505050505050565b600061014082019050610e9d6000830187610d0d565b610eaa6040830186610d7d565b610eb760c0830185610d0d565b610ec5610100830184610e30565b95945050505050565b600081519050919050565b600081905092915050565b60005b83811015610f02578082015181840152602081019050610ee7565b60008484015250505050565b6000610f1982610ece565b610f238185610ed9565b9350610f33818560208601610ee4565b80840191505092915050565b6000610f4b8284610f0e565b915081905092915050565b7f496e76616c69642070726f6f6600000000000000000000000000000000000000600082015250565b6000610f8c600d83610b5a565b9150610f9782610f56565b602082019050919050565b60006020820190508181036000830152610fbb81610f7f565b9050919050565b50565b6000610fd2600083610ed9565b9150610fdd82610fc2565b600082019050919050565b6000610ff382610fc5565b9150819050919050565b7f4661696c656420746f2073656e642066756e6473000000000000000000000000600082015250565b6000611033601483610b5a565b915061103e82610ffd565b602082019050919050565b6000602082019050818103600083015261106281611026565b9050919050565b7f4e487b7100000000000000000000000000000000000000000000000000000000600052601160045260246000fd5b60006110a3826109f4565b91506110ae836109f4565b92508282019050808211156110c6576110c5611069565b5b92915050565b7f496e76616c6964206465706f73697420616d6f756e7400000000000000000000600082015250565b6000611102601683610b5a565b915061110d826110cc565b602082019050919050565b60006020820190508181036000830152611131816110f5565b9050919050565b7f436f6d6d69746d656e7420616c72656164792065786973747300000000000000600082015250565b600061116e601983610b5a565b915061117982611138565b602082019050919050565b6000602082019050818103600083015261119d81611161565b9050919050565b60008160011c9050919050565b6000808291508390505b60018511156111fb578086048111156111d7576111d6611069565b5b60018516156111e65780820291505b80810290506111f4856111a4565b94506111bb565b94509492505050565b60008261121457600190506112d0565b8161122257600090506112d0565b8160018114611238576002811461124257611271565b60019150506112d0565b60ff84111561125457611253611069565b5b8360020a91508482111561126b5761126a611069565b5b506112d0565b5060208310610133831016604e8410600b84101617156112a65782820a9050838111156112a1576112a0611069565b5b6112d0565b6112b384848460016111b1565b925090508184048111156112ca576112c9611069565b5b81810290505b9392505050565b600060ff82169050919050565b60006112ef826109f4565b91506112fa836112d7565b92506113277fffffffffffffffffffffffffffffffffffffffffffffffffffffffffffffffff8484611204565b905092915050565b7f547265652069732066756c6c0000000000000000000000000000000000000000600082015250565b6000611365600c83610b5a565b91506113708261132f565b602082019050919050565b6000602082019050818103600083015261139481611358565b9050919050565b7f4e487b7100000000000000000000000000000000000000000000000000000000600052601260045260246000fd5b60006113d5826109f4565b91506113e0836109f4565b9250826113f0576113ef61139b565b5b828206905092915050565b60006060820190506114106000830185610e30565b61141d60408301846109fe565b9392505050565b60008151905061143381610a2d565b92915050565b60006020828403121561144f5761144e610a28565b5b600061145d84828501611424565b91505092915050565b6000611471826109f4565b915061147c836109f4565b92508261148c5761148b61139b565b5b828204905092915050565b60006114a2826112d7565b915060ff82036114b5576114b4611069565b5b600182019050919050565b6000600a9050919050565b600081905092915050565b6000819050919050565b6000602082019050919050565b6114f6816114c0565b61150081846114cb565b925061150b826114d6565b8060005b8381101561153c5781516115238782610e0b565b965061152e836114e0565b92505060018101905061150f565b505050505050565b6000600a9050919050565b600081905092915050565b6000819050919050565b61156d816112d7565b82525050565b600061157f8383611564565b60208301905092915050565b6000602082019050919050565b6115a181611544565b6115ab818461154f565b92506115b68261155a565b8060005b838110156115e75781516115ce8782611573565b96506115d98361158b565b9250506001810190506115ba565b505050505050565b60006102a08201905061160560008301866109fe565b61161260208301856114ed565b611620610160830184611598565b94935050505056fea264697066735822122073a5f041f9ba7d67e6ce7b1474065a4ed7e7f712f432a9abd634216f0d3d62d764736f6c63430008140033",
  "linkReferences": {},
  "deployedLinkReferences": {}
}