{
  "_format": "hh-sol-artifact-1",
  "contractName": "MiMC5",
  "sourceName": "contracts/MiMC5.sol",
  "abi": [
    {
      "inputs": [
        {
          "internalType": "uint256[2]",
          "name": "_ins",
          "type": "uint256[2]"
        },
        {
          "internalType": "uint256",
          "name": "_k",
          "type": "uint256"
        }
      ],
      "name": "MiMC5Sponge",
      "outputs": [
        {
          "internalType": "uint256",
          "name": "h",
          "type": "uint256"
        }
      ],
      "stateMutability": "view",
      "type": "function"
    }
  ],
  "bytecode": "0x60806040527f30644e72e131a029b85045b68181585d2833e84879b9709143e1f593f0000001600055604051806102800160405280600081526020017feaee8b98a0640094e7332880f383c81eff42cf920795b82a7d5a0eefdb7fa15581526020017fa1d69e55c1d186795f96369d1eeb5ef9a93e41f43dcefa033bd0ab0af4f99a7481526020017fa504163b06f6240397da248a204bf944db41019b2e739c4c4846f1b58188a1d081526020017f221ac8bb3f1b07f91b0fb3f27c88f39ff73045ebdcb7da8afa8d510322abccc981526020017fff8fd5c0bfb65b55ee762c087760bf05a747ab13a0df6ebdba22dfbb6c757abf81526020017fe26b2cd41845cec421a6209268e10dbc05fe8bfe74e15ec7ea6eb5b291c999da81526020017f76736b459b3143bc325995123a602f08bedc6801da9e05f3f8f2ee8e22adbfe281526020017fb4e5710571666b1e204fb03b1909e5a55b75cc607b292431ac47b688493f7de181526020017f7ae871621f16052c4fca4786919fc5e40a05bef8ea725ef47a5b1500d5db699181526020017f2efb9b4ab65e94291a0cf58b743b4daff12db28fe99fb58be59b753a6d519fef81526020017f4f831205e0911f912b9d7327e112019010e9832ad59f5187fd19792a7162fcb081526020017f55651d6f1460aa21e8184829ffce936cecde67fd23d5c7cb02c9ebb78093f9c081526020017fe07a2479edae3568a61f47910d9c1290c5448c4ffcfcc4f73f3d6032f0f8242281526020017f576a071c5170814551bc906ef5edc1c3d83c3926844e21800439ba1d8b0298cf81526020017f97d48f802d9fc1263fffab73323c53829f24d148a705ca5116216914fea606ff81526020017f27704318273abdfd69703bdcdbb0b29da861c83cab09084026f121d4cf41d09581526020017fea415fd9294665dfc682664d57fc19c2a30bc1476e3d801d6ef71b22a81618c181526020017ff75d58079860b5d06c9139ca846fd94895a58d74f39d97608acd9c54148193d681526020017f0a6dac7c9d27b8754508f21b68b825b7e6129b82475b9416ccbf81db8e93ce3b815250600190601461031b92919061032e565b5034801561032857600080fd5b5061038b565b826014810192821561035d579160200282015b8281111561035c578251825591602001919060010190610341565b5b50905061036a919061036e565b5090565b5b8082111561038757600081600090555060010161036f565b5090565b6104bd8061039a6000396000f3fe608060405234801561001057600080fd5b506004361061002b5760003560e01c8063d622e5a414610030575b600080fd5b61004a6004803603810190610045919061035a565b610060565b60405161005791906103a9565b60405180910390f35b600080600090506000805b60028160ff1610156100cd5760005480610088576100876103c4565b5b868260ff166002811061009e5761009d6103f3565b5b6020020151840892506100b28383876100d9565b809350819450505080806100c59061045e565b91505061006b565b50819250505092915050565b6000806000601490506000869050600086905060008060008060005b8760ff168160ff1610156101b85760005480610114576101136103c4565b5b8b870894506000548061012a576101296103c4565b5b60018260ff1660148110610141576101406103f3565b5b01548608945060005480610158576101576103c4565b5b85860993506000548061016e5761016d6103c4565b5b848509925060005480610184576101836103c4565b5b85840994508591506000548061019d5761019c6103c4565b5b858808955081965080806101b09061045e565b9150506100f5565b5085859850985050505050505050935093915050565b6000604051905090565b600080fd5b600080fd5b6000601f19601f8301169050919050565b7f4e487b7100000000000000000000000000000000000000000000000000000000600052604160045260246000fd5b61022b826101e2565b810181811067ffffffffffffffff8211171561024a576102496101f3565b5b80604052505050565b600061025d6101ce565b90506102698282610222565b919050565b600067ffffffffffffffff821115610289576102886101f3565b5b602082029050919050565b600080fd5b6000819050919050565b6102ac81610299565b81146102b757600080fd5b50565b6000813590506102c9816102a3565b92915050565b60006102e26102dd8461026e565b610253565b905080602084028301858111156102fc576102fb610294565b5b835b81811015610325578061031188826102ba565b8452602084019350506020810190506102fe565b5050509392505050565b600082601f830112610344576103436101dd565b5b60026103518482856102cf565b91505092915050565b60008060608385031215610371576103706101d8565b5b600061037f8582860161032f565b9250506040610390858286016102ba565b9150509250929050565b6103a381610299565b82525050565b60006020820190506103be600083018461039a565b92915050565b7f4e487b7100000000000000000000000000000000000000000000000000000000600052601260045260246000fd5b7f4e487b7100000000000000000000000000000000000000000000000000000000600052603260045260246000fd5b7f4e487b7100000000000000000000000000000000000000000000000000000000600052601160045260246000fd5b600060ff82169050919050565b600061046982610451565b915060ff820361047c5761047b610422565b5b60018201905091905056fea2646970667358221220d8e01267fcf9de127c3b29a4a460629b119877af96cd3e1b8ffd487dc6a0df9264736f6c63430008140033",
  "linkReferences": {},
  "deployedLinkReferences": {}
}