{
  "_format": "hh-sol-artifact-1",
  "contractName": "PoolETH",
  "sourceName": "contracts/PoolETH.sol",
  "abi": [
    {
      "inputs": [
        {
          "internalType": "uint256",
          "name": "_depositAmount",
          "type": "uint256"
        },
        {
          "internalType": "address",
          "name": "_whisper",
          "type": "address"
        },
        {
          "internalType": "address",
          "name": "_verifier",
          "type": "address"
        }
      ],
      "stateMutability": "nonpayable",
      "type": "constructor"
    },
    {
      "inputs": [
        {
          "internalType": "uint256",
          "name": "_commitment",
          "type": "uint256"
        }
      ],
      "name": "Deposit",
      "outputs": [],
      "stateMutability": "payable",
      "type": "function"
    },
    {
      "inputs": [],
      "name": "depositAmount",
      "outputs": [
        {
          "internalType": "uint256",
          "name": "",
          "type": "uint256"
        }
      ],
      "stateMutability": "view",
      "type": "function"
    },
    {
      "inputs": [],
      "name": "fees",
      "outputs": [
        {
          "internalType": "uint256",
          "name": "",
          "type": "uint256"
        }
      ],
      "stateMutability": "view",
      "type": "function"
    },
    {
      "inputs": [],
      "name": "owner",
      "outputs": [
        {
          "internalType": "address",
          "name": "",
          "type": "address"
        }
      ],
      "stateMutability": "view",
      "type": "function"
    },
    {
      "inputs": [
        {
          "internalType": "uint256",
          "name": "_fees",
          "type": "uint256"
        }
      ],
      "name": "setFees",
      "outputs": [],
      "stateMutability": "nonpayable",
      "type": "function"
    },
    {
      "inputs": [
        {
          "internalType": "uint256[2]",
          "name": "_pA",
          "type": "uint256[2]"
        },
        {
          "internalType": "uint256[2][2]",
          "name": "_pB",
          "type": "uint256[2][2]"
        },
        {
          "internalType": "uint256[2]",
          "name": "_pC",
          "type": "uint256[2]"
        },
        {
          "internalType": "uint256[1]",
          "name": "_pubSignals",
          "type": "uint256[1]"
        }
      ],
      "name": "withdraw",
      "outputs": [],
      "stateMutability": "nonpayable",
      "type": "function"
    }
  ],
  "bytecode": "0x6080604052655af3107a40006004553480156200001b57600080fd5b5060405162000f8c38038062000f8c8339818101604052810190620000419190620001b8565b82600381905550816000806101000a81548173ffffffffffffffffffffffffffffffffffffffff021916908373ffffffffffffffffffffffffffffffffffffffff16021790555080600160006101000a81548173ffffffffffffffffffffffffffffffffffffffff021916908373ffffffffffffffffffffffffffffffffffffffff16021790555033600260006101000a81548173ffffffffffffffffffffffffffffffffffffffff021916908373ffffffffffffffffffffffffffffffffffffffff16021790555050505062000214565b600080fd5b6000819050919050565b6200012d8162000118565b81146200013957600080fd5b50565b6000815190506200014d8162000122565b92915050565b600073ffffffffffffffffffffffffffffffffffffffff82169050919050565b6000620001808262000153565b9050919050565b620001928162000173565b81146200019e57600080fd5b50565b600081519050620001b28162000187565b92915050565b600080600060608486031215620001d457620001d362000113565b5b6000620001e4868287016200013c565b9350506020620001f786828701620001a1565b92505060406200020a86828701620001a1565b9150509250925092565b610d6880620002246000396000f3fe6080604052600436106100555760003560e01c80633d18678e1461005a578063419759f5146100835780634d6ce1e5146100ae578063768ea39d146100ca5780638da5cb5b146100f35780639af1d35a1461011e575b600080fd5b34801561006657600080fd5b50610081600480360381019061007c9190610639565b610149565b005b34801561008f57600080fd5b506100986101e3565b6040516100a59190610675565b60405180910390f35b6100c860048036038101906100c39190610639565b6101e9565b005b3480156100d657600080fd5b506100f160048036038101906100ec91906106fb565b6102ce565b005b3480156100ff57600080fd5b506101086105d2565b60405161011591906107a5565b60405180910390f35b34801561012a57600080fd5b506101336105f8565b6040516101409190610675565b60405180910390f35b600260009054906101000a900473ffffffffffffffffffffffffffffffffffffffff1673ffffffffffffffffffffffffffffffffffffffff163373ffffffffffffffffffffffffffffffffffffffff16146101d9576040517f08c379a00000000000000000000000000000000000000000000000000000000081526004016101d090610843565b60405180910390fd5b8060048190555050565b60035481565b60006004546003546101fb9190610892565b905080341461023f576040517f08c379a000000000000000000000000000000000000000000000000000000000815260040161023690610912565b60405180910390fd5b60008054906101000a900473ffffffffffffffffffffffffffffffffffffffff1673ffffffffffffffffffffffffffffffffffffffff1663797a6890836040518263ffffffff1660e01b81526004016102989190610675565b600060405180830381600087803b1580156102b257600080fd5b505af11580156102c6573d6000803e3d6000fd5b505050505050565b600354471015610313576040517f08c379a000000000000000000000000000000000000000000000000000000000815260040161030a9061097e565b60405180910390fd5b6000816000600181106103295761032861099e565b5b6020020135905060003373ffffffffffffffffffffffffffffffffffffffff1690506000600160009054906101000a900473ffffffffffffffffffffffffffffffffffffffff1673ffffffffffffffffffffffffffffffffffffffff168787876040518060400160405280888152602001878152506040516024016103b19493929190610b50565b60405160208183030381529060405263f5c9d69e60e01b6020820180517bffffffffffffffffffffffffffffffffffffffffffffffffffffffff83818316178352505050506040516104039190610c08565b6000604051808303816000865af19150503d8060008114610440576040519150601f19603f3d011682016040523d82523d6000602084013e610445565b606091505b5050905080610489576040517f08c379a000000000000000000000000000000000000000000000000000000000815260040161048090610c6b565b60405180910390fd5b60008054906101000a900473ffffffffffffffffffffffffffffffffffffffff1673ffffffffffffffffffffffffffffffffffffffff16636b94fbda846040518263ffffffff1660e01b81526004016104e29190610675565b600060405180830381600087803b1580156104fc57600080fd5b505af1158015610510573d6000803e3d6000fd5b50505050600033905060008173ffffffffffffffffffffffffffffffffffffffff1660035460405161054190610cb1565b60006040518083038185875af1925050503d806000811461057e576040519150601f19603f3d011682016040523d82523d6000602084013e610583565b606091505b50509050806105c7576040517f08c379a00000000000000000000000000000000000000000000000000000000081526004016105be90610d12565b60405180910390fd5b505050505050505050565b600260009054906101000a900473ffffffffffffffffffffffffffffffffffffffff1681565b60045481565b600080fd5b6000819050919050565b61061681610603565b811461062157600080fd5b50565b6000813590506106338161060d565b92915050565b60006020828403121561064f5761064e6105fe565b5b600061065d84828501610624565b91505092915050565b61066f81610603565b82525050565b600060208201905061068a6000830184610666565b92915050565b600080fd5b6000819050826020600202820111156106b1576106b0610690565b5b92915050565b6000819050826040600202820111156106d3576106d2610690565b5b92915050565b6000819050826020600102820111156106f5576106f4610690565b5b92915050565b6000806000806101208587031215610716576107156105fe565b5b600061072487828801610695565b9450506040610735878288016106b7565b93505060c061074687828801610695565b925050610100610758878288016106d9565b91505092959194509250565b600073ffffffffffffffffffffffffffffffffffffffff82169050919050565b600061078f82610764565b9050919050565b61079f81610784565b82525050565b60006020820190506107ba6000830184610796565b92915050565b600082825260208201905092915050565b7f4f6e6c792068616e646c65722063616e2063616c6c20746869732066756e637460008201527f696f6e0000000000000000000000000000000000000000000000000000000000602082015250565b600061082d6023836107c0565b9150610838826107d1565b604082019050919050565b6000602082019050818103600083015261085c81610820565b9050919050565b7f4e487b7100000000000000000000000000000000000000000000000000000000600052601160045260246000fd5b600061089d82610603565b91506108a883610603565b92508282019050808211156108c0576108bf610863565b5b92915050565b7f496e76616c6964206465706f73697420616d6f756e7400000000000000000000600082015250565b60006108fc6016836107c0565b9150610907826108c6565b602082019050919050565b6000602082019050818103600083015261092b816108ef565b9050919050565b7f496e73756666696369656e742062616c616e6365000000000000000000000000600082015250565b60006109686014836107c0565b915061097382610932565b602082019050919050565b600060208201905081810360008301526109978161095b565b9050919050565b7f4e487b7100000000000000000000000000000000000000000000000000000000600052603260045260246000fd5b82818337505050565b6109e2604083836109cd565b5050565b600060029050919050565b600081905092915050565b6000819050919050565b610a12604083836109cd565b5050565b6000610a228383610a06565b60408301905092915050565b600082905092915050565b6000604082019050919050565b610a4f816109e6565b610a5981846109f1565b9250610a64826109fc565b8060005b83811015610a9d57610a7a8284610a2e565b610a848782610a16565b9650610a8f83610a39565b925050600181019050610a68565b505050505050565b600060029050919050565b600081905092915050565b6000819050919050565b610ace81610603565b82525050565b6000610ae08383610ac5565b60208301905092915050565b6000602082019050919050565b610b0281610aa5565b610b0c8184610ab0565b9250610b1782610abb565b8060005b83811015610b48578151610b2f8782610ad4565b9650610b3a83610aec565b925050600181019050610b1b565b505050505050565b600061014082019050610b6660008301876109d6565b610b736040830186610a46565b610b8060c08301856109d6565b610b8e610100830184610af9565b95945050505050565b600081519050919050565b600081905092915050565b60005b83811015610bcb578082015181840152602081019050610bb0565b60008484015250505050565b6000610be282610b97565b610bec8185610ba2565b9350610bfc818560208601610bad565b80840191505092915050565b6000610c148284610bd7565b915081905092915050565b7f496e76616c69642070726f6f6600000000000000000000000000000000000000600082015250565b6000610c55600d836107c0565b9150610c6082610c1f565b602082019050919050565b60006020820190508181036000830152610c8481610c48565b9050919050565b50565b6000610c9b600083610ba2565b9150610ca682610c8b565b600082019050919050565b6000610cbc82610c8e565b9150819050919050565b7f4661696c656420746f2073656e642066756e6473000000000000000000000000600082015250565b6000610cfc6014836107c0565b9150610d0782610cc6565b602082019050919050565b60006020820190508181036000830152610d2b81610cef565b905091905056fea264697066735822122098522dcfc3142933ea67fe01049c89c60e74252573db3a2e1da3333eb97099dd64736f6c63430008140033",
  "linkReferences": {},
  "deployedLinkReferences": {}
}