{
  "contracts/MiMC5.sol": {
    "MiMC5": {
      "abi": [
        {
          "inputs": [
            {
              "internalType": "uint256[2]",
              "name": "_ins",
              "type": "uint256[2]"
            },
            {
              "internalType": "uint256",
              "name": "_k",
              "type": "uint256"
            }
          ],
          "name": "MiMC5Sponge",
          "outputs": [
            {
              "internalType": "uint256",
              "name": "h",
              "type": "uint256"
            }
          ],
          "stateMutability": "view",
          "type": "function"
        }
      ],
      "evm": {
        "bytecode": {
          "linkReferences": {},
          "object": "60806040527f30644e72e131a029b85045b68181585d2833e84879b9709143e1f593f0000001600055604051806102800160405280600081526020017feaee8b98a0640094e7332880f383c81eff42cf920795b82a7d5a0eefdb7fa15581526020017fa1d69e55c1d186795f96369d1eeb5ef9a93e41f43dcefa033bd0ab0af4f99a7481526020017fa504163b06f6240397da248a204bf944db41019b2e739c4c4846f1b58188a1d081526020017f221ac8bb3f1b07f91b0fb3f27c88f39ff73045ebdcb7da8afa8d510322abccc981526020017fff8fd5c0bfb65b55ee762c087760bf05a747ab13a0df6ebdba22dfbb6c757abf81526020017fe26b2cd41845cec421a6209268e10dbc05fe8bfe74e15ec7ea6eb5b291c999da81526020017f76736b459b3143bc325995123a602f08bedc6801da9e05f3f8f2ee8e22adbfe281526020017fb4e5710571666b1e204fb03b1909e5a55b75cc607b292431ac47b688493f7de181526020017f7ae871621f16052c4fca4786919fc5e40a05bef8ea725ef47a5b1500d5db699181526020017f2efb9b4ab65e94291a0cf58b743b4daff12db28fe99fb58be59b753a6d519fef81526020017f4f831205e0911f912b9d7327e112019010e9832ad59f5187fd19792a7162fcb081526020017f55651d6f1460aa21e8184829ffce936cecde67fd23d5c7cb02c9ebb78093f9c081526020017fe07a2479edae3568a61f47910d9c1290c5448c4ffcfcc4f73f3d6032f0f8242281526020017f576a071c5170814551bc906ef5edc1c3d83c3926844e21800439ba1d8b0298cf81526020017f97d48f802d9fc1263fffab73323c53829f24d148a705ca5116216914fea606ff81526020017f27704318273abdfd69703bdcdbb0b29da861c83cab09084026f121d4cf41d09581526020017fea415fd9294665dfc682664d57fc19c2a30bc1476e3d801d6ef71b22a81618c181526020017ff75d58079860b5d06c9139ca846fd94895a58d74f39d97608acd9c54148193d681526020017f0a6dac7c9d27b8754508f21b68b825b7e6129b82475b9416ccbf81db8e93ce3b815250600190601461031b92919061032e565b5034801561032857600080fd5b5061038b565b826014810192821561035d579160200282015b8281111561035c578251825591602001919060010190610341565b5b50905061036a919061036e565b5090565b5b8082111561038757600081600090555060010161036f565b5090565b6104bd8061039a6000396000f3fe608060405234801561001057600080fd5b506004361061002b5760003560e01c8063d622e5a414610030575b600080fd5b61004a6004803603810190610045919061035a565b610060565b60405161005791906103a9565b60405180910390f35b600080600090506000805b60028160ff1610156100cd5760005480610088576100876103c4565b5b868260ff166002811061009e5761009d6103f3565b5b6020020151840892506100b28383876100d9565b809350819450505080806100c59061045e565b91505061006b565b50819250505092915050565b6000806000601490506000869050600086905060008060008060005b8760ff168160ff1610156101b85760005480610114576101136103c4565b5b8b870894506000548061012a576101296103c4565b5b60018260ff1660148110610141576101406103f3565b5b01548608945060005480610158576101576103c4565b5b85860993506000548061016e5761016d6103c4565b5b848509925060005480610184576101836103c4565b5b85840994508591506000548061019d5761019c6103c4565b5b858808955081965080806101b09061045e565b9150506100f5565b5085859850985050505050505050935093915050565b6000604051905090565b600080fd5b600080fd5b6000601f19601f8301169050919050565b7f4e487b7100000000000000000000000000000000000000000000000000000000600052604160045260246000fd5b61022b826101e2565b810181811067ffffffffffffffff8211171561024a576102496101f3565b5b80604052505050565b600061025d6101ce565b90506102698282610222565b919050565b600067ffffffffffffffff821115610289576102886101f3565b5b602082029050919050565b600080fd5b6000819050919050565b6102ac81610299565b81146102b757600080fd5b50565b6000813590506102c9816102a3565b92915050565b60006102e26102dd8461026e565b610253565b905080602084028301858111156102fc576102fb610294565b5b835b81811015610325578061031188826102ba565b8452602084019350506020810190506102fe565b5050509392505050565b600082601f830112610344576103436101dd565b5b60026103518482856102cf565b91505092915050565b60008060608385031215610371576103706101d8565b5b600061037f8582860161032f565b9250506040610390858286016102ba565b9150509250929050565b6103a381610299565b82525050565b60006020820190506103be600083018461039a565b92915050565b7f4e487b7100000000000000000000000000000000000000000000000000000000600052601260045260246000fd5b7f4e487b7100000000000000000000000000000000000000000000000000000000600052603260045260246000fd5b7f4e487b7100000000000000000000000000000000000000000000000000000000600052601160045260246000fd5b600060ff82169050919050565b600061046982610451565b915060ff820361047c5761047b610422565b5b60018201905091905056fea2646970667358221220d8e01267fcf9de127c3b29a4a460629b119877af96cd3e1b8ffd487dc6a0df9264736f6c63430008140033",
          "opcodes": "PUSH1 0x80 PUSH1 0x40 MSTORE PUSH32 0x30644E72E131A029B85045B68181585D2833E84879B9709143E1F593F0000001 PUSH1 0x0 SSTORE PUSH1 0x40 MLOAD DUP1 PUSH2 0x280 ADD PUSH1 0x40 MSTORE DUP1 PUSH1 0x0 DUP2 MSTORE PUSH1 0x20 ADD PUSH32 0xEAEE8B98A0640094E7332880F383C81EFF42CF920795B82A7D5A0EEFDB7FA155 DUP2 MSTORE PUSH1 0x20 ADD PUSH32 0xA1D69E55C1D186795F96369D1EEB5EF9A93E41F43DCEFA033BD0AB0AF4F99A74 DUP2 MSTORE PUSH1 0x20 ADD PUSH32 0xA504163B06F6240397DA248A204BF944DB41019B2E739C4C4846F1B58188A1D0 DUP2 MSTORE PUSH1 0x20 ADD PUSH32 0x221AC8BB3F1B07F91B0FB3F27C88F39FF73045EBDCB7DA8AFA8D510322ABCCC9 DUP2 MSTORE PUSH1 0x20 ADD PUSH32 0xFF8FD5C0BFB65B55EE762C087760BF05A747AB13A0DF6EBDBA22DFBB6C757ABF DUP2 MSTORE PUSH1 0x20 ADD PUSH32 0xE26B2CD41845CEC421A6209268E10DBC05FE8BFE74E15EC7EA6EB5B291C999DA DUP2 MSTORE PUSH1 0x20 ADD PUSH32 0x76736B459B3143BC325995123A602F08BEDC6801DA9E05F3F8F2EE8E22ADBFE2 DUP2 MSTORE PUSH1 0x20 ADD PUSH32 0xB4E5710571666B1E204FB03B1909E5A55B75CC607B292431AC47B688493F7DE1 DUP2 MSTORE PUSH1 0x20 ADD PUSH32 0x7AE871621F16052C4FCA4786919FC5E40A05BEF8EA725EF47A5B1500D5DB6991 DUP2 MSTORE PUSH1 0x20 ADD PUSH32 0x2EFB9B4AB65E94291A0CF58B743B4DAFF12DB28FE99FB58BE59B753A6D519FEF DUP2 MSTORE PUSH1 0x20 ADD PUSH32 0x4F831205E0911F912B9D7327E112019010E9832AD59F5187FD19792A7162FCB0 DUP2 MSTORE PUSH1 0x20 ADD PUSH32 0x55651D6F1460AA21E8184829FFCE936CECDE67FD23D5C7CB02C9EBB78093F9C0 DUP2 MSTORE PUSH1 0x20 ADD PUSH32 0xE07A2479EDAE3568A61F47910D9C1290C5448C4FFCFCC4F73F3D6032F0F82422 DUP2 MSTORE PUSH1 0x20 ADD PUSH32 0x576A071C5170814551BC906EF5EDC1C3D83C3926844E21800439BA1D8B0298CF DUP2 MSTORE PUSH1 0x20 ADD PUSH32 0x97D48F802D9FC1263FFFAB73323C53829F24D148A705CA5116216914FEA606FF DUP2 MSTORE PUSH1 0x20 ADD PUSH32 0x27704318273ABDFD69703BDCDBB0B29DA861C83CAB09084026F121D4CF41D095 DUP2 MSTORE PUSH1 0x20 ADD PUSH32 0xEA415FD9294665DFC682664D57FC19C2A30BC1476E3D801D6EF71B22A81618C1 DUP2 MSTORE PUSH1 0x20 ADD PUSH32 0xF75D58079860B5D06C9139CA846FD94895A58D74F39D97608ACD9C54148193D6 DUP2 MSTORE PUSH1 0x20 ADD PUSH32 0xA6DAC7C9D27B8754508F21B68B825B7E6129B82475B9416CCBF81DB8E93CE3B DUP2 MSTORE POP PUSH1 0x1 SWAP1 PUSH1 0x14 PUSH2 0x31B SWAP3 SWAP2 SWAP1 PUSH2 0x32E JUMP JUMPDEST POP CALLVALUE DUP1 ISZERO PUSH2 0x328 JUMPI PUSH1 0x0 DUP1 REVERT JUMPDEST POP PUSH2 0x38B JUMP JUMPDEST DUP3 PUSH1 0x14 DUP2 ADD SWAP3 DUP3 ISZERO PUSH2 0x35D JUMPI SWAP2 PUSH1 0x20 MUL DUP3 ADD JUMPDEST DUP3 DUP2 GT ISZERO PUSH2 0x35C JUMPI DUP3 MLOAD DUP3 SSTORE SWAP2 PUSH1 0x20 ADD SWAP2 SWAP1 PUSH1 0x1 ADD SWAP1 PUSH2 0x341 JUMP JUMPDEST JUMPDEST POP SWAP1 POP PUSH2 0x36A SWAP2 SWAP1 PUSH2 0x36E JUMP JUMPDEST POP SWAP1 JUMP JUMPDEST JUMPDEST DUP1 DUP3 GT ISZERO PUSH2 0x387 JUMPI PUSH1 0x0 DUP2 PUSH1 0x0 SWAP1 SSTORE POP PUSH1 0x1 ADD PUSH2 0x36F JUMP JUMPDEST POP SWAP1 JUMP JUMPDEST PUSH2 0x4BD DUP1 PUSH2 0x39A PUSH1 0x0 CODECOPY PUSH1 0x0 RETURN INVALID PUSH1 0x80 PUSH1 0x40 MSTORE CALLVALUE DUP1 ISZERO PUSH2 0x10 JUMPI PUSH1 0x0 DUP1 REVERT JUMPDEST POP PUSH1 0x4 CALLDATASIZE LT PUSH2 0x2B JUMPI PUSH1 0x0 CALLDATALOAD PUSH1 0xE0 SHR DUP1 PUSH4 0xD622E5A4 EQ PUSH2 0x30 JUMPI JUMPDEST PUSH1 0x0 DUP1 REVERT JUMPDEST PUSH2 0x4A PUSH1 0x4 DUP1 CALLDATASIZE SUB DUP2 ADD SWAP1 PUSH2 0x45 SWAP2 SWAP1 PUSH2 0x35A JUMP JUMPDEST PUSH2 0x60 JUMP JUMPDEST PUSH1 0x40 MLOAD PUSH2 0x57 SWAP2 SWAP1 PUSH2 0x3A9 JUMP JUMPDEST PUSH1 0x40 MLOAD DUP1 SWAP2 SUB SWAP1 RETURN JUMPDEST PUSH1 0x0 DUP1 PUSH1 0x0 SWAP1 POP PUSH1 0x0 DUP1 JUMPDEST PUSH1 0x2 DUP2 PUSH1 0xFF AND LT ISZERO PUSH2 0xCD JUMPI PUSH1 0x0 SLOAD DUP1 PUSH2 0x88 JUMPI PUSH2 0x87 PUSH2 0x3C4 JUMP JUMPDEST JUMPDEST DUP7 DUP3 PUSH1 0xFF AND PUSH1 0x2 DUP2 LT PUSH2 0x9E JUMPI PUSH2 0x9D PUSH2 0x3F3 JUMP JUMPDEST JUMPDEST PUSH1 0x20 MUL ADD MLOAD DUP5 ADDMOD SWAP3 POP PUSH2 0xB2 DUP4 DUP4 DUP8 PUSH2 0xD9 JUMP JUMPDEST DUP1 SWAP4 POP DUP2 SWAP5 POP POP POP DUP1 DUP1 PUSH2 0xC5 SWAP1 PUSH2 0x45E JUMP JUMPDEST SWAP2 POP POP PUSH2 0x6B JUMP JUMPDEST POP DUP2 SWAP3 POP POP POP SWAP3 SWAP2 POP POP JUMP JUMPDEST PUSH1 0x0 DUP1 PUSH1 0x0 PUSH1 0x14 SWAP1 POP PUSH1 0x0 DUP7 SWAP1 POP PUSH1 0x0 DUP7 SWAP1 POP PUSH1 0x0 DUP1 PUSH1 0x0 DUP1 PUSH1 0x0 JUMPDEST DUP8 PUSH1 0xFF AND DUP2 PUSH1 0xFF AND LT ISZERO PUSH2 0x1B8 JUMPI PUSH1 0x0 SLOAD DUP1 PUSH2 0x114 JUMPI PUSH2 0x113 PUSH2 0x3C4 JUMP JUMPDEST JUMPDEST DUP12 DUP8 ADDMOD SWAP5 POP PUSH1 0x0 SLOAD DUP1 PUSH2 0x12A JUMPI PUSH2 0x129 PUSH2 0x3C4 JUMP JUMPDEST JUMPDEST PUSH1 0x1 DUP3 PUSH1 0xFF AND PUSH1 0x14 DUP2 LT PUSH2 0x141 JUMPI PUSH2 0x140 PUSH2 0x3F3 JUMP JUMPDEST JUMPDEST ADD SLOAD DUP7 ADDMOD SWAP5 POP PUSH1 0x0 SLOAD DUP1 PUSH2 0x158 JUMPI PUSH2 0x157 PUSH2 0x3C4 JUMP JUMPDEST JUMPDEST DUP6 DUP7 MULMOD SWAP4 POP PUSH1 0x0 SLOAD DUP1 PUSH2 0x16E JUMPI PUSH2 0x16D PUSH2 0x3C4 JUMP JUMPDEST JUMPDEST DUP5 DUP6 MULMOD SWAP3 POP PUSH1 0x0 SLOAD DUP1 PUSH2 0x184 JUMPI PUSH2 0x183 PUSH2 0x3C4 JUMP JUMPDEST JUMPDEST DUP6 DUP5 MULMOD SWAP5 POP DUP6 SWAP2 POP PUSH1 0x0 SLOAD DUP1 PUSH2 0x19D JUMPI PUSH2 0x19C PUSH2 0x3C4 JUMP JUMPDEST JUMPDEST DUP6 DUP9 ADDMOD SWAP6 POP DUP2 SWAP7 POP DUP1 DUP1 PUSH2 0x1B0 SWAP1 PUSH2 0x45E JUMP JUMPDEST SWAP2 POP POP PUSH2 0xF5 JUMP JUMPDEST POP DUP6 DUP6 SWAP9 POP SWAP9 POP POP POP POP POP POP POP POP SWAP4 POP SWAP4 SWAP2 POP POP JUMP JUMPDEST PUSH1 0x0 PUSH1 0x40 MLOAD SWAP1 POP SWAP1 JUMP JUMPDEST PUSH1 0x0 DUP1 REVERT JUMPDEST PUSH1 0x0 DUP1 REVERT JUMPDEST PUSH1 0x0 PUSH1 0x1F NOT PUSH1 0x1F DUP4 ADD AND SWAP1 POP SWAP2 SWAP1 POP JUMP JUMPDEST PUSH32 0x4E487B7100000000000000000000000000000000000000000000000000000000 PUSH1 0x0 MSTORE PUSH1 0x41 PUSH1 0x4 MSTORE PUSH1 0x24 PUSH1 0x0 REVERT JUMPDEST PUSH2 0x22B DUP3 PUSH2 0x1E2 JUMP JUMPDEST DUP2 ADD DUP2 DUP2 LT PUSH8 0xFFFFFFFFFFFFFFFF DUP3 GT OR ISZERO PUSH2 0x24A JUMPI PUSH2 0x249 PUSH2 0x1F3 JUMP JUMPDEST JUMPDEST DUP1 PUSH1 0x40 MSTORE POP POP POP JUMP JUMPDEST PUSH1 0x0 PUSH2 0x25D PUSH2 0x1CE JUMP JUMPDEST SWAP1 POP PUSH2 0x269 DUP3 DUP3 PUSH2 0x222 JUMP JUMPDEST SWAP2 SWAP1 POP JUMP JUMPDEST PUSH1 0x0 PUSH8 0xFFFFFFFFFFFFFFFF DUP3 GT ISZERO PUSH2 0x289 JUMPI PUSH2 0x288 PUSH2 0x1F3 JUMP JUMPDEST JUMPDEST PUSH1 0x20 DUP3 MUL SWAP1 POP SWAP2 SWAP1 POP JUMP JUMPDEST PUSH1 0x0 DUP1 REVERT JUMPDEST PUSH1 0x0 DUP2 SWAP1 POP SWAP2 SWAP1 POP JUMP JUMPDEST PUSH2 0x2AC DUP2 PUSH2 0x299 JUMP JUMPDEST DUP2 EQ PUSH2 0x2B7 JUMPI PUSH1 0x0 DUP1 REVERT JUMPDEST POP JUMP JUMPDEST PUSH1 0x0 DUP2 CALLDATALOAD SWAP1 POP PUSH2 0x2C9 DUP2 PUSH2 0x2A3 JUMP JUMPDEST SWAP3 SWAP2 POP POP JUMP JUMPDEST PUSH1 0x0 PUSH2 0x2E2 PUSH2 0x2DD DUP5 PUSH2 0x26E JUMP JUMPDEST PUSH2 0x253 JUMP JUMPDEST SWAP1 POP DUP1 PUSH1 0x20 DUP5 MUL DUP4 ADD DUP6 DUP2 GT ISZERO PUSH2 0x2FC JUMPI PUSH2 0x2FB PUSH2 0x294 JUMP JUMPDEST JUMPDEST DUP4 JUMPDEST DUP2 DUP2 LT ISZERO PUSH2 0x325 JUMPI DUP1 PUSH2 0x311 DUP9 DUP3 PUSH2 0x2BA JUMP JUMPDEST DUP5 MSTORE PUSH1 0x20 DUP5 ADD SWAP4 POP POP PUSH1 0x20 DUP2 ADD SWAP1 POP PUSH2 0x2FE JUMP JUMPDEST POP POP POP SWAP4 SWAP3 POP POP POP JUMP JUMPDEST PUSH1 0x0 DUP3 PUSH1 0x1F DUP4 ADD SLT PUSH2 0x344 JUMPI PUSH2 0x343 PUSH2 0x1DD JUMP JUMPDEST JUMPDEST PUSH1 0x2 PUSH2 0x351 DUP5 DUP3 DUP6 PUSH2 0x2CF JUMP JUMPDEST SWAP2 POP POP SWAP3 SWAP2 POP POP JUMP JUMPDEST PUSH1 0x0 DUP1 PUSH1 0x60 DUP4 DUP6 SUB SLT ISZERO PUSH2 0x371 JUMPI PUSH2 0x370 PUSH2 0x1D8 JUMP JUMPDEST JUMPDEST PUSH1 0x0 PUSH2 0x37F DUP6 DUP3 DUP7 ADD PUSH2 0x32F JUMP JUMPDEST SWAP3 POP POP PUSH1 0x40 PUSH2 0x390 DUP6 DUP3 DUP7 ADD PUSH2 0x2BA JUMP JUMPDEST SWAP2 POP POP SWAP3 POP SWAP3 SWAP1 POP JUMP JUMPDEST PUSH2 0x3A3 DUP2 PUSH2 0x299 JUMP JUMPDEST DUP3 MSTORE POP POP JUMP JUMPDEST PUSH1 0x0 PUSH1 0x20 DUP3 ADD SWAP1 POP PUSH2 0x3BE PUSH1 0x0 DUP4 ADD DUP5 PUSH2 0x39A JUMP JUMPDEST SWAP3 SWAP2 POP POP JUMP JUMPDEST PUSH32 0x4E487B7100000000000000000000000000000000000000000000000000000000 PUSH1 0x0 MSTORE PUSH1 0x12 PUSH1 0x4 MSTORE PUSH1 0x24 PUSH1 0x0 REVERT JUMPDEST PUSH32 0x4E487B7100000000000000000000000000000000000000000000000000000000 PUSH1 0x0 MSTORE PUSH1 0x32 PUSH1 0x4 MSTORE PUSH1 0x24 PUSH1 0x0 REVERT JUMPDEST PUSH32 0x4E487B7100000000000000000000000000000000000000000000000000000000 PUSH1 0x0 MSTORE PUSH1 0x11 PUSH1 0x4 MSTORE PUSH1 0x24 PUSH1 0x0 REVERT JUMPDEST PUSH1 0x0 PUSH1 0xFF DUP3 AND SWAP1 POP SWAP2 SWAP1 POP JUMP JUMPDEST PUSH1 0x0 PUSH2 0x469 DUP3 PUSH2 0x451 JUMP JUMPDEST SWAP2 POP PUSH1 0xFF DUP3 SUB PUSH2 0x47C JUMPI PUSH2 0x47B PUSH2 0x422 JUMP JUMPDEST JUMPDEST PUSH1 0x1 DUP3 ADD SWAP1 POP SWAP2 SWAP1 POP JUMP INVALID LOG2 PUSH5 0x6970667358 0x22 SLT KECCAK256 0xD8 0xE0 SLT PUSH8 0xFCF9DE127C3B29A4 LOG4 PUSH1 0x62 SWAP12 GT SWAP9 PUSH24 0xAF96CD3E1B8FFD487DC6A0DF9264736F6C63430008140033 "
        },
        "methodIdentifiers": {
          "MiMC5Sponge(uint256[2],uint256)": "d622e5a4"
        }
      }
    }
  }
}