{
  "contracts/Whisper.sol": {
    "Whisper": {
      "abi": [
        {
          "inputs": [
            {
              "internalType": "address",
              "name": "_mimc5",
              "type": "address"
            }
          ],
          "stateMutability": "nonpayable",
          "type": "constructor"
        },
        {
          "inputs": [],
          "name": "ReentrancyGuardReentrantCall",
          "type": "error"
        },
        {
          "anonymous": false,
          "inputs": [
            {
              "indexed": false,
              "internalType": "uint256",
              "name": "root",
              "type": "uint256"
            },
            {
              "indexed": false,
              "internalType": "uint256[10]",
              "name": "hashPairings",
              "type": "uint256[10]"
            },
            {
              "indexed": false,
              "internalType": "uint8[10]",
              "name": "hashDirections",
              "type": "uint8[10]"
            }
          ],
          "name": "Deposit",
          "type": "event"
        },
        {
          "inputs": [
            {
              "internalType": "uint256",
              "name": "_commitment",
              "type": "uint256"
            }
          ],
          "name": "addCommitment",
          "outputs": [],
          "stateMutability": "nonpayable",
          "type": "function"
        },
        {
          "inputs": [
            {
              "internalType": "uint256",
              "name": "_nullifierHash",
              "type": "uint256"
            }
          ],
          "name": "addNullifierHash",
          "outputs": [],
          "stateMutability": "nonpayable",
          "type": "function"
        },
        {
          "inputs": [
            {
              "internalType": "address",
              "name": "_caller",
              "type": "address"
            }
          ],
          "name": "allowCaller",
          "outputs": [],
          "stateMutability": "nonpayable",
          "type": "function"
        },
        {
          "inputs": [
            {
              "internalType": "address",
              "name": "",
              "type": "address"
            }
          ],
          "name": "isAllowedCaller",
          "outputs": [
            {
              "internalType": "bool",
              "name": "",
              "type": "bool"
            }
          ],
          "stateMutability": "view",
          "type": "function"
        },
        {
          "inputs": [],
          "name": "nextLeafIndex",
          "outputs": [
            {
              "internalType": "uint256",
              "name": "",
              "type": "uint256"
            }
          ],
          "stateMutability": "view",
          "type": "function"
        }
      ],
      "evm": {
        "bytecode": {
          "linkReferences": {},
          "object": "6080604052600a600460006101000a81548160ff021916908360ff1602179055506040518061014001604052807fda70048a78ea262e7e52673edf42cd03aab854843aea37a75cc187a4215e42aa81526020017fce42a193851ab7eb183af214cabde108e98967cae4c1807edd1a3eecb565f78e81526020017f8001bdc085186237cc899529c2d234a6c8e8d53ef24079e87f818e7f813c07ef81526020017f3b5f53c4217eba75893869078d3db3b644cce573d22b5df2982a2dfff5006e9681526020017f6d5202467af82a66bcabc732607986afad45290b8cc19b92ddac7ff389f232da81526020017f8d4472f54e79585a74777b790cb404f4499e3398a67351a4dc3ba873585e4e4e81526020017fd22075a40d568b57bba3bd523a3d01c59980830874cc3af8635a5b463089c56c81526020017f6e0ffcc8e87dbad6e5d38b8d759af751481ba32876efe28f6cfcbe3521cf64c181526020017f7e62e40fec32a60107bd998a724cde7c5904961a96cf5c35f75d099b9224b3ad81526020017ffd87aa8ee2b8e2842a020f34668c0bb6398b5164a76bb9f8793ce307aef7b59c815250600990600a620001b89291906200027d565b50348015620001c657600080fd5b5060405162001527380380620015278339818101604052810190620001ec91906200034b565b600160008190555080600260006101000a81548173ffffffffffffffffffffffffffffffffffffffff021916908373ffffffffffffffffffffffffffffffffffffffff16021790555033600160006101000a81548173ffffffffffffffffffffffffffffffffffffffff021916908373ffffffffffffffffffffffffffffffffffffffff160217905550506200037d565b82600a8101928215620002af579160200282015b82811115620002ae57825182559160200191906001019062000291565b5b509050620002be9190620002c2565b5090565b5b80821115620002dd576000816000905550600101620002c3565b5090565b600080fd5b600073ffffffffffffffffffffffffffffffffffffffff82169050919050565b60006200031382620002e6565b9050919050565b620003258162000306565b81146200033157600080fd5b50565b60008151905062000345816200031a565b92915050565b600060208284031215620003645762000363620002e1565b5b6000620003748482850162000334565b91505092915050565b61119a806200038d6000396000f3fe608060405234801561001057600080fd5b50600436106100575760003560e01c80630be4f4221461005c5780636b94fbda1461007a578063797a6890146100965780639e44ac0f146100b2578063a6801258146100ce575b600080fd5b6100646100fe565b6040516100719190610882565b60405180910390f35b610094600480360381019061008f91906108ce565b610104565b005b6100b060048036038101906100ab91906108ce565b610230565b005b6100cc60048036038101906100c79190610959565b6106a6565b005b6100e860048036038101906100e39190610959565b610791565b6040516100f591906109a1565b60405180910390f35b60055481565b600360003373ffffffffffffffffffffffffffffffffffffffff1673ffffffffffffffffffffffffffffffffffffffff16815260200190815260200160002060009054906101000a900460ff16610190576040517f08c379a000000000000000000000000000000000000000000000000000000000815260040161018790610a19565b60405180910390fd5b6101986107b1565b6007600082815260200190815260200160002060009054906101000a900460ff16156101f9576040517f08c379a00000000000000000000000000000000000000000000000000000000081526004016101f090610a85565b60405180910390fd5b60016007600083815260200190815260200160002060006101000a81548160ff02191690831515021790555061022d6107f7565b50565b600360003373ffffffffffffffffffffffffffffffffffffffff1673ffffffffffffffffffffffffffffffffffffffff16815260200190815260200160002060009054906101000a900460ff166102bc576040517f08c379a00000000000000000000000000000000000000000000000000000000081526004016102b390610a19565b60405180910390fd5b6102c46107b1565b6008600082815260200190815260200160002060009054906101000a900460ff1615610325576040517f08c379a000000000000000000000000000000000000000000000000000000000815260040161031c90610af1565b60405180910390fd5b600460009054906101000a900460ff1660026103419190610c80565b60055410610384576040517f08c379a000000000000000000000000000000000000000000000000000000000815260040161037b90610d17565b60405180910390fd5b600061038e610801565b610396610824565b6000600554905060008590506000806103ad610847565b60005b600460009054906101000a900460ff1660ff168160ff16101561060e5760006002876103dc9190610d66565b036104655784935060098160ff16600a81106103fb576103fa610d97565b5b0154925060098160ff16600a811061041657610415610d97565b5b0154888260ff16600a811061042e5761042d610d97565b5b6020020181815250506000878260ff16600a811061044f5761044e610d97565b5b602002019060ff16908160ff16815250506104e7565b600660008260ff1660ff168152602001908152602001600020549350849250600660008260ff1660ff16815260200190815260200160002054888260ff16600a81106104b4576104b3610d97565b5b6020020181815250506001878260ff16600a81106104d5576104d4610d97565b5b602002019060ff16908160ff16815250505b84600660008360ff1660ff16815260200190815260200160002081905550838260006002811061051a57610519610d97565b5b602002018181525050828260016002811061053857610537610d97565b5b6020020181815250506000600260009054906101000a900473ffffffffffffffffffffffffffffffffffffffff1673ffffffffffffffffffffffffffffffffffffffff1663d622e5a4620249f0858e6040518463ffffffff1660e01b81526004016105a4929190610e71565b6020604051808303818786fa1580156105c1573d6000803e3d6000fd5b50505050506040513d601f19601f820116820180604052508101906105e69190610eaf565b90508095506002876105f89190610edc565b965050808061060690610f0d565b9150506103b0565b508397506001600560008282546106259190610f36565b925050819055506001600860008b815260200190815260200160002060006101000a81548160ff0219169083151502179055507fe6ab8667cb740d6c65a4ad321c031eb42f6c5085d5753238d1b2e1e370c1348388888860405161068b93929190611099565b60405180910390a150505050505050506106a36107f7565b50565b600160009054906101000a900473ffffffffffffffffffffffffffffffffffffffff1673ffffffffffffffffffffffffffffffffffffffff163373ffffffffffffffffffffffffffffffffffffffff1614610736576040517f08c379a000000000000000000000000000000000000000000000000000000000815260040161072d90611144565b60405180910390fd5b6001600360008373ffffffffffffffffffffffffffffffffffffffff1673ffffffffffffffffffffffffffffffffffffffff16815260200190815260200160002060006101000a81548160ff02191690831515021790555050565b60036020528060005260406000206000915054906101000a900460ff1681565b6002600054036107ed576040517f3ee5aeb500000000000000000000000000000000000000000000000000000000815260040160405180910390fd5b6002600081905550565b6001600081905550565b604051806101400160405280600a90602082028036833780820191505090505090565b604051806101400160405280600a90602082028036833780820191505090505090565b6040518060400160405280600290602082028036833780820191505090505090565b6000819050919050565b61087c81610869565b82525050565b60006020820190506108976000830184610873565b92915050565b600080fd5b6108ab81610869565b81146108b657600080fd5b50565b6000813590506108c8816108a2565b92915050565b6000602082840312156108e4576108e361089d565b5b60006108f2848285016108b9565b91505092915050565b600073ffffffffffffffffffffffffffffffffffffffff82169050919050565b6000610926826108fb565b9050919050565b6109368161091b565b811461094157600080fd5b50565b6000813590506109538161092d565b92915050565b60006020828403121561096f5761096e61089d565b5b600061097d84828501610944565b91505092915050565b60008115159050919050565b61099b81610986565b82525050565b60006020820190506109b66000830184610992565b92915050565b600082825260208201905092915050565b7f43616c6c6572206e6f7420616c6c6f7765640000000000000000000000000000600082015250565b6000610a036012836109bc565b9150610a0e826109cd565b602082019050919050565b60006020820190508181036000830152610a32816109f6565b9050919050565b7f4e756c6c6966696572206861736820616c726561647920657869737473000000600082015250565b6000610a6f601d836109bc565b9150610a7a82610a39565b602082019050919050565b60006020820190508181036000830152610a9e81610a62565b9050919050565b7f436f6d6d69746d656e7420616c72656164792065786973747300000000000000600082015250565b6000610adb6019836109bc565b9150610ae682610aa5565b602082019050919050565b60006020820190508181036000830152610b0a81610ace565b9050919050565b7f4e487b7100000000000000000000000000000000000000000000000000000000600052601160045260246000fd5b60008160011c9050919050565b6000808291508390505b6001851115610b9757808604811115610b7357610b72610b11565b5b6001851615610b825780820291505b8081029050610b9085610b40565b9450610b57565b94509492505050565b600082610bb05760019050610c6c565b81610bbe5760009050610c6c565b8160018114610bd45760028114610bde57610c0d565b6001915050610c6c565b60ff841115610bf057610bef610b11565b5b8360020a915084821115610c0757610c06610b11565b5b50610c6c565b5060208310610133831016604e8410600b8410161715610c425782820a905083811115610c3d57610c3c610b11565b5b610c6c565b610c4f8484846001610b4d565b92509050818404811115610c6657610c65610b11565b5b81810290505b9392505050565b600060ff82169050919050565b6000610c8b82610869565b9150610c9683610c73565b9250610cc37fffffffffffffffffffffffffffffffffffffffffffffffffffffffffffffffff8484610ba0565b905092915050565b7f547265652069732066756c6c0000000000000000000000000000000000000000600082015250565b6000610d01600c836109bc565b9150610d0c82610ccb565b602082019050919050565b60006020820190508181036000830152610d3081610cf4565b9050919050565b7f4e487b7100000000000000000000000000000000000000000000000000000000600052601260045260246000fd5b6000610d7182610869565b9150610d7c83610869565b925082610d8c57610d8b610d37565b5b828206905092915050565b7f4e487b7100000000000000000000000000000000000000000000000000000000600052603260045260246000fd5b600060029050919050565b600081905092915050565b6000819050919050565b610def81610869565b82525050565b6000610e018383610de6565b60208301905092915050565b6000602082019050919050565b610e2381610dc6565b610e2d8184610dd1565b9250610e3882610ddc565b8060005b83811015610e69578151610e508782610df5565b9650610e5b83610e0d565b925050600181019050610e3c565b505050505050565b6000606082019050610e866000830185610e1a565b610e936040830184610873565b9392505050565b600081519050610ea9816108a2565b92915050565b600060208284031215610ec557610ec461089d565b5b6000610ed384828501610e9a565b91505092915050565b6000610ee782610869565b9150610ef283610869565b925082610f0257610f01610d37565b5b828204905092915050565b6000610f1882610c73565b915060ff8203610f2b57610f2a610b11565b5b600182019050919050565b6000610f4182610869565b9150610f4c83610869565b9250828201905080821115610f6457610f63610b11565b5b92915050565b6000600a9050919050565b600081905092915050565b6000819050919050565b6000602082019050919050565b610fa081610f6a565b610faa8184610f75565b9250610fb582610f80565b8060005b83811015610fe6578151610fcd8782610df5565b9650610fd883610f8a565b925050600181019050610fb9565b505050505050565b6000600a9050919050565b600081905092915050565b6000819050919050565b61101781610c73565b82525050565b6000611029838361100e565b60208301905092915050565b6000602082019050919050565b61104b81610fee565b6110558184610ff9565b925061106082611004565b8060005b83811015611091578151611078878261101d565b965061108383611035565b925050600181019050611064565b505050505050565b60006102a0820190506110af6000830186610873565b6110bc6020830185610f97565b6110ca610160830184611042565b949350505050565b7f4f6e6c79206f776e65722063616e2063616c6c20746869732066756e6374696f60008201527f6e00000000000000000000000000000000000000000000000000000000000000602082015250565b600061112e6021836109bc565b9150611139826110d2565b604082019050919050565b6000602082019050818103600083015261115d81611121565b905091905056fea26469706673582212206ac22337d5c2835e438e97098d161710b34ee368475b00197fdf813c85e80bc364736f6c63430008140033",
          "opcodes": "PUSH1 0x80 PUSH1 0x40 MSTORE PUSH1 0xA PUSH1 0x4 PUSH1 0x0 PUSH2 0x100 EXP DUP2 SLOAD DUP2 PUSH1 0xFF MUL NOT AND SWAP1 DUP4 PUSH1 0xFF AND MUL OR SWAP1 SSTORE POP PUSH1 0x40 MLOAD DUP1 PUSH2 0x140 ADD PUSH1 0x40 MSTORE DUP1 PUSH32 0xDA70048A78EA262E7E52673EDF42CD03AAB854843AEA37A75CC187A4215E42AA DUP2 MSTORE PUSH1 0x20 ADD PUSH32 0xCE42A193851AB7EB183AF214CABDE108E98967CAE4C1807EDD1A3EECB565F78E DUP2 MSTORE PUSH1 0x20 ADD PUSH32 0x8001BDC085186237CC899529C2D234A6C8E8D53EF24079E87F818E7F813C07EF DUP2 MSTORE PUSH1 0x20 ADD PUSH32 0x3B5F53C4217EBA75893869078D3DB3B644CCE573D22B5DF2982A2DFFF5006E96 DUP2 MSTORE PUSH1 0x20 ADD PUSH32 0x6D5202467AF82A66BCABC732607986AFAD45290B8CC19B92DDAC7FF389F232DA DUP2 MSTORE PUSH1 0x20 ADD PUSH32 0x8D4472F54E79585A74777B790CB404F4499E3398A67351A4DC3BA873585E4E4E DUP2 MSTORE PUSH1 0x20 ADD PUSH32 0xD22075A40D568B57BBA3BD523A3D01C59980830874CC3AF8635A5B463089C56C DUP2 MSTORE PUSH1 0x20 ADD PUSH32 0x6E0FFCC8E87DBAD6E5D38B8D759AF751481BA32876EFE28F6CFCBE3521CF64C1 DUP2 MSTORE PUSH1 0x20 ADD PUSH32 0x7E62E40FEC32A60107BD998A724CDE7C5904961A96CF5C35F75D099B9224B3AD DUP2 MSTORE PUSH1 0x20 ADD PUSH32 0xFD87AA8EE2B8E2842A020F34668C0BB6398B5164A76BB9F8793CE307AEF7B59C DUP2 MSTORE POP PUSH1 0x9 SWAP1 PUSH1 0xA PUSH3 0x1B8 SWAP3 SWAP2 SWAP1 PUSH3 0x27D JUMP JUMPDEST POP CALLVALUE DUP1 ISZERO PUSH3 0x1C6 JUMPI PUSH1 0x0 DUP1 REVERT JUMPDEST POP PUSH1 0x40 MLOAD PUSH3 0x1527 CODESIZE SUB DUP1 PUSH3 0x1527 DUP4 CODECOPY DUP2 DUP2 ADD PUSH1 0x40 MSTORE DUP2 ADD SWAP1 PUSH3 0x1EC SWAP2 SWAP1 PUSH3 0x34B JUMP JUMPDEST PUSH1 0x1 PUSH1 0x0 DUP2 SWAP1 SSTORE POP DUP1 PUSH1 0x2 PUSH1 0x0 PUSH2 0x100 EXP DUP2 SLOAD DUP2 PUSH20 0xFFFFFFFFFFFFFFFFFFFFFFFFFFFFFFFFFFFFFFFF MUL NOT AND SWAP1 DUP4 PUSH20 0xFFFFFFFFFFFFFFFFFFFFFFFFFFFFFFFFFFFFFFFF AND MUL OR SWAP1 SSTORE POP CALLER PUSH1 0x1 PUSH1 0x0 PUSH2 0x100 EXP DUP2 SLOAD DUP2 PUSH20 0xFFFFFFFFFFFFFFFFFFFFFFFFFFFFFFFFFFFFFFFF MUL NOT AND SWAP1 DUP4 PUSH20 0xFFFFFFFFFFFFFFFFFFFFFFFFFFFFFFFFFFFFFFFF AND MUL OR SWAP1 SSTORE POP POP PUSH3 0x37D JUMP JUMPDEST DUP3 PUSH1 0xA DUP2 ADD SWAP3 DUP3 ISZERO PUSH3 0x2AF JUMPI SWAP2 PUSH1 0x20 MUL DUP3 ADD JUMPDEST DUP3 DUP2 GT ISZERO PUSH3 0x2AE JUMPI DUP3 MLOAD DUP3 SSTORE SWAP2 PUSH1 0x20 ADD SWAP2 SWAP1 PUSH1 0x1 ADD SWAP1 PUSH3 0x291 JUMP JUMPDEST JUMPDEST POP SWAP1 POP PUSH3 0x2BE SWAP2 SWAP1 PUSH3 0x2C2 JUMP JUMPDEST POP SWAP1 JUMP JUMPDEST JUMPDEST DUP1 DUP3 GT ISZERO PUSH3 0x2DD JUMPI PUSH1 0x0 DUP2 PUSH1 0x0 SWAP1 SSTORE POP PUSH1 0x1 ADD PUSH3 0x2C3 JUMP JUMPDEST POP SWAP1 JUMP JUMPDEST PUSH1 0x0 DUP1 REVERT JUMPDEST PUSH1 0x0 PUSH20 0xFFFFFFFFFFFFFFFFFFFFFFFFFFFFFFFFFFFFFFFF DUP3 AND SWAP1 POP SWAP2 SWAP1 POP JUMP JUMPDEST PUSH1 0x0 PUSH3 0x313 DUP3 PUSH3 0x2E6 JUMP JUMPDEST SWAP1 POP SWAP2 SWAP1 POP JUMP JUMPDEST PUSH3 0x325 DUP2 PUSH3 0x306 JUMP JUMPDEST DUP2 EQ PUSH3 0x331 JUMPI PUSH1 0x0 DUP1 REVERT JUMPDEST POP JUMP JUMPDEST PUSH1 0x0 DUP2 MLOAD SWAP1 POP PUSH3 0x345 DUP2 PUSH3 0x31A JUMP JUMPDEST SWAP3 SWAP2 POP POP JUMP JUMPDEST PUSH1 0x0 PUSH1 0x20 DUP3 DUP5 SUB SLT ISZERO PUSH3 0x364 JUMPI PUSH3 0x363 PUSH3 0x2E1 JUMP JUMPDEST JUMPDEST PUSH1 0x0 PUSH3 0x374 DUP5 DUP3 DUP6 ADD PUSH3 0x334 JUMP JUMPDEST SWAP2 POP POP SWAP3 SWAP2 POP POP JUMP JUMPDEST PUSH2 0x119A DUP1 PUSH3 0x38D PUSH1 0x0 CODECOPY PUSH1 0x0 RETURN INVALID PUSH1 0x80 PUSH1 0x40 MSTORE CALLVALUE DUP1 ISZERO PUSH2 0x10 JUMPI PUSH1 0x0 DUP1 REVERT JUMPDEST POP PUSH1 0x4 CALLDATASIZE LT PUSH2 0x57 JUMPI PUSH1 0x0 CALLDATALOAD PUSH1 0xE0 SHR DUP1 PUSH4 0xBE4F422 EQ PUSH2 0x5C JUMPI DUP1 PUSH4 0x6B94FBDA EQ PUSH2 0x7A JUMPI DUP1 PUSH4 0x797A6890 EQ PUSH2 0x96 JUMPI DUP1 PUSH4 0x9E44AC0F EQ PUSH2 0xB2 JUMPI DUP1 PUSH4 0xA6801258 EQ PUSH2 0xCE JUMPI JUMPDEST PUSH1 0x0 DUP1 REVERT JUMPDEST PUSH2 0x64 PUSH2 0xFE JUMP JUMPDEST PUSH1 0x40 MLOAD PUSH2 0x71 SWAP2 SWAP1 PUSH2 0x882 JUMP JUMPDEST PUSH1 0x40 MLOAD DUP1 SWAP2 SUB SWAP1 RETURN JUMPDEST PUSH2 0x94 PUSH1 0x4 DUP1 CALLDATASIZE SUB DUP2 ADD SWAP1 PUSH2 0x8F SWAP2 SWAP1 PUSH2 0x8CE JUMP JUMPDEST PUSH2 0x104 JUMP JUMPDEST STOP JUMPDEST PUSH2 0xB0 PUSH1 0x4 DUP1 CALLDATASIZE SUB DUP2 ADD SWAP1 PUSH2 0xAB SWAP2 SWAP1 PUSH2 0x8CE JUMP JUMPDEST PUSH2 0x230 JUMP JUMPDEST STOP JUMPDEST PUSH2 0xCC PUSH1 0x4 DUP1 CALLDATASIZE SUB DUP2 ADD SWAP1 PUSH2 0xC7 SWAP2 SWAP1 PUSH2 0x959 JUMP JUMPDEST PUSH2 0x6A6 JUMP JUMPDEST STOP JUMPDEST PUSH2 0xE8 PUSH1 0x4 DUP1 CALLDATASIZE SUB DUP2 ADD SWAP1 PUSH2 0xE3 SWAP2 SWAP1 PUSH2 0x959 JUMP JUMPDEST PUSH2 0x791 JUMP JUMPDEST PUSH1 0x40 MLOAD PUSH2 0xF5 SWAP2 SWAP1 PUSH2 0x9A1 JUMP JUMPDEST PUSH1 0x40 MLOAD DUP1 SWAP2 SUB SWAP1 RETURN JUMPDEST PUSH1 0x5 SLOAD DUP2 JUMP JUMPDEST PUSH1 0x3 PUSH1 0x0 CALLER PUSH20 0xFFFFFFFFFFFFFFFFFFFFFFFFFFFFFFFFFFFFFFFF AND PUSH20 0xFFFFFFFFFFFFFFFFFFFFFFFFFFFFFFFFFFFFFFFF AND DUP2 MSTORE PUSH1 0x20 ADD SWAP1 DUP2 MSTORE PUSH1 0x20 ADD PUSH1 0x0 KECCAK256 PUSH1 0x0 SWAP1 SLOAD SWAP1 PUSH2 0x100 EXP SWAP1 DIV PUSH1 0xFF AND PUSH2 0x190 JUMPI PUSH1 0x40 MLOAD PUSH32 0x8C379A000000000000000000000000000000000000000000000000000000000 DUP2 MSTORE PUSH1 0x4 ADD PUSH2 0x187 SWAP1 PUSH2 0xA19 JUMP JUMPDEST PUSH1 0x40 MLOAD DUP1 SWAP2 SUB SWAP1 REVERT JUMPDEST PUSH2 0x198 PUSH2 0x7B1 JUMP JUMPDEST PUSH1 0x7 PUSH1 0x0 DUP3 DUP2 MSTORE PUSH1 0x20 ADD SWAP1 DUP2 MSTORE PUSH1 0x20 ADD PUSH1 0x0 KECCAK256 PUSH1 0x0 SWAP1 SLOAD SWAP1 PUSH2 0x100 EXP SWAP1 DIV PUSH1 0xFF AND ISZERO PUSH2 0x1F9 JUMPI PUSH1 0x40 MLOAD PUSH32 0x8C379A000000000000000000000000000000000000000000000000000000000 DUP2 MSTORE PUSH1 0x4 ADD PUSH2 0x1F0 SWAP1 PUSH2 0xA85 JUMP JUMPDEST PUSH1 0x40 MLOAD DUP1 SWAP2 SUB SWAP1 REVERT JUMPDEST PUSH1 0x1 PUSH1 0x7 PUSH1 0x0 DUP4 DUP2 MSTORE PUSH1 0x20 ADD SWAP1 DUP2 MSTORE PUSH1 0x20 ADD PUSH1 0x0 KECCAK256 PUSH1 0x0 PUSH2 0x100 EXP DUP2 SLOAD DUP2 PUSH1 0xFF MUL NOT AND SWAP1 DUP4 ISZERO ISZERO MUL OR SWAP1 SSTORE POP PUSH2 0x22D PUSH2 0x7F7 JUMP JUMPDEST POP JUMP JUMPDEST PUSH1 0x3 PUSH1 0x0 CALLER PUSH20 0xFFFFFFFFFFFFFFFFFFFFFFFFFFFFFFFFFFFFFFFF AND PUSH20 0xFFFFFFFFFFFFFFFFFFFFFFFFFFFFFFFFFFFFFFFF AND DUP2 MSTORE PUSH1 0x20 ADD SWAP1 DUP2 MSTORE PUSH1 0x20 ADD PUSH1 0x0 KECCAK256 PUSH1 0x0 SWAP1 SLOAD SWAP1 PUSH2 0x100 EXP SWAP1 DIV PUSH1 0xFF AND PUSH2 0x2BC JUMPI PUSH1 0x40 MLOAD PUSH32 0x8C379A000000000000000000000000000000000000000000000000000000000 DUP2 MSTORE PUSH1 0x4 ADD PUSH2 0x2B3 SWAP1 PUSH2 0xA19 JUMP JUMPDEST PUSH1 0x40 MLOAD DUP1 SWAP2 SUB SWAP1 REVERT JUMPDEST PUSH2 0x2C4 PUSH2 0x7B1 JUMP JUMPDEST PUSH1 0x8 PUSH1 0x0 DUP3 DUP2 MSTORE PUSH1 0x20 ADD SWAP1 DUP2 MSTORE PUSH1 0x20 ADD PUSH1 0x0 KECCAK256 PUSH1 0x0 SWAP1 SLOAD SWAP1 PUSH2 0x100 EXP SWAP1 DIV PUSH1 0xFF AND ISZERO PUSH2 0x325 JUMPI PUSH1 0x40 MLOAD PUSH32 0x8C379A000000000000000000000000000000000000000000000000000000000 DUP2 MSTORE PUSH1 0x4 ADD PUSH2 0x31C SWAP1 PUSH2 0xAF1 JUMP JUMPDEST PUSH1 0x40 MLOAD DUP1 SWAP2 SUB SWAP1 REVERT JUMPDEST PUSH1 0x4 PUSH1 0x0 SWAP1 SLOAD SWAP1 PUSH2 0x100 EXP SWAP1 DIV PUSH1 0xFF AND PUSH1 0x2 PUSH2 0x341 SWAP2 SWAP1 PUSH2 0xC80 JUMP JUMPDEST PUSH1 0x5 SLOAD LT PUSH2 0x384 JUMPI PUSH1 0x40 MLOAD PUSH32 0x8C379A000000000000000000000000000000000000000000000000000000000 DUP2 MSTORE PUSH1 0x4 ADD PUSH2 0x37B SWAP1 PUSH2 0xD17 JUMP JUMPDEST PUSH1 0x40 MLOAD DUP1 SWAP2 SUB SWAP1 REVERT JUMPDEST PUSH1 0x0 PUSH2 0x38E PUSH2 0x801 JUMP JUMPDEST PUSH2 0x396 PUSH2 0x824 JUMP JUMPDEST PUSH1 0x0 PUSH1 0x5 SLOAD SWAP1 POP PUSH1 0x0 DUP6 SWAP1 POP PUSH1 0x0 DUP1 PUSH2 0x3AD PUSH2 0x847 JUMP JUMPDEST PUSH1 0x0 JUMPDEST PUSH1 0x4 PUSH1 0x0 SWAP1 SLOAD SWAP1 PUSH2 0x100 EXP SWAP1 DIV PUSH1 0xFF AND PUSH1 0xFF AND DUP2 PUSH1 0xFF AND LT ISZERO PUSH2 0x60E JUMPI PUSH1 0x0 PUSH1 0x2 DUP8 PUSH2 0x3DC SWAP2 SWAP1 PUSH2 0xD66 JUMP JUMPDEST SUB PUSH2 0x465 JUMPI DUP5 SWAP4 POP PUSH1 0x9 DUP2 PUSH1 0xFF AND PUSH1 0xA DUP2 LT PUSH2 0x3FB JUMPI PUSH2 0x3FA PUSH2 0xD97 JUMP JUMPDEST JUMPDEST ADD SLOAD SWAP3 POP PUSH1 0x9 DUP2 PUSH1 0xFF AND PUSH1 0xA DUP2 LT PUSH2 0x416 JUMPI PUSH2 0x415 PUSH2 0xD97 JUMP JUMPDEST JUMPDEST ADD SLOAD DUP9 DUP3 PUSH1 0xFF AND PUSH1 0xA DUP2 LT PUSH2 0x42E JUMPI PUSH2 0x42D PUSH2 0xD97 JUMP JUMPDEST JUMPDEST PUSH1 0x20 MUL ADD DUP2 DUP2 MSTORE POP POP PUSH1 0x0 DUP8 DUP3 PUSH1 0xFF AND PUSH1 0xA DUP2 LT PUSH2 0x44F JUMPI PUSH2 0x44E PUSH2 0xD97 JUMP JUMPDEST JUMPDEST PUSH1 0x20 MUL ADD SWAP1 PUSH1 0xFF AND SWAP1 DUP2 PUSH1 0xFF AND DUP2 MSTORE POP POP PUSH2 0x4E7 JUMP JUMPDEST PUSH1 0x6 PUSH1 0x0 DUP3 PUSH1 0xFF AND PUSH1 0xFF AND DUP2 MSTORE PUSH1 0x20 ADD SWAP1 DUP2 MSTORE PUSH1 0x20 ADD PUSH1 0x0 KECCAK256 SLOAD SWAP4 POP DUP5 SWAP3 POP PUSH1 0x6 PUSH1 0x0 DUP3 PUSH1 0xFF AND PUSH1 0xFF AND DUP2 MSTORE PUSH1 0x20 ADD SWAP1 DUP2 MSTORE PUSH1 0x20 ADD PUSH1 0x0 KECCAK256 SLOAD DUP9 DUP3 PUSH1 0xFF AND PUSH1 0xA DUP2 LT PUSH2 0x4B4 JUMPI PUSH2 0x4B3 PUSH2 0xD97 JUMP JUMPDEST JUMPDEST PUSH1 0x20 MUL ADD DUP2 DUP2 MSTORE POP POP PUSH1 0x1 DUP8 DUP3 PUSH1 0xFF AND PUSH1 0xA DUP2 LT PUSH2 0x4D5 JUMPI PUSH2 0x4D4 PUSH2 0xD97 JUMP JUMPDEST JUMPDEST PUSH1 0x20 MUL ADD SWAP1 PUSH1 0xFF AND SWAP1 DUP2 PUSH1 0xFF AND DUP2 MSTORE POP POP JUMPDEST DUP5 PUSH1 0x6 PUSH1 0x0 DUP4 PUSH1 0xFF AND PUSH1 0xFF AND DUP2 MSTORE PUSH1 0x20 ADD SWAP1 DUP2 MSTORE PUSH1 0x20 ADD PUSH1 0x0 KECCAK256 DUP2 SWAP1 SSTORE POP DUP4 DUP3 PUSH1 0x0 PUSH1 0x2 DUP2 LT PUSH2 0x51A JUMPI PUSH2 0x519 PUSH2 0xD97 JUMP JUMPDEST JUMPDEST PUSH1 0x20 MUL ADD DUP2 DUP2 MSTORE POP POP DUP3 DUP3 PUSH1 0x1 PUSH1 0x2 DUP2 LT PUSH2 0x538 JUMPI PUSH2 0x537 PUSH2 0xD97 JUMP JUMPDEST JUMPDEST PUSH1 0x20 MUL ADD DUP2 DUP2 MSTORE POP POP PUSH1 0x0 PUSH1 0x2 PUSH1 0x0 SWAP1 SLOAD SWAP1 PUSH2 0x100 EXP SWAP1 DIV PUSH20 0xFFFFFFFFFFFFFFFFFFFFFFFFFFFFFFFFFFFFFFFF AND PUSH20 0xFFFFFFFFFFFFFFFFFFFFFFFFFFFFFFFFFFFFFFFF AND PUSH4 0xD622E5A4 PUSH3 0x249F0 DUP6 DUP15 PUSH1 0x40 MLOAD DUP5 PUSH4 0xFFFFFFFF AND PUSH1 0xE0 SHL DUP2 MSTORE PUSH1 0x4 ADD PUSH2 0x5A4 SWAP3 SWAP2 SWAP1 PUSH2 0xE71 JUMP JUMPDEST PUSH1 0x20 PUSH1 0x40 MLOAD DUP1 DUP4 SUB DUP2 DUP8 DUP7 STATICCALL ISZERO DUP1 ISZERO PUSH2 0x5C1 JUMPI RETURNDATASIZE PUSH1 0x0 DUP1 RETURNDATACOPY RETURNDATASIZE PUSH1 0x0 REVERT JUMPDEST POP POP POP POP POP PUSH1 0x40 MLOAD RETURNDATASIZE PUSH1 0x1F NOT PUSH1 0x1F DUP3 ADD AND DUP3 ADD DUP1 PUSH1 0x40 MSTORE POP DUP2 ADD SWAP1 PUSH2 0x5E6 SWAP2 SWAP1 PUSH2 0xEAF JUMP JUMPDEST SWAP1 POP DUP1 SWAP6 POP PUSH1 0x2 DUP8 PUSH2 0x5F8 SWAP2 SWAP1 PUSH2 0xEDC JUMP JUMPDEST SWAP7 POP POP DUP1 DUP1 PUSH2 0x606 SWAP1 PUSH2 0xF0D JUMP JUMPDEST SWAP2 POP POP PUSH2 0x3B0 JUMP JUMPDEST POP DUP4 SWAP8 POP PUSH1 0x1 PUSH1 0x5 PUSH1 0x0 DUP3 DUP3 SLOAD PUSH2 0x625 SWAP2 SWAP1 PUSH2 0xF36 JUMP JUMPDEST SWAP3 POP POP DUP2 SWAP1 SSTORE POP PUSH1 0x1 PUSH1 0x8 PUSH1 0x0 DUP12 DUP2 MSTORE PUSH1 0x20 ADD SWAP1 DUP2 MSTORE PUSH1 0x20 ADD PUSH1 0x0 KECCAK256 PUSH1 0x0 PUSH2 0x100 EXP DUP2 SLOAD DUP2 PUSH1 0xFF MUL NOT AND SWAP1 DUP4 ISZERO ISZERO MUL OR SWAP1 SSTORE POP PUSH32 0xE6AB8667CB740D6C65A4AD321C031EB42F6C5085D5753238D1B2E1E370C13483 DUP9 DUP9 DUP9 PUSH1 0x40 MLOAD PUSH2 0x68B SWAP4 SWAP3 SWAP2 SWAP1 PUSH2 0x1099 JUMP JUMPDEST PUSH1 0x40 MLOAD DUP1 SWAP2 SUB SWAP1 LOG1 POP POP POP POP POP POP POP POP PUSH2 0x6A3 PUSH2 0x7F7 JUMP JUMPDEST POP JUMP JUMPDEST PUSH1 0x1 PUSH1 0x0 SWAP1 SLOAD SWAP1 PUSH2 0x100 EXP SWAP1 DIV PUSH20 0xFFFFFFFFFFFFFFFFFFFFFFFFFFFFFFFFFFFFFFFF AND PUSH20 0xFFFFFFFFFFFFFFFFFFFFFFFFFFFFFFFFFFFFFFFF AND CALLER PUSH20 0xFFFFFFFFFFFFFFFFFFFFFFFFFFFFFFFFFFFFFFFF AND EQ PUSH2 0x736 JUMPI PUSH1 0x40 MLOAD PUSH32 0x8C379A000000000000000000000000000000000000000000000000000000000 DUP2 MSTORE PUSH1 0x4 ADD PUSH2 0x72D SWAP1 PUSH2 0x1144 JUMP JUMPDEST PUSH1 0x40 MLOAD DUP1 SWAP2 SUB SWAP1 REVERT JUMPDEST PUSH1 0x1 PUSH1 0x3 PUSH1 0x0 DUP4 PUSH20 0xFFFFFFFFFFFFFFFFFFFFFFFFFFFFFFFFFFFFFFFF AND PUSH20 0xFFFFFFFFFFFFFFFFFFFFFFFFFFFFFFFFFFFFFFFF AND DUP2 MSTORE PUSH1 0x20 ADD SWAP1 DUP2 MSTORE PUSH1 0x20 ADD PUSH1 0x0 KECCAK256 PUSH1 0x0 PUSH2 0x100 EXP DUP2 SLOAD DUP2 PUSH1 0xFF MUL NOT AND SWAP1 DUP4 ISZERO ISZERO MUL OR SWAP1 SSTORE POP POP JUMP JUMPDEST PUSH1 0x3 PUSH1 0x20 MSTORE DUP1 PUSH1 0x0 MSTORE PUSH1 0x40 PUSH1 0x0 KECCAK256 PUSH1 0x0 SWAP2 POP SLOAD SWAP1 PUSH2 0x100 EXP SWAP1 DIV PUSH1 0xFF AND DUP2 JUMP JUMPDEST PUSH1 0x2 PUSH1 0x0 SLOAD SUB PUSH2 0x7ED JUMPI PUSH1 0x40 MLOAD PUSH32 0x3EE5AEB500000000000000000000000000000000000000000000000000000000 DUP2 MSTORE PUSH1 0x4 ADD PUSH1 0x40 MLOAD DUP1 SWAP2 SUB SWAP1 REVERT JUMPDEST PUSH1 0x2 PUSH1 0x0 DUP2 SWAP1 SSTORE POP JUMP JUMPDEST PUSH1 0x1 PUSH1 0x0 DUP2 SWAP1 SSTORE POP JUMP JUMPDEST PUSH1 0x40 MLOAD DUP1 PUSH2 0x140 ADD PUSH1 0x40 MSTORE DUP1 PUSH1 0xA SWAP1 PUSH1 0x20 DUP3 MUL DUP1 CALLDATASIZE DUP4 CALLDATACOPY DUP1 DUP3 ADD SWAP2 POP POP SWAP1 POP POP SWAP1 JUMP JUMPDEST PUSH1 0x40 MLOAD DUP1 PUSH2 0x140 ADD PUSH1 0x40 MSTORE DUP1 PUSH1 0xA SWAP1 PUSH1 0x20 DUP3 MUL DUP1 CALLDATASIZE DUP4 CALLDATACOPY DUP1 DUP3 ADD SWAP2 POP POP SWAP1 POP POP SWAP1 JUMP JUMPDEST PUSH1 0x40 MLOAD DUP1 PUSH1 0x40 ADD PUSH1 0x40 MSTORE DUP1 PUSH1 0x2 SWAP1 PUSH1 0x20 DUP3 MUL DUP1 CALLDATASIZE DUP4 CALLDATACOPY DUP1 DUP3 ADD SWAP2 POP POP SWAP1 POP POP SWAP1 JUMP JUMPDEST PUSH1 0x0 DUP2 SWAP1 POP SWAP2 SWAP1 POP JUMP JUMPDEST PUSH2 0x87C DUP2 PUSH2 0x869 JUMP JUMPDEST DUP3 MSTORE POP POP JUMP JUMPDEST PUSH1 0x0 PUSH1 0x20 DUP3 ADD SWAP1 POP PUSH2 0x897 PUSH1 0x0 DUP4 ADD DUP5 PUSH2 0x873 JUMP JUMPDEST SWAP3 SWAP2 POP POP JUMP JUMPDEST PUSH1 0x0 DUP1 REVERT JUMPDEST PUSH2 0x8AB DUP2 PUSH2 0x869 JUMP JUMPDEST DUP2 EQ PUSH2 0x8B6 JUMPI PUSH1 0x0 DUP1 REVERT JUMPDEST POP JUMP JUMPDEST PUSH1 0x0 DUP2 CALLDATALOAD SWAP1 POP PUSH2 0x8C8 DUP2 PUSH2 0x8A2 JUMP JUMPDEST SWAP3 SWAP2 POP POP JUMP JUMPDEST PUSH1 0x0 PUSH1 0x20 DUP3 DUP5 SUB SLT ISZERO PUSH2 0x8E4 JUMPI PUSH2 0x8E3 PUSH2 0x89D JUMP JUMPDEST JUMPDEST PUSH1 0x0 PUSH2 0x8F2 DUP5 DUP3 DUP6 ADD PUSH2 0x8B9 JUMP JUMPDEST SWAP2 POP POP SWAP3 SWAP2 POP POP JUMP JUMPDEST PUSH1 0x0 PUSH20 0xFFFFFFFFFFFFFFFFFFFFFFFFFFFFFFFFFFFFFFFF DUP3 AND SWAP1 POP SWAP2 SWAP1 POP JUMP JUMPDEST PUSH1 0x0 PUSH2 0x926 DUP3 PUSH2 0x8FB JUMP JUMPDEST SWAP1 POP SWAP2 SWAP1 POP JUMP JUMPDEST PUSH2 0x936 DUP2 PUSH2 0x91B JUMP JUMPDEST DUP2 EQ PUSH2 0x941 JUMPI PUSH1 0x0 DUP1 REVERT JUMPDEST POP JUMP JUMPDEST PUSH1 0x0 DUP2 CALLDATALOAD SWAP1 POP PUSH2 0x953 DUP2 PUSH2 0x92D JUMP JUMPDEST SWAP3 SWAP2 POP POP JUMP JUMPDEST PUSH1 0x0 PUSH1 0x20 DUP3 DUP5 SUB SLT ISZERO PUSH2 0x96F JUMPI PUSH2 0x96E PUSH2 0x89D JUMP JUMPDEST JUMPDEST PUSH1 0x0 PUSH2 0x97D DUP5 DUP3 DUP6 ADD PUSH2 0x944 JUMP JUMPDEST SWAP2 POP POP SWAP3 SWAP2 POP POP JUMP JUMPDEST PUSH1 0x0 DUP2 ISZERO ISZERO SWAP1 POP SWAP2 SWAP1 POP JUMP JUMPDEST PUSH2 0x99B DUP2 PUSH2 0x986 JUMP JUMPDEST DUP3 MSTORE POP POP JUMP JUMPDEST PUSH1 0x0 PUSH1 0x20 DUP3 ADD SWAP1 POP PUSH2 0x9B6 PUSH1 0x0 DUP4 ADD DUP5 PUSH2 0x992 JUMP JUMPDEST SWAP3 SWAP2 POP POP JUMP JUMPDEST PUSH1 0x0 DUP3 DUP3 MSTORE PUSH1 0x20 DUP3 ADD SWAP1 POP SWAP3 SWAP2 POP POP JUMP JUMPDEST PUSH32 0x43616C6C6572206E6F7420616C6C6F7765640000000000000000000000000000 PUSH1 0x0 DUP3 ADD MSTORE POP JUMP JUMPDEST PUSH1 0x0 PUSH2 0xA03 PUSH1 0x12 DUP4 PUSH2 0x9BC JUMP JUMPDEST SWAP2 POP PUSH2 0xA0E DUP3 PUSH2 0x9CD JUMP JUMPDEST PUSH1 0x20 DUP3 ADD SWAP1 POP SWAP2 SWAP1 POP JUMP JUMPDEST PUSH1 0x0 PUSH1 0x20 DUP3 ADD SWAP1 POP DUP2 DUP2 SUB PUSH1 0x0 DUP4 ADD MSTORE PUSH2 0xA32 DUP2 PUSH2 0x9F6 JUMP JUMPDEST SWAP1 POP SWAP2 SWAP1 POP JUMP JUMPDEST PUSH32 0x4E756C6C6966696572206861736820616C726561647920657869737473000000 PUSH1 0x0 DUP3 ADD MSTORE POP JUMP JUMPDEST PUSH1 0x0 PUSH2 0xA6F PUSH1 0x1D DUP4 PUSH2 0x9BC JUMP JUMPDEST SWAP2 POP PUSH2 0xA7A DUP3 PUSH2 0xA39 JUMP JUMPDEST PUSH1 0x20 DUP3 ADD SWAP1 POP SWAP2 SWAP1 POP JUMP JUMPDEST PUSH1 0x0 PUSH1 0x20 DUP3 ADD SWAP1 POP DUP2 DUP2 SUB PUSH1 0x0 DUP4 ADD MSTORE PUSH2 0xA9E DUP2 PUSH2 0xA62 JUMP JUMPDEST SWAP1 POP SWAP2 SWAP1 POP JUMP JUMPDEST PUSH32 0x436F6D6D69746D656E7420616C72656164792065786973747300000000000000 PUSH1 0x0 DUP3 ADD MSTORE POP JUMP JUMPDEST PUSH1 0x0 PUSH2 0xADB PUSH1 0x19 DUP4 PUSH2 0x9BC JUMP JUMPDEST SWAP2 POP PUSH2 0xAE6 DUP3 PUSH2 0xAA5 JUMP JUMPDEST PUSH1 0x20 DUP3 ADD SWAP1 POP SWAP2 SWAP1 POP JUMP JUMPDEST PUSH1 0x0 PUSH1 0x20 DUP3 ADD SWAP1 POP DUP2 DUP2 SUB PUSH1 0x0 DUP4 ADD MSTORE PUSH2 0xB0A DUP2 PUSH2 0xACE JUMP JUMPDEST SWAP1 POP SWAP2 SWAP1 POP JUMP JUMPDEST PUSH32 0x4E487B7100000000000000000000000000000000000000000000000000000000 PUSH1 0x0 MSTORE PUSH1 0x11 PUSH1 0x4 MSTORE PUSH1 0x24 PUSH1 0x0 REVERT JUMPDEST PUSH1 0x0 DUP2 PUSH1 0x1 SHR SWAP1 POP SWAP2 SWAP1 POP JUMP JUMPDEST PUSH1 0x0 DUP1 DUP3 SWAP2 POP DUP4 SWAP1 POP JUMPDEST PUSH1 0x1 DUP6 GT ISZERO PUSH2 0xB97 JUMPI DUP1 DUP7 DIV DUP2 GT ISZERO PUSH2 0xB73 JUMPI PUSH2 0xB72 PUSH2 0xB11 JUMP JUMPDEST JUMPDEST PUSH1 0x1 DUP6 AND ISZERO PUSH2 0xB82 JUMPI DUP1 DUP3 MUL SWAP2 POP JUMPDEST DUP1 DUP2 MUL SWAP1 POP PUSH2 0xB90 DUP6 PUSH2 0xB40 JUMP JUMPDEST SWAP5 POP PUSH2 0xB57 JUMP JUMPDEST SWAP5 POP SWAP5 SWAP3 POP POP POP JUMP JUMPDEST PUSH1 0x0 DUP3 PUSH2 0xBB0 JUMPI PUSH1 0x1 SWAP1 POP PUSH2 0xC6C JUMP JUMPDEST DUP2 PUSH2 0xBBE JUMPI PUSH1 0x0 SWAP1 POP PUSH2 0xC6C JUMP JUMPDEST DUP2 PUSH1 0x1 DUP2 EQ PUSH2 0xBD4 JUMPI PUSH1 0x2 DUP2 EQ PUSH2 0xBDE JUMPI PUSH2 0xC0D JUMP JUMPDEST PUSH1 0x1 SWAP2 POP POP PUSH2 0xC6C JUMP JUMPDEST PUSH1 0xFF DUP5 GT ISZERO PUSH2 0xBF0 JUMPI PUSH2 0xBEF PUSH2 0xB11 JUMP JUMPDEST JUMPDEST DUP4 PUSH1 0x2 EXP SWAP2 POP DUP5 DUP3 GT ISZERO PUSH2 0xC07 JUMPI PUSH2 0xC06 PUSH2 0xB11 JUMP JUMPDEST JUMPDEST POP PUSH2 0xC6C JUMP JUMPDEST POP PUSH1 0x20 DUP4 LT PUSH2 0x133 DUP4 LT AND PUSH1 0x4E DUP5 LT PUSH1 0xB DUP5 LT AND OR ISZERO PUSH2 0xC42 JUMPI DUP3 DUP3 EXP SWAP1 POP DUP4 DUP2 GT ISZERO PUSH2 0xC3D JUMPI PUSH2 0xC3C PUSH2 0xB11 JUMP JUMPDEST JUMPDEST PUSH2 0xC6C JUMP JUMPDEST PUSH2 0xC4F DUP5 DUP5 DUP5 PUSH1 0x1 PUSH2 0xB4D JUMP JUMPDEST SWAP3 POP SWAP1 POP DUP2 DUP5 DIV DUP2 GT ISZERO PUSH2 0xC66 JUMPI PUSH2 0xC65 PUSH2 0xB11 JUMP JUMPDEST JUMPDEST DUP2 DUP2 MUL SWAP1 POP JUMPDEST SWAP4 SWAP3 POP POP POP JUMP JUMPDEST PUSH1 0x0 PUSH1 0xFF DUP3 AND SWAP1 POP SWAP2 SWAP1 POP JUMP JUMPDEST PUSH1 0x0 PUSH2 0xC8B DUP3 PUSH2 0x869 JUMP JUMPDEST SWAP2 POP PUSH2 0xC96 DUP4 PUSH2 0xC73 JUMP JUMPDEST SWAP3 POP PUSH2 0xCC3 PUSH32 0xFFFFFFFFFFFFFFFFFFFFFFFFFFFFFFFFFFFFFFFFFFFFFFFFFFFFFFFFFFFFFFFF DUP5 DUP5 PUSH2 0xBA0 JUMP JUMPDEST SWAP1 POP SWAP3 SWAP2 POP POP JUMP JUMPDEST PUSH32 0x547265652069732066756C6C0000000000000000000000000000000000000000 PUSH1 0x0 DUP3 ADD MSTORE POP JUMP JUMPDEST PUSH1 0x0 PUSH2 0xD01 PUSH1 0xC DUP4 PUSH2 0x9BC JUMP JUMPDEST SWAP2 POP PUSH2 0xD0C DUP3 PUSH2 0xCCB JUMP JUMPDEST PUSH1 0x20 DUP3 ADD SWAP1 POP SWAP2 SWAP1 POP JUMP JUMPDEST PUSH1 0x0 PUSH1 0x20 DUP3 ADD SWAP1 POP DUP2 DUP2 SUB PUSH1 0x0 DUP4 ADD MSTORE PUSH2 0xD30 DUP2 PUSH2 0xCF4 JUMP JUMPDEST SWAP1 POP SWAP2 SWAP1 POP JUMP JUMPDEST PUSH32 0x4E487B7100000000000000000000000000000000000000000000000000000000 PUSH1 0x0 MSTORE PUSH1 0x12 PUSH1 0x4 MSTORE PUSH1 0x24 PUSH1 0x0 REVERT JUMPDEST PUSH1 0x0 PUSH2 0xD71 DUP3 PUSH2 0x869 JUMP JUMPDEST SWAP2 POP PUSH2 0xD7C DUP4 PUSH2 0x869 JUMP JUMPDEST SWAP3 POP DUP3 PUSH2 0xD8C JUMPI PUSH2 0xD8B PUSH2 0xD37 JUMP JUMPDEST JUMPDEST DUP3 DUP3 MOD SWAP1 POP SWAP3 SWAP2 POP POP JUMP JUMPDEST PUSH32 0x4E487B7100000000000000000000000000000000000000000000000000000000 PUSH1 0x0 MSTORE PUSH1 0x32 PUSH1 0x4 MSTORE PUSH1 0x24 PUSH1 0x0 REVERT JUMPDEST PUSH1 0x0 PUSH1 0x2 SWAP1 POP SWAP2 SWAP1 POP JUMP JUMPDEST PUSH1 0x0 DUP2 SWAP1 POP SWAP3 SWAP2 POP POP JUMP JUMPDEST PUSH1 0x0 DUP2 SWAP1 POP SWAP2 SWAP1 POP JUMP JUMPDEST PUSH2 0xDEF DUP2 PUSH2 0x869 JUMP JUMPDEST DUP3 MSTORE POP POP JUMP JUMPDEST PUSH1 0x0 PUSH2 0xE01 DUP4 DUP4 PUSH2 0xDE6 JUMP JUMPDEST PUSH1 0x20 DUP4 ADD SWAP1 POP SWAP3 SWAP2 POP POP JUMP JUMPDEST PUSH1 0x0 PUSH1 0x20 DUP3 ADD SWAP1 POP SWAP2 SWAP1 POP JUMP JUMPDEST PUSH2 0xE23 DUP2 PUSH2 0xDC6 JUMP JUMPDEST PUSH2 0xE2D DUP2 DUP5 PUSH2 0xDD1 JUMP JUMPDEST SWAP3 POP PUSH2 0xE38 DUP3 PUSH2 0xDDC JUMP JUMPDEST DUP1 PUSH1 0x0 JUMPDEST DUP4 DUP2 LT ISZERO PUSH2 0xE69 JUMPI DUP2 MLOAD PUSH2 0xE50 DUP8 DUP3 PUSH2 0xDF5 JUMP JUMPDEST SWAP7 POP PUSH2 0xE5B DUP4 PUSH2 0xE0D JUMP JUMPDEST SWAP3 POP POP PUSH1 0x1 DUP2 ADD SWAP1 POP PUSH2 0xE3C JUMP JUMPDEST POP POP POP POP POP POP JUMP JUMPDEST PUSH1 0x0 PUSH1 0x60 DUP3 ADD SWAP1 POP PUSH2 0xE86 PUSH1 0x0 DUP4 ADD DUP6 PUSH2 0xE1A JUMP JUMPDEST PUSH2 0xE93 PUSH1 0x40 DUP4 ADD DUP5 PUSH2 0x873 JUMP JUMPDEST SWAP4 SWAP3 POP POP POP JUMP JUMPDEST PUSH1 0x0 DUP2 MLOAD SWAP1 POP PUSH2 0xEA9 DUP2 PUSH2 0x8A2 JUMP JUMPDEST SWAP3 SWAP2 POP POP JUMP JUMPDEST PUSH1 0x0 PUSH1 0x20 DUP3 DUP5 SUB SLT ISZERO PUSH2 0xEC5 JUMPI PUSH2 0xEC4 PUSH2 0x89D JUMP JUMPDEST JUMPDEST PUSH1 0x0 PUSH2 0xED3 DUP5 DUP3 DUP6 ADD PUSH2 0xE9A JUMP JUMPDEST SWAP2 POP POP SWAP3 SWAP2 POP POP JUMP JUMPDEST PUSH1 0x0 PUSH2 0xEE7 DUP3 PUSH2 0x869 JUMP JUMPDEST SWAP2 POP PUSH2 0xEF2 DUP4 PUSH2 0x869 JUMP JUMPDEST SWAP3 POP DUP3 PUSH2 0xF02 JUMPI PUSH2 0xF01 PUSH2 0xD37 JUMP JUMPDEST JUMPDEST DUP3 DUP3 DIV SWAP1 POP SWAP3 SWAP2 POP POP JUMP JUMPDEST PUSH1 0x0 PUSH2 0xF18 DUP3 PUSH2 0xC73 JUMP JUMPDEST SWAP2 POP PUSH1 0xFF DUP3 SUB PUSH2 0xF2B JUMPI PUSH2 0xF2A PUSH2 0xB11 JUMP JUMPDEST JUMPDEST PUSH1 0x1 DUP3 ADD SWAP1 POP SWAP2 SWAP1 POP JUMP JUMPDEST PUSH1 0x0 PUSH2 0xF41 DUP3 PUSH2 0x869 JUMP JUMPDEST SWAP2 POP PUSH2 0xF4C DUP4 PUSH2 0x869 JUMP JUMPDEST SWAP3 POP DUP3 DUP3 ADD SWAP1 POP DUP1 DUP3 GT ISZERO PUSH2 0xF64 JUMPI PUSH2 0xF63 PUSH2 0xB11 JUMP JUMPDEST JUMPDEST SWAP3 SWAP2 POP POP JUMP JUMPDEST PUSH1 0x0 PUSH1 0xA SWAP1 POP SWAP2 SWAP1 POP JUMP JUMPDEST PUSH1 0x0 DUP2 SWAP1 POP SWAP3 SWAP2 POP POP JUMP JUMPDEST PUSH1 0x0 DUP2 SWAP1 POP SWAP2 SWAP1 POP JUMP JUMPDEST PUSH1 0x0 PUSH1 0x20 DUP3 ADD SWAP1 POP SWAP2 SWAP1 POP JUMP JUMPDEST PUSH2 0xFA0 DUP2 PUSH2 0xF6A JUMP JUMPDEST PUSH2 0xFAA DUP2 DUP5 PUSH2 0xF75 JUMP JUMPDEST SWAP3 POP PUSH2 0xFB5 DUP3 PUSH2 0xF80 JUMP JUMPDEST DUP1 PUSH1 0x0 JUMPDEST DUP4 DUP2 LT ISZERO PUSH2 0xFE6 JUMPI DUP2 MLOAD PUSH2 0xFCD DUP8 DUP3 PUSH2 0xDF5 JUMP JUMPDEST SWAP7 POP PUSH2 0xFD8 DUP4 PUSH2 0xF8A JUMP JUMPDEST SWAP3 POP POP PUSH1 0x1 DUP2 ADD SWAP1 POP PUSH2 0xFB9 JUMP JUMPDEST POP POP POP POP POP POP JUMP JUMPDEST PUSH1 0x0 PUSH1 0xA SWAP1 POP SWAP2 SWAP1 POP JUMP JUMPDEST PUSH1 0x0 DUP2 SWAP1 POP SWAP3 SWAP2 POP POP JUMP JUMPDEST PUSH1 0x0 DUP2 SWAP1 POP SWAP2 SWAP1 POP JUMP JUMPDEST PUSH2 0x1017 DUP2 PUSH2 0xC73 JUMP JUMPDEST DUP3 MSTORE POP POP JUMP JUMPDEST PUSH1 0x0 PUSH2 0x1029 DUP4 DUP4 PUSH2 0x100E JUMP JUMPDEST PUSH1 0x20 DUP4 ADD SWAP1 POP SWAP3 SWAP2 POP POP JUMP JUMPDEST PUSH1 0x0 PUSH1 0x20 DUP3 ADD SWAP1 POP SWAP2 SWAP1 POP JUMP JUMPDEST PUSH2 0x104B DUP2 PUSH2 0xFEE JUMP JUMPDEST PUSH2 0x1055 DUP2 DUP5 PUSH2 0xFF9 JUMP JUMPDEST SWAP3 POP PUSH2 0x1060 DUP3 PUSH2 0x1004 JUMP JUMPDEST DUP1 PUSH1 0x0 JUMPDEST DUP4 DUP2 LT ISZERO PUSH2 0x1091 JUMPI DUP2 MLOAD PUSH2 0x1078 DUP8 DUP3 PUSH2 0x101D JUMP JUMPDEST SWAP7 POP PUSH2 0x1083 DUP4 PUSH2 0x1035 JUMP JUMPDEST SWAP3 POP POP PUSH1 0x1 DUP2 ADD SWAP1 POP PUSH2 0x1064 JUMP JUMPDEST POP POP POP POP POP POP JUMP JUMPDEST PUSH1 0x0 PUSH2 0x2A0 DUP3 ADD SWAP1 POP PUSH2 0x10AF PUSH1 0x0 DUP4 ADD DUP7 PUSH2 0x873 JUMP JUMPDEST PUSH2 0x10BC PUSH1 0x20 DUP4 ADD DUP6 PUSH2 0xF97 JUMP JUMPDEST PUSH2 0x10CA PUSH2 0x160 DUP4 ADD DUP5 PUSH2 0x1042 JUMP JUMPDEST SWAP5 SWAP4 POP POP POP POP JUMP JUMPDEST PUSH32 0x4F6E6C79206F776E65722063616E2063616C6C20746869732066756E6374696F PUSH1 0x0 DUP3 ADD MSTORE PUSH32 0x6E00000000000000000000000000000000000000000000000000000000000000 PUSH1 0x20 DUP3 ADD MSTORE POP JUMP JUMPDEST PUSH1 0x0 PUSH2 0x112E PUSH1 0x21 DUP4 PUSH2 0x9BC JUMP JUMPDEST SWAP2 POP PUSH2 0x1139 DUP3 PUSH2 0x10D2 JUMP JUMPDEST PUSH1 0x40 DUP3 ADD SWAP1 POP SWAP2 SWAP1 POP JUMP JUMPDEST PUSH1 0x0 PUSH1 0x20 DUP3 ADD SWAP1 POP DUP2 DUP2 SUB PUSH1 0x0 DUP4 ADD MSTORE PUSH2 0x115D DUP2 PUSH2 0x1121 JUMP JUMPDEST SWAP1 POP SWAP2 SWAP1 POP JUMP INVALID LOG2 PUSH5 0x6970667358 0x22 SLT KECCAK256 PUSH11 0xC22337D5C2835E438E9709 DUP14 AND OR LT 0xB3 0x4E 0xE3 PUSH9 0x475B00197FDF813C85 0xE8 SIGNEXTEND 0xC3 PUSH5 0x736F6C6343 STOP ADDMOD EQ STOP CALLER "
        },
        "methodIdentifiers": {
          "addCommitment(uint256)": "797a6890",
          "addNullifierHash(uint256)": "6b94fbda",
          "allowCaller(address)": "9e44ac0f",
          "isAllowedCaller(address)": "a6801258",
          "nextLeafIndex()": "0be4f422"
        }
      }
    }
  }
}