{
  "_format": "hh-sol-artifact-1",
  "contractName": "Whisper",
  "sourceName": "contracts/Whisper.sol",
  "abi": [
    {
      "inputs": [
        {
          "internalType": "address",
          "name": "_mimc5",
          "type": "address"
        },
        {
          "internalType": "address",
          "name": "_verifier",
          "type": "address"
        },
        {
          "internalType": "uint256",
          "name": "_depositAmount",
          "type": "uint256"
        }
      ],
      "stateMutability": "nonpayable",
      "type": "constructor"
    },
    {
      "inputs": [],
      "name": "ReentrancyGuardReentrantCall",
      "type": "error"
    },
    {
      "anonymous": false,
      "inputs": [
        {
          "indexed": false,
          "internalType": "uint256",
          "name": "root",
          "type": "uint256"
        },
        {
          "indexed": false,
          "internalType": "uint256[10]",
          "name": "hashPairings",
          "type": "uint256[10]"
        },
        {
          "indexed": false,
          "internalType": "uint8[10]",
          "name": "hashDirections",
          "type": "uint8[10]"
        }
      ],
      "name": "Deposit",
      "type": "event"
    },
    {
      "inputs": [
        {
          "internalType": "uint256",
          "name": "_commitment",
          "type": "uint256"
        }
      ],
      "name": "deposit",
      "outputs": [],
      "stateMutability": "payable",
      "type": "function"
    },
    {
      "inputs": [],
      "name": "depositAmount",
      "outputs": [
        {
          "internalType": "uint256",
          "name": "",
          "type": "uint256"
        }
      ],
      "stateMutability": "view",
      "type": "function"
    },
    {
      "inputs": [],
      "name": "fees",
      "outputs": [
        {
          "internalType": "uint256",
          "name": "",
          "type": "uint256"
        }
      ],
      "stateMutability": "view",
      "type": "function"
    },
    {
      "inputs": [],
      "name": "nextLeafIndex",
      "outputs": [
        {
          "internalType": "uint256",
          "name": "",
          "type": "uint256"
        }
      ],
      "stateMutability": "view",
      "type": "function"
    },
    {
      "inputs": [
        {
          "internalType": "uint256",
          "name": "_fees",
          "type": "uint256"
        }
      ],
      "name": "setFees",
      "outputs": [],
      "stateMutability": "nonpayable",
      "type": "function"
    },
    {
      "inputs": [
        {
          "internalType": "uint256[2]",
          "name": "_pA",
          "type": "uint256[2]"
        },
        {
          "internalType": "uint256[2][2]",
          "name": "_pB",
          "type": "uint256[2][2]"
        },
        {
          "internalType": "uint256[2]",
          "name": "_pC",
          "type": "uint256[2]"
        },
        {
          "internalType": "uint256[1]",
          "name": "_pubSignals",
          "type": "uint256[1]"
        }
      ],
      "name": "withdraw",
      "outputs": [],
      "stateMutability": "payable",
      "type": "function"
    }
  ],
  "bytecode": "0x6080604052655af3107a4000600455600a600560146101000a81548160ff021916908360ff1602179055506040518061014001604052807fda70048a78ea262e7e52673edf42cd03aab854843aea37a75cc187a4215e42aa81526020017fce42a193851ab7eb183af214cabde108e98967cae4c1807edd1a3eecb565f78e81526020017f8001bdc085186237cc899529c2d234a6c8e8d53ef24079e87f818e7f813c07ef81526020017f3b5f53c4217eba75893869078d3db3b644cce573d22b5df2982a2dfff5006e9681526020017f6d5202467af82a66bcabc732607986afad45290b8cc19b92ddac7ff389f232da81526020017f8d4472f54e79585a74777b790cb404f4499e3398a67351a4dc3ba873585e4e4e81526020017fd22075a40d568b57bba3bd523a3d01c59980830874cc3af8635a5b463089c56c81526020017f6e0ffcc8e87dbad6e5d38b8d759af751481ba32876efe28f6cfcbe3521cf64c181526020017f7e62e40fec32a60107bd998a724cde7c5904961a96cf5c35f75d099b9224b3ad81526020017ffd87aa8ee2b8e2842a020f34668c0bb6398b5164a76bb9f8793ce307aef7b59c815250600a90600a620001c2929190620002d1565b50348015620001d057600080fd5b5060405162001aa738038062001aa78339818101604052810190620001f69190620003da565b600160008190555082600560006101000a81548173ffffffffffffffffffffffffffffffffffffffff021916908373ffffffffffffffffffffffffffffffffffffffff16021790555081600160006101000a81548173ffffffffffffffffffffffffffffffffffffffff021916908373ffffffffffffffffffffffffffffffffffffffff1602179055508060038190555033600260006101000a81548173ffffffffffffffffffffffffffffffffffffffff021916908373ffffffffffffffffffffffffffffffffffffffff16021790555050505062000436565b82600a810192821562000303579160200282015b8281111562000302578251825591602001919060010190620002e5565b5b50905062000312919062000316565b5090565b5b808211156200033157600081600090555060010162000317565b5090565b600080fd5b600073ffffffffffffffffffffffffffffffffffffffff82169050919050565b600062000367826200033a565b9050919050565b62000379816200035a565b81146200038557600080fd5b50565b60008151905062000399816200036e565b92915050565b6000819050919050565b620003b4816200039f565b8114620003c057600080fd5b50565b600081519050620003d481620003a9565b92915050565b600080600060608486031215620003f657620003f562000335565b5b6000620004068682870162000388565b9350506020620004198682870162000388565b92505060406200042c86828701620003c3565b9150509250925092565b61166180620004466000396000f3fe6080604052600436106100555760003560e01c80630be4f4221461005a5780633d18678e14610085578063419759f5146100ae578063768ea39d146100d95780639af1d35a146100f5578063b6b55f2514610120575b600080fd5b34801561006657600080fd5b5061006f61013c565b60405161007c9190610a10565b60405180910390f35b34801561009157600080fd5b506100ac60048036038101906100a79190610a5c565b610142565b005b3480156100ba57600080fd5b506100c36101dc565b6040516100d09190610a10565b60405180910390f35b6100f360048036038101906100ee9190610af4565b6101e2565b005b34801561010157600080fd5b5061010a6104f8565b6040516101179190610a10565b60405180910390f35b61013a60048036038101906101359190610a5c565b6104fe565b005b60065481565b600260009054906101000a900473ffffffffffffffffffffffffffffffffffffffff1673ffffffffffffffffffffffffffffffffffffffff163373ffffffffffffffffffffffffffffffffffffffff16146101d2576040517f08c379a00000000000000000000000000000000000000000000000000000000081526004016101c990610be0565b60405180910390fd5b8060048190555050565b60035481565b6101ea61093f565b60035447101561022f576040517f08c379a000000000000000000000000000000000000000000000000000000000815260040161022690610c4c565b60405180910390fd5b60008160006001811061024557610244610c6c565b5b602002013590506008600082815260200190815260200160002060009054906101000a900460ff16156102ad576040517f08c379a00000000000000000000000000000000000000000000000000000000081526004016102a490610ce7565b60405180910390fd5b60003373ffffffffffffffffffffffffffffffffffffffff1690506000600160009054906101000a900473ffffffffffffffffffffffffffffffffffffffff1673ffffffffffffffffffffffffffffffffffffffff1687878760405180604001604052808881526020018781525060405160240161032e9493929190610e8a565b60405160208183030381529060405263f5c9d69e60e01b6020820180517bffffffffffffffffffffffffffffffffffffffffffffffffffffffff83818316178352505050506040516103809190610f42565b6000604051808303816000865af19150503d80600081146103bd576040519150601f19603f3d011682016040523d82523d6000602084013e6103c2565b606091505b5050905080610406576040517f08c379a00000000000000000000000000000000000000000000000000000000081526004016103fd90610fa5565b60405180910390fd5b60016008600085815260200190815260200160002060006101000a81548160ff021916908315150217905550600033905060008173ffffffffffffffffffffffffffffffffffffffff1660035460405161045f90610feb565b60006040518083038185875af1925050503d806000811461049c576040519150601f19603f3d011682016040523d82523d6000602084013e6104a1565b606091505b50509050806104e5576040517f08c379a00000000000000000000000000000000000000000000000000000000081526004016104dc9061104c565b60405180910390fd5b50505050506104f2610985565b50505050565b60045481565b61050661093f565b6000600454600354610518919061109b565b905080341461055c576040517f08c379a00000000000000000000000000000000000000000000000000000000081526004016105539061111b565b60405180910390fd5b6009600083815260200190815260200160002060009054906101000a900460ff16156105bd576040517f08c379a00000000000000000000000000000000000000000000000000000000081526004016105b490611187565b60405180910390fd5b600560149054906101000a900460ff1660026105d991906112e7565b6006541061061c576040517f08c379a00000000000000000000000000000000000000000000000000000000081526004016106139061137e565b60405180910390fd5b600061062661098f565b61062e6109b2565b6000600654905060008690506000806106456109d5565b60005b600560149054906101000a900460ff1660ff168160ff1610156108a657600060028761067491906113cd565b036106fd57849350600a8160ff16600a811061069357610692610c6c565b5b01549250600a8160ff16600a81106106ae576106ad610c6c565b5b0154888260ff16600a81106106c6576106c5610c6c565b5b6020020181815250506000878260ff16600a81106106e7576106e6610c6c565b5b602002019060ff16908160ff168152505061077f565b600760008260ff1660ff168152602001908152602001600020549350849250600760008260ff1660ff16815260200190815260200160002054888260ff16600a811061074c5761074b610c6c565b5b6020020181815250506001878260ff16600a811061076d5761076c610c6c565b5b602002019060ff16908160ff16815250505b84600760008360ff1660ff1681526020019081526020016000208190555083826000600281106107b2576107b1610c6c565b5b60200201818152505082826001600281106107d0576107cf610c6c565b5b6020020181815250506000600560009054906101000a900473ffffffffffffffffffffffffffffffffffffffff1673ffffffffffffffffffffffffffffffffffffffff1663d622e5a4620249f0858f6040518463ffffffff1660e01b815260040161083c9291906113fe565b6020604051808303818786fa158015610859573d6000803e3d6000fd5b50505050506040513d601f19601f8201168201806040525081019061087e919061143c565b90508095506002876108909190611469565b965050808061089e9061149a565b915050610648565b508397506001600660008282546108bd919061109b565b925050819055506001600960008c815260200190815260200160002060006101000a81548160ff0219169083151502179055507fe6ab8667cb740d6c65a4ad321c031eb42f6c5085d5753238d1b2e1e370c13483888888604051610923939291906115f2565b60405180910390a150505050505050505061093c610985565b50565b60026000540361097b576040517f3ee5aeb500000000000000000000000000000000000000000000000000000000815260040160405180910390fd5b6002600081905550565b6001600081905550565b604051806101400160405280600a90602082028036833780820191505090505090565b604051806101400160405280600a90602082028036833780820191505090505090565b6040518060400160405280600290602082028036833780820191505090505090565b6000819050919050565b610a0a816109f7565b82525050565b6000602082019050610a256000830184610a01565b92915050565b600080fd5b610a39816109f7565b8114610a4457600080fd5b50565b600081359050610a5681610a30565b92915050565b600060208284031215610a7257610a71610a2b565b5b6000610a8084828501610a47565b91505092915050565b600080fd5b600081905082602060020282011115610aaa57610aa9610a89565b5b92915050565b600081905082604060020282011115610acc57610acb610a89565b5b92915050565b600081905082602060010282011115610aee57610aed610a89565b5b92915050565b6000806000806101208587031215610b0f57610b0e610a2b565b5b6000610b1d87828801610a8e565b9450506040610b2e87828801610ab0565b93505060c0610b3f87828801610a8e565b925050610100610b5187828801610ad2565b91505092959194509250565b600082825260208201905092915050565b7f4f6e6c79206f776e65722063616e2063616c6c20746869732066756e6374696f60008201527f6e00000000000000000000000000000000000000000000000000000000000000602082015250565b6000610bca602183610b5d565b9150610bd582610b6e565b604082019050919050565b60006020820190508181036000830152610bf981610bbd565b9050919050565b7f496e73756666696369656e742062616c616e6365000000000000000000000000600082015250565b6000610c36601483610b5d565b9150610c4182610c00565b602082019050919050565b60006020820190508181036000830152610c6581610c29565b9050919050565b7f4e487b7100000000000000000000000000000000000000000000000000000000600052603260045260246000fd5b7f4e756c6c6966696572206861736820616c726561647920657869737473000000600082015250565b6000610cd1601d83610b5d565b9150610cdc82610c9b565b602082019050919050565b60006020820190508181036000830152610d0081610cc4565b9050919050565b82818337505050565b610d1c60408383610d07565b5050565b600060029050919050565b600081905092915050565b6000819050919050565b610d4c60408383610d07565b5050565b6000610d5c8383610d40565b60408301905092915050565b600082905092915050565b6000604082019050919050565b610d8981610d20565b610d938184610d2b565b9250610d9e82610d36565b8060005b83811015610dd757610db48284610d68565b610dbe8782610d50565b9650610dc983610d73565b925050600181019050610da2565b505050505050565b600060029050919050565b600081905092915050565b6000819050919050565b610e08816109f7565b82525050565b6000610e1a8383610dff565b60208301905092915050565b6000602082019050919050565b610e3c81610ddf565b610e468184610dea565b9250610e5182610df5565b8060005b83811015610e82578151610e698782610e0e565b9650610e7483610e26565b925050600181019050610e55565b505050505050565b600061014082019050610ea06000830187610d10565b610ead6040830186610d80565b610eba60c0830185610d10565b610ec8610100830184610e33565b95945050505050565b600081519050919050565b600081905092915050565b60005b83811015610f05578082015181840152602081019050610eea565b60008484015250505050565b6000610f1c82610ed1565b610f268185610edc565b9350610f36818560208601610ee7565b80840191505092915050565b6000610f4e8284610f11565b915081905092915050565b7f496e76616c69642070726f6f6600000000000000000000000000000000000000600082015250565b6000610f8f600d83610b5d565b9150610f9a82610f59565b602082019050919050565b60006020820190508181036000830152610fbe81610f82565b9050919050565b50565b6000610fd5600083610edc565b9150610fe082610fc5565b600082019050919050565b6000610ff682610fc8565b9150819050919050565b7f4661696c656420746f2073656e642066756e6473000000000000000000000000600082015250565b6000611036601483610b5d565b915061104182611000565b602082019050919050565b6000602082019050818103600083015261106581611029565b9050919050565b7f4e487b7100000000000000000000000000000000000000000000000000000000600052601160045260246000fd5b60006110a6826109f7565b91506110b1836109f7565b92508282019050808211156110c9576110c861106c565b5b92915050565b7f496e76616c6964206465706f73697420616d6f756e7400000000000000000000600082015250565b6000611105601683610b5d565b9150611110826110cf565b602082019050919050565b60006020820190508181036000830152611134816110f8565b9050919050565b7f436f6d6d69746d656e7420616c72656164792065786973747300000000000000600082015250565b6000611171601983610b5d565b915061117c8261113b565b602082019050919050565b600060208201905081810360008301526111a081611164565b9050919050565b60008160011c9050919050565b6000808291508390505b60018511156111fe578086048111156111da576111d961106c565b5b60018516156111e95780820291505b80810290506111f7856111a7565b94506111be565b94509492505050565b60008261121757600190506112d3565b8161122557600090506112d3565b816001811461123b576002811461124557611274565b60019150506112d3565b60ff8411156112575761125661106c565b5b8360020a91508482111561126e5761126d61106c565b5b506112d3565b5060208310610133831016604e8410600b84101617156112a95782820a9050838111156112a4576112a361106c565b5b6112d3565b6112b684848460016111b4565b925090508184048111156112cd576112cc61106c565b5b81810290505b9392505050565b600060ff82169050919050565b60006112f2826109f7565b91506112fd836112da565b925061132a7fffffffffffffffffffffffffffffffffffffffffffffffffffffffffffffffff8484611207565b905092915050565b7f547265652069732066756c6c0000000000000000000000000000000000000000600082015250565b6000611368600c83610b5d565b915061137382611332565b602082019050919050565b600060208201905081810360008301526113978161135b565b9050919050565b7f4e487b7100000000000000000000000000000000000000000000000000000000600052601260045260246000fd5b60006113d8826109f7565b91506113e3836109f7565b9250826113f3576113f261139e565b5b828206905092915050565b60006060820190506114136000830185610e33565b6114206040830184610a01565b9392505050565b60008151905061143681610a30565b92915050565b60006020828403121561145257611451610a2b565b5b600061146084828501611427565b91505092915050565b6000611474826109f7565b915061147f836109f7565b92508261148f5761148e61139e565b5b828204905092915050565b60006114a5826112da565b915060ff82036114b8576114b761106c565b5b600182019050919050565b6000600a9050919050565b600081905092915050565b6000819050919050565b6000602082019050919050565b6114f9816114c3565b61150381846114ce565b925061150e826114d9565b8060005b8381101561153f5781516115268782610e0e565b9650611531836114e3565b925050600181019050611512565b505050505050565b6000600a9050919050565b600081905092915050565b6000819050919050565b611570816112da565b82525050565b60006115828383611567565b60208301905092915050565b6000602082019050919050565b6115a481611547565b6115ae8184611552565b92506115b98261155d565b8060005b838110156115ea5781516115d18782611576565b96506115dc8361158e565b9250506001810190506115bd565b505050505050565b60006102a0820190506116086000830186610a01565b61161560208301856114f0565b61162361016083018461159b565b94935050505056fea26469706673582212209c2b3ec9eab52c3aca443001644ed095d1261678faa7d1554a7d5f7b725dc1ef64736f6c63430008140033",
  "linkReferences": {},
  "deployedLinkReferences": {}
}