{
  "contracts/Whisper.sol": {
    "Whisper": {
      "abi": [
        {
          "inputs": [
            {
              "internalType": "address",
              "name": "_mimc5",
              "type": "address"
            },
            {
              "internalType": "address",
              "name": "_verifier",
              "type": "address"
            },
            {
              "internalType": "uint256",
              "name": "_depositAmount",
              "type": "uint256"
            }
          ],
          "stateMutability": "nonpayable",
          "type": "constructor"
        },
        {
          "inputs": [],
          "name": "ReentrancyGuardReentrantCall",
          "type": "error"
        },
        {
          "anonymous": false,
          "inputs": [
            {
              "indexed": false,
              "internalType": "uint256",
              "name": "root",
              "type": "uint256"
            },
            {
              "indexed": false,
              "internalType": "uint256[10]",
              "name": "hashPairings",
              "type": "uint256[10]"
            },
            {
              "indexed": false,
              "internalType": "uint8[10]",
              "name": "hashDirections",
              "type": "uint8[10]"
            }
          ],
          "name": "Deposit",
          "type": "event"
        },
        {
          "inputs": [
            {
              "internalType": "uint256",
              "name": "_commitment",
              "type": "uint256"
            }
          ],
          "name": "deposit",
          "outputs": [],
          "stateMutability": "payable",
          "type": "function"
        },
        {
          "inputs": [],
          "name": "depositAmount",
          "outputs": [
            {
              "internalType": "uint256",
              "name": "",
              "type": "uint256"
            }
          ],
          "stateMutability": "view",
          "type": "function"
        },
        {
          "inputs": [],
          "name": "fees",
          "outputs": [
            {
              "internalType": "uint256",
              "name": "",
              "type": "uint256"
            }
          ],
          "stateMutability": "view",
          "type": "function"
        },
        {
          "inputs": [],
          "name": "nextLeafIndex",
          "outputs": [
            {
              "internalType": "uint256",
              "name": "",
              "type": "uint256"
            }
          ],
          "stateMutability": "view",
          "type": "function"
        },
        {
          "inputs": [
            {
              "internalType": "uint256",
              "name": "_fees",
              "type": "uint256"
            }
          ],
          "name": "setFees",
          "outputs": [],
          "stateMutability": "nonpayable",
          "type": "function"
        },
        {
          "inputs": [
            {
              "internalType": "uint256[2]",
              "name": "_pA",
              "type": "uint256[2]"
            },
            {
              "internalType": "uint256[2][2]",
              "name": "_pB",
              "type": "uint256[2][2]"
            },
            {
              "internalType": "uint256[2]",
              "name": "_pC",
              "type": "uint256[2]"
            },
            {
              "internalType": "uint256[1]",
              "name": "_pubSignals",
              "type": "uint256[1]"
            }
          ],
          "name": "withdraw",
          "outputs": [],
          "stateMutability": "nonpayable",
          "type": "function"
        }
      ],
      "evm": {
        "bytecode": {
          "linkReferences": {},
          "object": "6080604052655af3107a4000600455600a600560146101000a81548160ff021916908360ff1602179055506040518061014001604052807fda70048a78ea262e7e52673edf42cd03aab854843aea37a75cc187a4215e42aa81526020017fce42a193851ab7eb183af214cabde108e98967cae4c1807edd1a3eecb565f78e81526020017f8001bdc085186237cc899529c2d234a6c8e8d53ef24079e87f818e7f813c07ef81526020017f3b5f53c4217eba75893869078d3db3b644cce573d22b5df2982a2dfff5006e9681526020017f6d5202467af82a66bcabc732607986afad45290b8cc19b92ddac7ff389f232da81526020017f8d4472f54e79585a74777b790cb404f4499e3398a67351a4dc3ba873585e4e4e81526020017fd22075a40d568b57bba3bd523a3d01c59980830874cc3af8635a5b463089c56c81526020017f6e0ffcc8e87dbad6e5d38b8d759af751481ba32876efe28f6cfcbe3521cf64c181526020017f7e62e40fec32a60107bd998a724cde7c5904961a96cf5c35f75d099b9224b3ad81526020017ffd87aa8ee2b8e2842a020f34668c0bb6398b5164a76bb9f8793ce307aef7b59c815250600a90600a620001c2929190620002d1565b50348015620001d057600080fd5b5060405162001aa438038062001aa48339818101604052810190620001f69190620003da565b600160008190555082600560006101000a81548173ffffffffffffffffffffffffffffffffffffffff021916908373ffffffffffffffffffffffffffffffffffffffff16021790555081600160006101000a81548173ffffffffffffffffffffffffffffffffffffffff021916908373ffffffffffffffffffffffffffffffffffffffff1602179055508060038190555033600260006101000a81548173ffffffffffffffffffffffffffffffffffffffff021916908373ffffffffffffffffffffffffffffffffffffffff16021790555050505062000436565b82600a810192821562000303579160200282015b8281111562000302578251825591602001919060010190620002e5565b5b50905062000312919062000316565b5090565b5b808211156200033157600081600090555060010162000317565b5090565b600080fd5b600073ffffffffffffffffffffffffffffffffffffffff82169050919050565b600062000367826200033a565b9050919050565b62000379816200035a565b81146200038557600080fd5b50565b60008151905062000399816200036e565b92915050565b6000819050919050565b620003b4816200039f565b8114620003c057600080fd5b50565b600081519050620003d481620003a9565b92915050565b600080600060608486031215620003f657620003f562000335565b5b6000620004068682870162000388565b9350506020620004198682870162000388565b92505060406200042c86828701620003c3565b9150509250925092565b61165e80620004466000396000f3fe6080604052600436106100555760003560e01c80630be4f4221461005a5780633d18678e14610085578063419759f5146100ae578063768ea39d146100d95780639af1d35a14610102578063b6b55f251461012d575b600080fd5b34801561006657600080fd5b5061006f610149565b60405161007c9190610a0d565b60405180910390f35b34801561009157600080fd5b506100ac60048036038101906100a79190610a59565b61014f565b005b3480156100ba57600080fd5b506100c36101e9565b6040516100d09190610a0d565b60405180910390f35b3480156100e557600080fd5b5061010060048036038101906100fb9190610af1565b6101ef565b005b34801561010e57600080fd5b506101176104f5565b6040516101249190610a0d565b60405180910390f35b61014760048036038101906101429190610a59565b6104fb565b005b60065481565b600260009054906101000a900473ffffffffffffffffffffffffffffffffffffffff1673ffffffffffffffffffffffffffffffffffffffff163373ffffffffffffffffffffffffffffffffffffffff16146101df576040517f08c379a00000000000000000000000000000000000000000000000000000000081526004016101d690610bdd565b60405180910390fd5b8060048190555050565b60035481565b600354471015610234576040517f08c379a000000000000000000000000000000000000000000000000000000000815260040161022b90610c49565b60405180910390fd5b60008160006001811061024a57610249610c69565b5b602002013590506008600082815260200190815260200160002060009054906101000a900460ff16156102b2576040517f08c379a00000000000000000000000000000000000000000000000000000000081526004016102a990610ce4565b60405180910390fd5b60003373ffffffffffffffffffffffffffffffffffffffff1690506000600160009054906101000a900473ffffffffffffffffffffffffffffffffffffffff1673ffffffffffffffffffffffffffffffffffffffff168787876040518060400160405280888152602001878152506040516024016103339493929190610e87565b60405160208183030381529060405263f5c9d69e60e01b6020820180517bffffffffffffffffffffffffffffffffffffffffffffffffffffffff83818316178352505050506040516103859190610f3f565b6000604051808303816000865af19150503d80600081146103c2576040519150601f19603f3d011682016040523d82523d6000602084013e6103c7565b606091505b505090508061040b576040517f08c379a000000000000000000000000000000000000000000000000000000000815260040161040290610fa2565b60405180910390fd5b60016008600085815260200190815260200160002060006101000a81548160ff021916908315150217905550600033905060008173ffffffffffffffffffffffffffffffffffffffff1660035460405161046490610fe8565b60006040518083038185875af1925050503d80600081146104a1576040519150601f19603f3d011682016040523d82523d6000602084013e6104a6565b606091505b50509050806104ea576040517f08c379a00000000000000000000000000000000000000000000000000000000081526004016104e190611049565b60405180910390fd5b505050505050505050565b60045481565b61050361093c565b60006004546003546105159190611098565b9050803414610559576040517f08c379a000000000000000000000000000000000000000000000000000000000815260040161055090611118565b60405180910390fd5b6009600083815260200190815260200160002060009054906101000a900460ff16156105ba576040517f08c379a00000000000000000000000000000000000000000000000000000000081526004016105b190611184565b60405180910390fd5b600560149054906101000a900460ff1660026105d691906112e4565b60065410610619576040517f08c379a00000000000000000000000000000000000000000000000000000000081526004016106109061137b565b60405180910390fd5b600061062361098c565b61062b6109af565b6000600654905060008690506000806106426109d2565b60005b600560149054906101000a900460ff1660ff168160ff1610156108a357600060028761067191906113ca565b036106fa57849350600a8160ff16600a81106106905761068f610c69565b5b01549250600a8160ff16600a81106106ab576106aa610c69565b5b0154888260ff16600a81106106c3576106c2610c69565b5b6020020181815250506000878260ff16600a81106106e4576106e3610c69565b5b602002019060ff16908160ff168152505061077c565b600760008260ff1660ff168152602001908152602001600020549350849250600760008260ff1660ff16815260200190815260200160002054888260ff16600a811061074957610748610c69565b5b6020020181815250506001878260ff16600a811061076a57610769610c69565b5b602002019060ff16908160ff16815250505b84600760008360ff1660ff1681526020019081526020016000208190555083826000600281106107af576107ae610c69565b5b60200201818152505082826001600281106107cd576107cc610c69565b5b6020020181815250506000600560009054906101000a900473ffffffffffffffffffffffffffffffffffffffff1673ffffffffffffffffffffffffffffffffffffffff1663d622e5a4620249f0858f6040518463ffffffff1660e01b81526004016108399291906113fb565b6020604051808303818786fa158015610856573d6000803e3d6000fd5b50505050506040513d601f19601f8201168201806040525081019061087b9190611439565b905080955060028761088d9190611466565b965050808061089b90611497565b915050610645565b508397506001600660008282546108ba9190611098565b925050819055506001600960008c815260200190815260200160002060006101000a81548160ff0219169083151502179055507fe6ab8667cb740d6c65a4ad321c031eb42f6c5085d5753238d1b2e1e370c13483888888604051610920939291906115ef565b60405180910390a1505050505050505050610939610982565b50565b600260005403610978576040517f3ee5aeb500000000000000000000000000000000000000000000000000000000815260040160405180910390fd5b6002600081905550565b6001600081905550565b604051806101400160405280600a90602082028036833780820191505090505090565b604051806101400160405280600a90602082028036833780820191505090505090565b6040518060400160405280600290602082028036833780820191505090505090565b6000819050919050565b610a07816109f4565b82525050565b6000602082019050610a2260008301846109fe565b92915050565b600080fd5b610a36816109f4565b8114610a4157600080fd5b50565b600081359050610a5381610a2d565b92915050565b600060208284031215610a6f57610a6e610a28565b5b6000610a7d84828501610a44565b91505092915050565b600080fd5b600081905082602060020282011115610aa757610aa6610a86565b5b92915050565b600081905082604060020282011115610ac957610ac8610a86565b5b92915050565b600081905082602060010282011115610aeb57610aea610a86565b5b92915050565b6000806000806101208587031215610b0c57610b0b610a28565b5b6000610b1a87828801610a8b565b9450506040610b2b87828801610aad565b93505060c0610b3c87828801610a8b565b925050610100610b4e87828801610acf565b91505092959194509250565b600082825260208201905092915050565b7f4f6e6c79206f776e65722063616e2063616c6c20746869732066756e6374696f60008201527f6e00000000000000000000000000000000000000000000000000000000000000602082015250565b6000610bc7602183610b5a565b9150610bd282610b6b565b604082019050919050565b60006020820190508181036000830152610bf681610bba565b9050919050565b7f496e73756666696369656e742062616c616e6365000000000000000000000000600082015250565b6000610c33601483610b5a565b9150610c3e82610bfd565b602082019050919050565b60006020820190508181036000830152610c6281610c26565b9050919050565b7f4e487b7100000000000000000000000000000000000000000000000000000000600052603260045260246000fd5b7f4e756c6c6966696572206861736820616c726561647920657869737473000000600082015250565b6000610cce601d83610b5a565b9150610cd982610c98565b602082019050919050565b60006020820190508181036000830152610cfd81610cc1565b9050919050565b82818337505050565b610d1960408383610d04565b5050565b600060029050919050565b600081905092915050565b6000819050919050565b610d4960408383610d04565b5050565b6000610d598383610d3d565b60408301905092915050565b600082905092915050565b6000604082019050919050565b610d8681610d1d565b610d908184610d28565b9250610d9b82610d33565b8060005b83811015610dd457610db18284610d65565b610dbb8782610d4d565b9650610dc683610d70565b925050600181019050610d9f565b505050505050565b600060029050919050565b600081905092915050565b6000819050919050565b610e05816109f4565b82525050565b6000610e178383610dfc565b60208301905092915050565b6000602082019050919050565b610e3981610ddc565b610e438184610de7565b9250610e4e82610df2565b8060005b83811015610e7f578151610e668782610e0b565b9650610e7183610e23565b925050600181019050610e52565b505050505050565b600061014082019050610e9d6000830187610d0d565b610eaa6040830186610d7d565b610eb760c0830185610d0d565b610ec5610100830184610e30565b95945050505050565b600081519050919050565b600081905092915050565b60005b83811015610f02578082015181840152602081019050610ee7565b60008484015250505050565b6000610f1982610ece565b610f238185610ed9565b9350610f33818560208601610ee4565b80840191505092915050565b6000610f4b8284610f0e565b915081905092915050565b7f496e76616c69642070726f6f6600000000000000000000000000000000000000600082015250565b6000610f8c600d83610b5a565b9150610f9782610f56565b602082019050919050565b60006020820190508181036000830152610fbb81610f7f565b9050919050565b50565b6000610fd2600083610ed9565b9150610fdd82610fc2565b600082019050919050565b6000610ff382610fc5565b9150819050919050565b7f4661696c656420746f2073656e642066756e6473000000000000000000000000600082015250565b6000611033601483610b5a565b915061103e82610ffd565b602082019050919050565b6000602082019050818103600083015261106281611026565b9050919050565b7f4e487b7100000000000000000000000000000000000000000000000000000000600052601160045260246000fd5b60006110a3826109f4565b91506110ae836109f4565b92508282019050808211156110c6576110c5611069565b5b92915050565b7f496e76616c6964206465706f73697420616d6f756e7400000000000000000000600082015250565b6000611102601683610b5a565b915061110d826110cc565b602082019050919050565b60006020820190508181036000830152611131816110f5565b9050919050565b7f436f6d6d69746d656e7420616c72656164792065786973747300000000000000600082015250565b600061116e601983610b5a565b915061117982611138565b602082019050919050565b6000602082019050818103600083015261119d81611161565b9050919050565b60008160011c9050919050565b6000808291508390505b60018511156111fb578086048111156111d7576111d6611069565b5b60018516156111e65780820291505b80810290506111f4856111a4565b94506111bb565b94509492505050565b60008261121457600190506112d0565b8161122257600090506112d0565b8160018114611238576002811461124257611271565b60019150506112d0565b60ff84111561125457611253611069565b5b8360020a91508482111561126b5761126a611069565b5b506112d0565b5060208310610133831016604e8410600b84101617156112a65782820a9050838111156112a1576112a0611069565b5b6112d0565b6112b384848460016111b1565b925090508184048111156112ca576112c9611069565b5b81810290505b9392505050565b600060ff82169050919050565b60006112ef826109f4565b91506112fa836112d7565b92506113277fffffffffffffffffffffffffffffffffffffffffffffffffffffffffffffffff8484611204565b905092915050565b7f547265652069732066756c6c0000000000000000000000000000000000000000600082015250565b6000611365600c83610b5a565b91506113708261132f565b602082019050919050565b6000602082019050818103600083015261139481611358565b9050919050565b7f4e487b7100000000000000000000000000000000000000000000000000000000600052601260045260246000fd5b60006113d5826109f4565b91506113e0836109f4565b9250826113f0576113ef61139b565b5b828206905092915050565b60006060820190506114106000830185610e30565b61141d60408301846109fe565b9392505050565b60008151905061143381610a2d565b92915050565b60006020828403121561144f5761144e610a28565b5b600061145d84828501611424565b91505092915050565b6000611471826109f4565b915061147c836109f4565b92508261148c5761148b61139b565b5b828204905092915050565b60006114a2826112d7565b915060ff82036114b5576114b4611069565b5b600182019050919050565b6000600a9050919050565b600081905092915050565b6000819050919050565b6000602082019050919050565b6114f6816114c0565b61150081846114cb565b925061150b826114d6565b8060005b8381101561153c5781516115238782610e0b565b965061152e836114e0565b92505060018101905061150f565b505050505050565b6000600a9050919050565b600081905092915050565b6000819050919050565b61156d816112d7565b82525050565b600061157f8383611564565b60208301905092915050565b6000602082019050919050565b6115a181611544565b6115ab818461154f565b92506115b68261155a565b8060005b838110156115e75781516115ce8782611573565b96506115d98361158b565b9250506001810190506115ba565b505050505050565b60006102a08201905061160560008301866109fe565b61161260208301856114ed565b611620610160830184611598565b94935050505056fea264697066735822122073a5f041f9ba7d67e6ce7b1474065a4ed7e7f712f432a9abd634216f0d3d62d764736f6c63430008140033",
          "opcodes": "PUSH1 0x80 PUSH1 0x40 MSTORE PUSH6 0x5AF3107A4000 PUSH1 0x4 SSTORE PUSH1 0xA PUSH1 0x5 PUSH1 0x14 PUSH2 0x100 EXP DUP2 SLOAD DUP2 PUSH1 0xFF MUL NOT AND SWAP1 DUP4 PUSH1 0xFF AND MUL OR SWAP1 SSTORE POP PUSH1 0x40 MLOAD DUP1 PUSH2 0x140 ADD PUSH1 0x40 MSTORE DUP1 PUSH32 0xDA70048A78EA262E7E52673EDF42CD03AAB854843AEA37A75CC187A4215E42AA DUP2 MSTORE PUSH1 0x20 ADD PUSH32 0xCE42A193851AB7EB183AF214CABDE108E98967CAE4C1807EDD1A3EECB565F78E DUP2 MSTORE PUSH1 0x20 ADD PUSH32 0x8001BDC085186237CC899529C2D234A6C8E8D53EF24079E87F818E7F813C07EF DUP2 MSTORE PUSH1 0x20 ADD PUSH32 0x3B5F53C4217EBA75893869078D3DB3B644CCE573D22B5DF2982A2DFFF5006E96 DUP2 MSTORE PUSH1 0x20 ADD PUSH32 0x6D5202467AF82A66BCABC732607986AFAD45290B8CC19B92DDAC7FF389F232DA DUP2 MSTORE PUSH1 0x20 ADD PUSH32 0x8D4472F54E79585A74777B790CB404F4499E3398A67351A4DC3BA873585E4E4E DUP2 MSTORE PUSH1 0x20 ADD PUSH32 0xD22075A40D568B57BBA3BD523A3D01C59980830874CC3AF8635A5B463089C56C DUP2 MSTORE PUSH1 0x20 ADD PUSH32 0x6E0FFCC8E87DBAD6E5D38B8D759AF751481BA32876EFE28F6CFCBE3521CF64C1 DUP2 MSTORE PUSH1 0x20 ADD PUSH32 0x7E62E40FEC32A60107BD998A724CDE7C5904961A96CF5C35F75D099B9224B3AD DUP2 MSTORE PUSH1 0x20 ADD PUSH32 0xFD87AA8EE2B8E2842A020F34668C0BB6398B5164A76BB9F8793CE307AEF7B59C DUP2 MSTORE POP PUSH1 0xA SWAP1 PUSH1 0xA PUSH3 0x1C2 SWAP3 SWAP2 SWAP1 PUSH3 0x2D1 JUMP JUMPDEST POP CALLVALUE DUP1 ISZERO PUSH3 0x1D0 JUMPI PUSH1 0x0 DUP1 REVERT JUMPDEST POP PUSH1 0x40 MLOAD PUSH3 0x1AA4 CODESIZE SUB DUP1 PUSH3 0x1AA4 DUP4 CODECOPY DUP2 DUP2 ADD PUSH1 0x40 MSTORE DUP2 ADD SWAP1 PUSH3 0x1F6 SWAP2 SWAP1 PUSH3 0x3DA JUMP JUMPDEST PUSH1 0x1 PUSH1 0x0 DUP2 SWAP1 SSTORE POP DUP3 PUSH1 0x5 PUSH1 0x0 PUSH2 0x100 EXP DUP2 SLOAD DUP2 PUSH20 0xFFFFFFFFFFFFFFFFFFFFFFFFFFFFFFFFFFFFFFFF MUL NOT AND SWAP1 DUP4 PUSH20 0xFFFFFFFFFFFFFFFFFFFFFFFFFFFFFFFFFFFFFFFF AND MUL OR SWAP1 SSTORE POP DUP2 PUSH1 0x1 PUSH1 0x0 PUSH2 0x100 EXP DUP2 SLOAD DUP2 PUSH20 0xFFFFFFFFFFFFFFFFFFFFFFFFFFFFFFFFFFFFFFFF MUL NOT AND SWAP1 DUP4 PUSH20 0xFFFFFFFFFFFFFFFFFFFFFFFFFFFFFFFFFFFFFFFF AND MUL OR SWAP1 SSTORE POP DUP1 PUSH1 0x3 DUP2 SWAP1 SSTORE POP CALLER PUSH1 0x2 PUSH1 0x0 PUSH2 0x100 EXP DUP2 SLOAD DUP2 PUSH20 0xFFFFFFFFFFFFFFFFFFFFFFFFFFFFFFFFFFFFFFFF MUL NOT AND SWAP1 DUP4 PUSH20 0xFFFFFFFFFFFFFFFFFFFFFFFFFFFFFFFFFFFFFFFF AND MUL OR SWAP1 SSTORE POP POP POP POP PUSH3 0x436 JUMP JUMPDEST DUP3 PUSH1 0xA DUP2 ADD SWAP3 DUP3 ISZERO PUSH3 0x303 JUMPI SWAP2 PUSH1 0x20 MUL DUP3 ADD JUMPDEST DUP3 DUP2 GT ISZERO PUSH3 0x302 JUMPI DUP3 MLOAD DUP3 SSTORE SWAP2 PUSH1 0x20 ADD SWAP2 SWAP1 PUSH1 0x1 ADD SWAP1 PUSH3 0x2E5 JUMP JUMPDEST JUMPDEST POP SWAP1 POP PUSH3 0x312 SWAP2 SWAP1 PUSH3 0x316 JUMP JUMPDEST POP SWAP1 JUMP JUMPDEST JUMPDEST DUP1 DUP3 GT ISZERO PUSH3 0x331 JUMPI PUSH1 0x0 DUP2 PUSH1 0x0 SWAP1 SSTORE POP PUSH1 0x1 ADD PUSH3 0x317 JUMP JUMPDEST POP SWAP1 JUMP JUMPDEST PUSH1 0x0 DUP1 REVERT JUMPDEST PUSH1 0x0 PUSH20 0xFFFFFFFFFFFFFFFFFFFFFFFFFFFFFFFFFFFFFFFF DUP3 AND SWAP1 POP SWAP2 SWAP1 POP JUMP JUMPDEST PUSH1 0x0 PUSH3 0x367 DUP3 PUSH3 0x33A JUMP JUMPDEST SWAP1 POP SWAP2 SWAP1 POP JUMP JUMPDEST PUSH3 0x379 DUP2 PUSH3 0x35A JUMP JUMPDEST DUP2 EQ PUSH3 0x385 JUMPI PUSH1 0x0 DUP1 REVERT JUMPDEST POP JUMP JUMPDEST PUSH1 0x0 DUP2 MLOAD SWAP1 POP PUSH3 0x399 DUP2 PUSH3 0x36E JUMP JUMPDEST SWAP3 SWAP2 POP POP JUMP JUMPDEST PUSH1 0x0 DUP2 SWAP1 POP SWAP2 SWAP1 POP JUMP JUMPDEST PUSH3 0x3B4 DUP2 PUSH3 0x39F JUMP JUMPDEST DUP2 EQ PUSH3 0x3C0 JUMPI PUSH1 0x0 DUP1 REVERT JUMPDEST POP JUMP JUMPDEST PUSH1 0x0 DUP2 MLOAD SWAP1 POP PUSH3 0x3D4 DUP2 PUSH3 0x3A9 JUMP JUMPDEST SWAP3 SWAP2 POP POP JUMP JUMPDEST PUSH1 0x0 DUP1 PUSH1 0x0 PUSH1 0x60 DUP5 DUP7 SUB SLT ISZERO PUSH3 0x3F6 JUMPI PUSH3 0x3F5 PUSH3 0x335 JUMP JUMPDEST JUMPDEST PUSH1 0x0 PUSH3 0x406 DUP7 DUP3 DUP8 ADD PUSH3 0x388 JUMP JUMPDEST SWAP4 POP POP PUSH1 0x20 PUSH3 0x419 DUP7 DUP3 DUP8 ADD PUSH3 0x388 JUMP JUMPDEST SWAP3 POP POP PUSH1 0x40 PUSH3 0x42C DUP7 DUP3 DUP8 ADD PUSH3 0x3C3 JUMP JUMPDEST SWAP2 POP POP SWAP3 POP SWAP3 POP SWAP3 JUMP JUMPDEST PUSH2 0x165E DUP1 PUSH3 0x446 PUSH1 0x0 CODECOPY PUSH1 0x0 RETURN INVALID PUSH1 0x80 PUSH1 0x40 MSTORE PUSH1 0x4 CALLDATASIZE LT PUSH2 0x55 JUMPI PUSH1 0x0 CALLDATALOAD PUSH1 0xE0 SHR DUP1 PUSH4 0xBE4F422 EQ PUSH2 0x5A JUMPI DUP1 PUSH4 0x3D18678E EQ PUSH2 0x85 JUMPI DUP1 PUSH4 0x419759F5 EQ PUSH2 0xAE JUMPI DUP1 PUSH4 0x768EA39D EQ PUSH2 0xD9 JUMPI DUP1 PUSH4 0x9AF1D35A EQ PUSH2 0x102 JUMPI DUP1 PUSH4 0xB6B55F25 EQ PUSH2 0x12D JUMPI JUMPDEST PUSH1 0x0 DUP1 REVERT JUMPDEST CALLVALUE DUP1 ISZERO PUSH2 0x66 JUMPI PUSH1 0x0 DUP1 REVERT JUMPDEST POP PUSH2 0x6F PUSH2 0x149 JUMP JUMPDEST PUSH1 0x40 MLOAD PUSH2 0x7C SWAP2 SWAP1 PUSH2 0xA0D JUMP JUMPDEST PUSH1 0x40 MLOAD DUP1 SWAP2 SUB SWAP1 RETURN JUMPDEST CALLVALUE DUP1 ISZERO PUSH2 0x91 JUMPI PUSH1 0x0 DUP1 REVERT JUMPDEST POP PUSH2 0xAC PUSH1 0x4 DUP1 CALLDATASIZE SUB DUP2 ADD SWAP1 PUSH2 0xA7 SWAP2 SWAP1 PUSH2 0xA59 JUMP JUMPDEST PUSH2 0x14F JUMP JUMPDEST STOP JUMPDEST CALLVALUE DUP1 ISZERO PUSH2 0xBA JUMPI PUSH1 0x0 DUP1 REVERT JUMPDEST POP PUSH2 0xC3 PUSH2 0x1E9 JUMP JUMPDEST PUSH1 0x40 MLOAD PUSH2 0xD0 SWAP2 SWAP1 PUSH2 0xA0D JUMP JUMPDEST PUSH1 0x40 MLOAD DUP1 SWAP2 SUB SWAP1 RETURN JUMPDEST CALLVALUE DUP1 ISZERO PUSH2 0xE5 JUMPI PUSH1 0x0 DUP1 REVERT JUMPDEST POP PUSH2 0x100 PUSH1 0x4 DUP1 CALLDATASIZE SUB DUP2 ADD SWAP1 PUSH2 0xFB SWAP2 SWAP1 PUSH2 0xAF1 JUMP JUMPDEST PUSH2 0x1EF JUMP JUMPDEST STOP JUMPDEST CALLVALUE DUP1 ISZERO PUSH2 0x10E JUMPI PUSH1 0x0 DUP1 REVERT JUMPDEST POP PUSH2 0x117 PUSH2 0x4F5 JUMP JUMPDEST PUSH1 0x40 MLOAD PUSH2 0x124 SWAP2 SWAP1 PUSH2 0xA0D JUMP JUMPDEST PUSH1 0x40 MLOAD DUP1 SWAP2 SUB SWAP1 RETURN JUMPDEST PUSH2 0x147 PUSH1 0x4 DUP1 CALLDATASIZE SUB DUP2 ADD SWAP1 PUSH2 0x142 SWAP2 SWAP1 PUSH2 0xA59 JUMP JUMPDEST PUSH2 0x4FB JUMP JUMPDEST STOP JUMPDEST PUSH1 0x6 SLOAD DUP2 JUMP JUMPDEST PUSH1 0x2 PUSH1 0x0 SWAP1 SLOAD SWAP1 PUSH2 0x100 EXP SWAP1 DIV PUSH20 0xFFFFFFFFFFFFFFFFFFFFFFFFFFFFFFFFFFFFFFFF AND PUSH20 0xFFFFFFFFFFFFFFFFFFFFFFFFFFFFFFFFFFFFFFFF AND CALLER PUSH20 0xFFFFFFFFFFFFFFFFFFFFFFFFFFFFFFFFFFFFFFFF AND EQ PUSH2 0x1DF JUMPI PUSH1 0x40 MLOAD PUSH32 0x8C379A000000000000000000000000000000000000000000000000000000000 DUP2 MSTORE PUSH1 0x4 ADD PUSH2 0x1D6 SWAP1 PUSH2 0xBDD JUMP JUMPDEST PUSH1 0x40 MLOAD DUP1 SWAP2 SUB SWAP1 REVERT JUMPDEST DUP1 PUSH1 0x4 DUP2 SWAP1 SSTORE POP POP JUMP JUMPDEST PUSH1 0x3 SLOAD DUP2 JUMP JUMPDEST PUSH1 0x3 SLOAD SELFBALANCE LT ISZERO PUSH2 0x234 JUMPI PUSH1 0x40 MLOAD PUSH32 0x8C379A000000000000000000000000000000000000000000000000000000000 DUP2 MSTORE PUSH1 0x4 ADD PUSH2 0x22B SWAP1 PUSH2 0xC49 JUMP JUMPDEST PUSH1 0x40 MLOAD DUP1 SWAP2 SUB SWAP1 REVERT JUMPDEST PUSH1 0x0 DUP2 PUSH1 0x0 PUSH1 0x1 DUP2 LT PUSH2 0x24A JUMPI PUSH2 0x249 PUSH2 0xC69 JUMP JUMPDEST JUMPDEST PUSH1 0x20 MUL ADD CALLDATALOAD SWAP1 POP PUSH1 0x8 PUSH1 0x0 DUP3 DUP2 MSTORE PUSH1 0x20 ADD SWAP1 DUP2 MSTORE PUSH1 0x20 ADD PUSH1 0x0 KECCAK256 PUSH1 0x0 SWAP1 SLOAD SWAP1 PUSH2 0x100 EXP SWAP1 DIV PUSH1 0xFF AND ISZERO PUSH2 0x2B2 JUMPI PUSH1 0x40 MLOAD PUSH32 0x8C379A000000000000000000000000000000000000000000000000000000000 DUP2 MSTORE PUSH1 0x4 ADD PUSH2 0x2A9 SWAP1 PUSH2 0xCE4 JUMP JUMPDEST PUSH1 0x40 MLOAD DUP1 SWAP2 SUB SWAP1 REVERT JUMPDEST PUSH1 0x0 CALLER PUSH20 0xFFFFFFFFFFFFFFFFFFFFFFFFFFFFFFFFFFFFFFFF AND SWAP1 POP PUSH1 0x0 PUSH1 0x1 PUSH1 0x0 SWAP1 SLOAD SWAP1 PUSH2 0x100 EXP SWAP1 DIV PUSH20 0xFFFFFFFFFFFFFFFFFFFFFFFFFFFFFFFFFFFFFFFF AND PUSH20 0xFFFFFFFFFFFFFFFFFFFFFFFFFFFFFFFFFFFFFFFF AND DUP8 DUP8 DUP8 PUSH1 0x40 MLOAD DUP1 PUSH1 0x40 ADD PUSH1 0x40 MSTORE DUP1 DUP9 DUP2 MSTORE PUSH1 0x20 ADD DUP8 DUP2 MSTORE POP PUSH1 0x40 MLOAD PUSH1 0x24 ADD PUSH2 0x333 SWAP5 SWAP4 SWAP3 SWAP2 SWAP1 PUSH2 0xE87 JUMP JUMPDEST PUSH1 0x40 MLOAD PUSH1 0x20 DUP2 DUP4 SUB SUB DUP2 MSTORE SWAP1 PUSH1 0x40 MSTORE PUSH4 0xF5C9D69E PUSH1 0xE0 SHL PUSH1 0x20 DUP3 ADD DUP1 MLOAD PUSH28 0xFFFFFFFFFFFFFFFFFFFFFFFFFFFFFFFFFFFFFFFFFFFFFFFFFFFFFFFF DUP4 DUP2 DUP4 AND OR DUP4 MSTORE POP POP POP POP PUSH1 0x40 MLOAD PUSH2 0x385 SWAP2 SWAP1 PUSH2 0xF3F JUMP JUMPDEST PUSH1 0x0 PUSH1 0x40 MLOAD DUP1 DUP4 SUB DUP2 PUSH1 0x0 DUP7 GAS CALL SWAP2 POP POP RETURNDATASIZE DUP1 PUSH1 0x0 DUP2 EQ PUSH2 0x3C2 JUMPI PUSH1 0x40 MLOAD SWAP2 POP PUSH1 0x1F NOT PUSH1 0x3F RETURNDATASIZE ADD AND DUP3 ADD PUSH1 0x40 MSTORE RETURNDATASIZE DUP3 MSTORE RETURNDATASIZE PUSH1 0x0 PUSH1 0x20 DUP5 ADD RETURNDATACOPY PUSH2 0x3C7 JUMP JUMPDEST PUSH1 0x60 SWAP2 POP JUMPDEST POP POP SWAP1 POP DUP1 PUSH2 0x40B JUMPI PUSH1 0x40 MLOAD PUSH32 0x8C379A000000000000000000000000000000000000000000000000000000000 DUP2 MSTORE PUSH1 0x4 ADD PUSH2 0x402 SWAP1 PUSH2 0xFA2 JUMP JUMPDEST PUSH1 0x40 MLOAD DUP1 SWAP2 SUB SWAP1 REVERT JUMPDEST PUSH1 0x1 PUSH1 0x8 PUSH1 0x0 DUP6 DUP2 MSTORE PUSH1 0x20 ADD SWAP1 DUP2 MSTORE PUSH1 0x20 ADD PUSH1 0x0 KECCAK256 PUSH1 0x0 PUSH2 0x100 EXP DUP2 SLOAD DUP2 PUSH1 0xFF MUL NOT AND SWAP1 DUP4 ISZERO ISZERO MUL OR SWAP1 SSTORE POP PUSH1 0x0 CALLER SWAP1 POP PUSH1 0x0 DUP2 PUSH20 0xFFFFFFFFFFFFFFFFFFFFFFFFFFFFFFFFFFFFFFFF AND PUSH1 0x3 SLOAD PUSH1 0x40 MLOAD PUSH2 0x464 SWAP1 PUSH2 0xFE8 JUMP JUMPDEST PUSH1 0x0 PUSH1 0x40 MLOAD DUP1 DUP4 SUB DUP2 DUP6 DUP8 GAS CALL SWAP3 POP POP POP RETURNDATASIZE DUP1 PUSH1 0x0 DUP2 EQ PUSH2 0x4A1 JUMPI PUSH1 0x40 MLOAD SWAP2 POP PUSH1 0x1F NOT PUSH1 0x3F RETURNDATASIZE ADD AND DUP3 ADD PUSH1 0x40 MSTORE RETURNDATASIZE DUP3 MSTORE RETURNDATASIZE PUSH1 0x0 PUSH1 0x20 DUP5 ADD RETURNDATACOPY PUSH2 0x4A6 JUMP JUMPDEST PUSH1 0x60 SWAP2 POP JUMPDEST POP POP SWAP1 POP DUP1 PUSH2 0x4EA JUMPI PUSH1 0x40 MLOAD PUSH32 0x8C379A000000000000000000000000000000000000000000000000000000000 DUP2 MSTORE PUSH1 0x4 ADD PUSH2 0x4E1 SWAP1 PUSH2 0x1049 JUMP JUMPDEST PUSH1 0x40 MLOAD DUP1 SWAP2 SUB SWAP1 REVERT JUMPDEST POP POP POP POP POP POP POP POP POP JUMP JUMPDEST PUSH1 0x4 SLOAD DUP2 JUMP JUMPDEST PUSH2 0x503 PUSH2 0x93C JUMP JUMPDEST PUSH1 0x0 PUSH1 0x4 SLOAD PUSH1 0x3 SLOAD PUSH2 0x515 SWAP2 SWAP1 PUSH2 0x1098 JUMP JUMPDEST SWAP1 POP DUP1 CALLVALUE EQ PUSH2 0x559 JUMPI PUSH1 0x40 MLOAD PUSH32 0x8C379A000000000000000000000000000000000000000000000000000000000 DUP2 MSTORE PUSH1 0x4 ADD PUSH2 0x550 SWAP1 PUSH2 0x1118 JUMP JUMPDEST PUSH1 0x40 MLOAD DUP1 SWAP2 SUB SWAP1 REVERT JUMPDEST PUSH1 0x9 PUSH1 0x0 DUP4 DUP2 MSTORE PUSH1 0x20 ADD SWAP1 DUP2 MSTORE PUSH1 0x20 ADD PUSH1 0x0 KECCAK256 PUSH1 0x0 SWAP1 SLOAD SWAP1 PUSH2 0x100 EXP SWAP1 DIV PUSH1 0xFF AND ISZERO PUSH2 0x5BA JUMPI PUSH1 0x40 MLOAD PUSH32 0x8C379A000000000000000000000000000000000000000000000000000000000 DUP2 MSTORE PUSH1 0x4 ADD PUSH2 0x5B1 SWAP1 PUSH2 0x1184 JUMP JUMPDEST PUSH1 0x40 MLOAD DUP1 SWAP2 SUB SWAP1 REVERT JUMPDEST PUSH1 0x5 PUSH1 0x14 SWAP1 SLOAD SWAP1 PUSH2 0x100 EXP SWAP1 DIV PUSH1 0xFF AND PUSH1 0x2 PUSH2 0x5D6 SWAP2 SWAP1 PUSH2 0x12E4 JUMP JUMPDEST PUSH1 0x6 SLOAD LT PUSH2 0x619 JUMPI PUSH1 0x40 MLOAD PUSH32 0x8C379A000000000000000000000000000000000000000000000000000000000 DUP2 MSTORE PUSH1 0x4 ADD PUSH2 0x610 SWAP1 PUSH2 0x137B JUMP JUMPDEST PUSH1 0x40 MLOAD DUP1 SWAP2 SUB SWAP1 REVERT JUMPDEST PUSH1 0x0 PUSH2 0x623 PUSH2 0x98C JUMP JUMPDEST PUSH2 0x62B PUSH2 0x9AF JUMP JUMPDEST PUSH1 0x0 PUSH1 0x6 SLOAD SWAP1 POP PUSH1 0x0 DUP7 SWAP1 POP PUSH1 0x0 DUP1 PUSH2 0x642 PUSH2 0x9D2 JUMP JUMPDEST PUSH1 0x0 JUMPDEST PUSH1 0x5 PUSH1 0x14 SWAP1 SLOAD SWAP1 PUSH2 0x100 EXP SWAP1 DIV PUSH1 0xFF AND PUSH1 0xFF AND DUP2 PUSH1 0xFF AND LT ISZERO PUSH2 0x8A3 JUMPI PUSH1 0x0 PUSH1 0x2 DUP8 PUSH2 0x671 SWAP2 SWAP1 PUSH2 0x13CA JUMP JUMPDEST SUB PUSH2 0x6FA JUMPI DUP5 SWAP4 POP PUSH1 0xA DUP2 PUSH1 0xFF AND PUSH1 0xA DUP2 LT PUSH2 0x690 JUMPI PUSH2 0x68F PUSH2 0xC69 JUMP JUMPDEST JUMPDEST ADD SLOAD SWAP3 POP PUSH1 0xA DUP2 PUSH1 0xFF AND PUSH1 0xA DUP2 LT PUSH2 0x6AB JUMPI PUSH2 0x6AA PUSH2 0xC69 JUMP JUMPDEST JUMPDEST ADD SLOAD DUP9 DUP3 PUSH1 0xFF AND PUSH1 0xA DUP2 LT PUSH2 0x6C3 JUMPI PUSH2 0x6C2 PUSH2 0xC69 JUMP JUMPDEST JUMPDEST PUSH1 0x20 MUL ADD DUP2 DUP2 MSTORE POP POP PUSH1 0x0 DUP8 DUP3 PUSH1 0xFF AND PUSH1 0xA DUP2 LT PUSH2 0x6E4 JUMPI PUSH2 0x6E3 PUSH2 0xC69 JUMP JUMPDEST JUMPDEST PUSH1 0x20 MUL ADD SWAP1 PUSH1 0xFF AND SWAP1 DUP2 PUSH1 0xFF AND DUP2 MSTORE POP POP PUSH2 0x77C JUMP JUMPDEST PUSH1 0x7 PUSH1 0x0 DUP3 PUSH1 0xFF AND PUSH1 0xFF AND DUP2 MSTORE PUSH1 0x20 ADD SWAP1 DUP2 MSTORE PUSH1 0x20 ADD PUSH1 0x0 KECCAK256 SLOAD SWAP4 POP DUP5 SWAP3 POP PUSH1 0x7 PUSH1 0x0 DUP3 PUSH1 0xFF AND PUSH1 0xFF AND DUP2 MSTORE PUSH1 0x20 ADD SWAP1 DUP2 MSTORE PUSH1 0x20 ADD PUSH1 0x0 KECCAK256 SLOAD DUP9 DUP3 PUSH1 0xFF AND PUSH1 0xA DUP2 LT PUSH2 0x749 JUMPI PUSH2 0x748 PUSH2 0xC69 JUMP JUMPDEST JUMPDEST PUSH1 0x20 MUL ADD DUP2 DUP2 MSTORE POP POP PUSH1 0x1 DUP8 DUP3 PUSH1 0xFF AND PUSH1 0xA DUP2 LT PUSH2 0x76A JUMPI PUSH2 0x769 PUSH2 0xC69 JUMP JUMPDEST JUMPDEST PUSH1 0x20 MUL ADD SWAP1 PUSH1 0xFF AND SWAP1 DUP2 PUSH1 0xFF AND DUP2 MSTORE POP POP JUMPDEST DUP5 PUSH1 0x7 PUSH1 0x0 DUP4 PUSH1 0xFF AND PUSH1 0xFF AND DUP2 MSTORE PUSH1 0x20 ADD SWAP1 DUP2 MSTORE PUSH1 0x20 ADD PUSH1 0x0 KECCAK256 DUP2 SWAP1 SSTORE POP DUP4 DUP3 PUSH1 0x0 PUSH1 0x2 DUP2 LT PUSH2 0x7AF JUMPI PUSH2 0x7AE PUSH2 0xC69 JUMP JUMPDEST JUMPDEST PUSH1 0x20 MUL ADD DUP2 DUP2 MSTORE POP POP DUP3 DUP3 PUSH1 0x1 PUSH1 0x2 DUP2 LT PUSH2 0x7CD JUMPI PUSH2 0x7CC PUSH2 0xC69 JUMP JUMPDEST JUMPDEST PUSH1 0x20 MUL ADD DUP2 DUP2 MSTORE POP POP PUSH1 0x0 PUSH1 0x5 PUSH1 0x0 SWAP1 SLOAD SWAP1 PUSH2 0x100 EXP SWAP1 DIV PUSH20 0xFFFFFFFFFFFFFFFFFFFFFFFFFFFFFFFFFFFFFFFF AND PUSH20 0xFFFFFFFFFFFFFFFFFFFFFFFFFFFFFFFFFFFFFFFF AND PUSH4 0xD622E5A4 PUSH3 0x249F0 DUP6 DUP16 PUSH1 0x40 MLOAD DUP5 PUSH4 0xFFFFFFFF AND PUSH1 0xE0 SHL DUP2 MSTORE PUSH1 0x4 ADD PUSH2 0x839 SWAP3 SWAP2 SWAP1 PUSH2 0x13FB JUMP JUMPDEST PUSH1 0x20 PUSH1 0x40 MLOAD DUP1 DUP4 SUB DUP2 DUP8 DUP7 STATICCALL ISZERO DUP1 ISZERO PUSH2 0x856 JUMPI RETURNDATASIZE PUSH1 0x0 DUP1 RETURNDATACOPY RETURNDATASIZE PUSH1 0x0 REVERT JUMPDEST POP POP POP POP POP PUSH1 0x40 MLOAD RETURNDATASIZE PUSH1 0x1F NOT PUSH1 0x1F DUP3 ADD AND DUP3 ADD DUP1 PUSH1 0x40 MSTORE POP DUP2 ADD SWAP1 PUSH2 0x87B SWAP2 SWAP1 PUSH2 0x1439 JUMP JUMPDEST SWAP1 POP DUP1 SWAP6 POP PUSH1 0x2 DUP8 PUSH2 0x88D SWAP2 SWAP1 PUSH2 0x1466 JUMP JUMPDEST SWAP7 POP POP DUP1 DUP1 PUSH2 0x89B SWAP1 PUSH2 0x1497 JUMP JUMPDEST SWAP2 POP POP PUSH2 0x645 JUMP JUMPDEST POP DUP4 SWAP8 POP PUSH1 0x1 PUSH1 0x6 PUSH1 0x0 DUP3 DUP3 SLOAD PUSH2 0x8BA SWAP2 SWAP1 PUSH2 0x1098 JUMP JUMPDEST SWAP3 POP POP DUP2 SWAP1 SSTORE POP PUSH1 0x1 PUSH1 0x9 PUSH1 0x0 DUP13 DUP2 MSTORE PUSH1 0x20 ADD SWAP1 DUP2 MSTORE PUSH1 0x20 ADD PUSH1 0x0 KECCAK256 PUSH1 0x0 PUSH2 0x100 EXP DUP2 SLOAD DUP2 PUSH1 0xFF MUL NOT AND SWAP1 DUP4 ISZERO ISZERO MUL OR SWAP1 SSTORE POP PUSH32 0xE6AB8667CB740D6C65A4AD321C031EB42F6C5085D5753238D1B2E1E370C13483 DUP9 DUP9 DUP9 PUSH1 0x40 MLOAD PUSH2 0x920 SWAP4 SWAP3 SWAP2 SWAP1 PUSH2 0x15EF JUMP JUMPDEST PUSH1 0x40 MLOAD DUP1 SWAP2 SUB SWAP1 LOG1 POP POP POP POP POP POP POP POP POP PUSH2 0x939 PUSH2 0x982 JUMP JUMPDEST POP JUMP JUMPDEST PUSH1 0x2 PUSH1 0x0 SLOAD SUB PUSH2 0x978 JUMPI PUSH1 0x40 MLOAD PUSH32 0x3EE5AEB500000000000000000000000000000000000000000000000000000000 DUP2 MSTORE PUSH1 0x4 ADD PUSH1 0x40 MLOAD DUP1 SWAP2 SUB SWAP1 REVERT JUMPDEST PUSH1 0x2 PUSH1 0x0 DUP2 SWAP1 SSTORE POP JUMP JUMPDEST PUSH1 0x1 PUSH1 0x0 DUP2 SWAP1 SSTORE POP JUMP JUMPDEST PUSH1 0x40 MLOAD DUP1 PUSH2 0x140 ADD PUSH1 0x40 MSTORE DUP1 PUSH1 0xA SWAP1 PUSH1 0x20 DUP3 MUL DUP1 CALLDATASIZE DUP4 CALLDATACOPY DUP1 DUP3 ADD SWAP2 POP POP SWAP1 POP POP SWAP1 JUMP JUMPDEST PUSH1 0x40 MLOAD DUP1 PUSH2 0x140 ADD PUSH1 0x40 MSTORE DUP1 PUSH1 0xA SWAP1 PUSH1 0x20 DUP3 MUL DUP1 CALLDATASIZE DUP4 CALLDATACOPY DUP1 DUP3 ADD SWAP2 POP POP SWAP1 POP POP SWAP1 JUMP JUMPDEST PUSH1 0x40 MLOAD DUP1 PUSH1 0x40 ADD PUSH1 0x40 MSTORE DUP1 PUSH1 0x2 SWAP1 PUSH1 0x20 DUP3 MUL DUP1 CALLDATASIZE DUP4 CALLDATACOPY DUP1 DUP3 ADD SWAP2 POP POP SWAP1 POP POP SWAP1 JUMP JUMPDEST PUSH1 0x0 DUP2 SWAP1 POP SWAP2 SWAP1 POP JUMP JUMPDEST PUSH2 0xA07 DUP2 PUSH2 0x9F4 JUMP JUMPDEST DUP3 MSTORE POP POP JUMP JUMPDEST PUSH1 0x0 PUSH1 0x20 DUP3 ADD SWAP1 POP PUSH2 0xA22 PUSH1 0x0 DUP4 ADD DUP5 PUSH2 0x9FE JUMP JUMPDEST SWAP3 SWAP2 POP POP JUMP JUMPDEST PUSH1 0x0 DUP1 REVERT JUMPDEST PUSH2 0xA36 DUP2 PUSH2 0x9F4 JUMP JUMPDEST DUP2 EQ PUSH2 0xA41 JUMPI PUSH1 0x0 DUP1 REVERT JUMPDEST POP JUMP JUMPDEST PUSH1 0x0 DUP2 CALLDATALOAD SWAP1 POP PUSH2 0xA53 DUP2 PUSH2 0xA2D JUMP JUMPDEST SWAP3 SWAP2 POP POP JUMP JUMPDEST PUSH1 0x0 PUSH1 0x20 DUP3 DUP5 SUB SLT ISZERO PUSH2 0xA6F JUMPI PUSH2 0xA6E PUSH2 0xA28 JUMP JUMPDEST JUMPDEST PUSH1 0x0 PUSH2 0xA7D DUP5 DUP3 DUP6 ADD PUSH2 0xA44 JUMP JUMPDEST SWAP2 POP POP SWAP3 SWAP2 POP POP JUMP JUMPDEST PUSH1 0x0 DUP1 REVERT JUMPDEST PUSH1 0x0 DUP2 SWAP1 POP DUP3 PUSH1 0x20 PUSH1 0x2 MUL DUP3 ADD GT ISZERO PUSH2 0xAA7 JUMPI PUSH2 0xAA6 PUSH2 0xA86 JUMP JUMPDEST JUMPDEST SWAP3 SWAP2 POP POP JUMP JUMPDEST PUSH1 0x0 DUP2 SWAP1 POP DUP3 PUSH1 0x40 PUSH1 0x2 MUL DUP3 ADD GT ISZERO PUSH2 0xAC9 JUMPI PUSH2 0xAC8 PUSH2 0xA86 JUMP JUMPDEST JUMPDEST SWAP3 SWAP2 POP POP JUMP JUMPDEST PUSH1 0x0 DUP2 SWAP1 POP DUP3 PUSH1 0x20 PUSH1 0x1 MUL DUP3 ADD GT ISZERO PUSH2 0xAEB JUMPI PUSH2 0xAEA PUSH2 0xA86 JUMP JUMPDEST JUMPDEST SWAP3 SWAP2 POP POP JUMP JUMPDEST PUSH1 0x0 DUP1 PUSH1 0x0 DUP1 PUSH2 0x120 DUP6 DUP8 SUB SLT ISZERO PUSH2 0xB0C JUMPI PUSH2 0xB0B PUSH2 0xA28 JUMP JUMPDEST JUMPDEST PUSH1 0x0 PUSH2 0xB1A DUP8 DUP3 DUP9 ADD PUSH2 0xA8B JUMP JUMPDEST SWAP5 POP POP PUSH1 0x40 PUSH2 0xB2B DUP8 DUP3 DUP9 ADD PUSH2 0xAAD JUMP JUMPDEST SWAP4 POP POP PUSH1 0xC0 PUSH2 0xB3C DUP8 DUP3 DUP9 ADD PUSH2 0xA8B JUMP JUMPDEST SWAP3 POP POP PUSH2 0x100 PUSH2 0xB4E DUP8 DUP3 DUP9 ADD PUSH2 0xACF JUMP JUMPDEST SWAP2 POP POP SWAP3 SWAP6 SWAP2 SWAP5 POP SWAP3 POP JUMP JUMPDEST PUSH1 0x0 DUP3 DUP3 MSTORE PUSH1 0x20 DUP3 ADD SWAP1 POP SWAP3 SWAP2 POP POP JUMP JUMPDEST PUSH32 0x4F6E6C79206F776E65722063616E2063616C6C20746869732066756E6374696F PUSH1 0x0 DUP3 ADD MSTORE PUSH32 0x6E00000000000000000000000000000000000000000000000000000000000000 PUSH1 0x20 DUP3 ADD MSTORE POP JUMP JUMPDEST PUSH1 0x0 PUSH2 0xBC7 PUSH1 0x21 DUP4 PUSH2 0xB5A JUMP JUMPDEST SWAP2 POP PUSH2 0xBD2 DUP3 PUSH2 0xB6B JUMP JUMPDEST PUSH1 0x40 DUP3 ADD SWAP1 POP SWAP2 SWAP1 POP JUMP JUMPDEST PUSH1 0x0 PUSH1 0x20 DUP3 ADD SWAP1 POP DUP2 DUP2 SUB PUSH1 0x0 DUP4 ADD MSTORE PUSH2 0xBF6 DUP2 PUSH2 0xBBA JUMP JUMPDEST SWAP1 POP SWAP2 SWAP1 POP JUMP JUMPDEST PUSH32 0x496E73756666696369656E742062616C616E6365000000000000000000000000 PUSH1 0x0 DUP3 ADD MSTORE POP JUMP JUMPDEST PUSH1 0x0 PUSH2 0xC33 PUSH1 0x14 DUP4 PUSH2 0xB5A JUMP JUMPDEST SWAP2 POP PUSH2 0xC3E DUP3 PUSH2 0xBFD JUMP JUMPDEST PUSH1 0x20 DUP3 ADD SWAP1 POP SWAP2 SWAP1 POP JUMP JUMPDEST PUSH1 0x0 PUSH1 0x20 DUP3 ADD SWAP1 POP DUP2 DUP2 SUB PUSH1 0x0 DUP4 ADD MSTORE PUSH2 0xC62 DUP2 PUSH2 0xC26 JUMP JUMPDEST SWAP1 POP SWAP2 SWAP1 POP JUMP JUMPDEST PUSH32 0x4E487B7100000000000000000000000000000000000000000000000000000000 PUSH1 0x0 MSTORE PUSH1 0x32 PUSH1 0x4 MSTORE PUSH1 0x24 PUSH1 0x0 REVERT JUMPDEST PUSH32 0x4E756C6C6966696572206861736820616C726561647920657869737473000000 PUSH1 0x0 DUP3 ADD MSTORE POP JUMP JUMPDEST PUSH1 0x0 PUSH2 0xCCE PUSH1 0x1D DUP4 PUSH2 0xB5A JUMP JUMPDEST SWAP2 POP PUSH2 0xCD9 DUP3 PUSH2 0xC98 JUMP JUMPDEST PUSH1 0x20 DUP3 ADD SWAP1 POP SWAP2 SWAP1 POP JUMP JUMPDEST PUSH1 0x0 PUSH1 0x20 DUP3 ADD SWAP1 POP DUP2 DUP2 SUB PUSH1 0x0 DUP4 ADD MSTORE PUSH2 0xCFD DUP2 PUSH2 0xCC1 JUMP JUMPDEST SWAP1 POP SWAP2 SWAP1 POP JUMP JUMPDEST DUP3 DUP2 DUP4 CALLDATACOPY POP POP POP JUMP JUMPDEST PUSH2 0xD19 PUSH1 0x40 DUP4 DUP4 PUSH2 0xD04 JUMP JUMPDEST POP POP JUMP JUMPDEST PUSH1 0x0 PUSH1 0x2 SWAP1 POP SWAP2 SWAP1 POP JUMP JUMPDEST PUSH1 0x0 DUP2 SWAP1 POP SWAP3 SWAP2 POP POP JUMP JUMPDEST PUSH1 0x0 DUP2 SWAP1 POP SWAP2 SWAP1 POP JUMP JUMPDEST PUSH2 0xD49 PUSH1 0x40 DUP4 DUP4 PUSH2 0xD04 JUMP JUMPDEST POP POP JUMP JUMPDEST PUSH1 0x0 PUSH2 0xD59 DUP4 DUP4 PUSH2 0xD3D JUMP JUMPDEST PUSH1 0x40 DUP4 ADD SWAP1 POP SWAP3 SWAP2 POP POP JUMP JUMPDEST PUSH1 0x0 DUP3 SWAP1 POP SWAP3 SWAP2 POP POP JUMP JUMPDEST PUSH1 0x0 PUSH1 0x40 DUP3 ADD SWAP1 POP SWAP2 SWAP1 POP JUMP JUMPDEST PUSH2 0xD86 DUP2 PUSH2 0xD1D JUMP JUMPDEST PUSH2 0xD90 DUP2 DUP5 PUSH2 0xD28 JUMP JUMPDEST SWAP3 POP PUSH2 0xD9B DUP3 PUSH2 0xD33 JUMP JUMPDEST DUP1 PUSH1 0x0 JUMPDEST DUP4 DUP2 LT ISZERO PUSH2 0xDD4 JUMPI PUSH2 0xDB1 DUP3 DUP5 PUSH2 0xD65 JUMP JUMPDEST PUSH2 0xDBB DUP8 DUP3 PUSH2 0xD4D JUMP JUMPDEST SWAP7 POP PUSH2 0xDC6 DUP4 PUSH2 0xD70 JUMP JUMPDEST SWAP3 POP POP PUSH1 0x1 DUP2 ADD SWAP1 POP PUSH2 0xD9F JUMP JUMPDEST POP POP POP POP POP POP JUMP JUMPDEST PUSH1 0x0 PUSH1 0x2 SWAP1 POP SWAP2 SWAP1 POP JUMP JUMPDEST PUSH1 0x0 DUP2 SWAP1 POP SWAP3 SWAP2 POP POP JUMP JUMPDEST PUSH1 0x0 DUP2 SWAP1 POP SWAP2 SWAP1 POP JUMP JUMPDEST PUSH2 0xE05 DUP2 PUSH2 0x9F4 JUMP JUMPDEST DUP3 MSTORE POP POP JUMP JUMPDEST PUSH1 0x0 PUSH2 0xE17 DUP4 DUP4 PUSH2 0xDFC JUMP JUMPDEST PUSH1 0x20 DUP4 ADD SWAP1 POP SWAP3 SWAP2 POP POP JUMP JUMPDEST PUSH1 0x0 PUSH1 0x20 DUP3 ADD SWAP1 POP SWAP2 SWAP1 POP JUMP JUMPDEST PUSH2 0xE39 DUP2 PUSH2 0xDDC JUMP JUMPDEST PUSH2 0xE43 DUP2 DUP5 PUSH2 0xDE7 JUMP JUMPDEST SWAP3 POP PUSH2 0xE4E DUP3 PUSH2 0xDF2 JUMP JUMPDEST DUP1 PUSH1 0x0 JUMPDEST DUP4 DUP2 LT ISZERO PUSH2 0xE7F JUMPI DUP2 MLOAD PUSH2 0xE66 DUP8 DUP3 PUSH2 0xE0B JUMP JUMPDEST SWAP7 POP PUSH2 0xE71 DUP4 PUSH2 0xE23 JUMP JUMPDEST SWAP3 POP POP PUSH1 0x1 DUP2 ADD SWAP1 POP PUSH2 0xE52 JUMP JUMPDEST POP POP POP POP POP POP JUMP JUMPDEST PUSH1 0x0 PUSH2 0x140 DUP3 ADD SWAP1 POP PUSH2 0xE9D PUSH1 0x0 DUP4 ADD DUP8 PUSH2 0xD0D JUMP JUMPDEST PUSH2 0xEAA PUSH1 0x40 DUP4 ADD DUP7 PUSH2 0xD7D JUMP JUMPDEST PUSH2 0xEB7 PUSH1 0xC0 DUP4 ADD DUP6 PUSH2 0xD0D JUMP JUMPDEST PUSH2 0xEC5 PUSH2 0x100 DUP4 ADD DUP5 PUSH2 0xE30 JUMP JUMPDEST SWAP6 SWAP5 POP POP POP POP POP JUMP JUMPDEST PUSH1 0x0 DUP2 MLOAD SWAP1 POP SWAP2 SWAP1 POP JUMP JUMPDEST PUSH1 0x0 DUP2 SWAP1 POP SWAP3 SWAP2 POP POP JUMP JUMPDEST PUSH1 0x0 JUMPDEST DUP4 DUP2 LT ISZERO PUSH2 0xF02 JUMPI DUP1 DUP3 ADD MLOAD DUP2 DUP5 ADD MSTORE PUSH1 0x20 DUP2 ADD SWAP1 POP PUSH2 0xEE7 JUMP JUMPDEST PUSH1 0x0 DUP5 DUP5 ADD MSTORE POP POP POP POP JUMP JUMPDEST PUSH1 0x0 PUSH2 0xF19 DUP3 PUSH2 0xECE JUMP JUMPDEST PUSH2 0xF23 DUP2 DUP6 PUSH2 0xED9 JUMP JUMPDEST SWAP4 POP PUSH2 0xF33 DUP2 DUP6 PUSH1 0x20 DUP7 ADD PUSH2 0xEE4 JUMP JUMPDEST DUP1 DUP5 ADD SWAP2 POP POP SWAP3 SWAP2 POP POP JUMP JUMPDEST PUSH1 0x0 PUSH2 0xF4B DUP3 DUP5 PUSH2 0xF0E JUMP JUMPDEST SWAP2 POP DUP2 SWAP1 POP SWAP3 SWAP2 POP POP JUMP JUMPDEST PUSH32 0x496E76616C69642070726F6F6600000000000000000000000000000000000000 PUSH1 0x0 DUP3 ADD MSTORE POP JUMP JUMPDEST PUSH1 0x0 PUSH2 0xF8C PUSH1 0xD DUP4 PUSH2 0xB5A JUMP JUMPDEST SWAP2 POP PUSH2 0xF97 DUP3 PUSH2 0xF56 JUMP JUMPDEST PUSH1 0x20 DUP3 ADD SWAP1 POP SWAP2 SWAP1 POP JUMP JUMPDEST PUSH1 0x0 PUSH1 0x20 DUP3 ADD SWAP1 POP DUP2 DUP2 SUB PUSH1 0x0 DUP4 ADD MSTORE PUSH2 0xFBB DUP2 PUSH2 0xF7F JUMP JUMPDEST SWAP1 POP SWAP2 SWAP1 POP JUMP JUMPDEST POP JUMP JUMPDEST PUSH1 0x0 PUSH2 0xFD2 PUSH1 0x0 DUP4 PUSH2 0xED9 JUMP JUMPDEST SWAP2 POP PUSH2 0xFDD DUP3 PUSH2 0xFC2 JUMP JUMPDEST PUSH1 0x0 DUP3 ADD SWAP1 POP SWAP2 SWAP1 POP JUMP JUMPDEST PUSH1 0x0 PUSH2 0xFF3 DUP3 PUSH2 0xFC5 JUMP JUMPDEST SWAP2 POP DUP2 SWAP1 POP SWAP2 SWAP1 POP JUMP JUMPDEST PUSH32 0x4661696C656420746F2073656E642066756E6473000000000000000000000000 PUSH1 0x0 DUP3 ADD MSTORE POP JUMP JUMPDEST PUSH1 0x0 PUSH2 0x1033 PUSH1 0x14 DUP4 PUSH2 0xB5A JUMP JUMPDEST SWAP2 POP PUSH2 0x103E DUP3 PUSH2 0xFFD JUMP JUMPDEST PUSH1 0x20 DUP3 ADD SWAP1 POP SWAP2 SWAP1 POP JUMP JUMPDEST PUSH1 0x0 PUSH1 0x20 DUP3 ADD SWAP1 POP DUP2 DUP2 SUB PUSH1 0x0 DUP4 ADD MSTORE PUSH2 0x1062 DUP2 PUSH2 0x1026 JUMP JUMPDEST SWAP1 POP SWAP2 SWAP1 POP JUMP JUMPDEST PUSH32 0x4E487B7100000000000000000000000000000000000000000000000000000000 PUSH1 0x0 MSTORE PUSH1 0x11 PUSH1 0x4 MSTORE PUSH1 0x24 PUSH1 0x0 REVERT JUMPDEST PUSH1 0x0 PUSH2 0x10A3 DUP3 PUSH2 0x9F4 JUMP JUMPDEST SWAP2 POP PUSH2 0x10AE DUP4 PUSH2 0x9F4 JUMP JUMPDEST SWAP3 POP DUP3 DUP3 ADD SWAP1 POP DUP1 DUP3 GT ISZERO PUSH2 0x10C6 JUMPI PUSH2 0x10C5 PUSH2 0x1069 JUMP JUMPDEST JUMPDEST SWAP3 SWAP2 POP POP JUMP JUMPDEST PUSH32 0x496E76616C6964206465706F73697420616D6F756E7400000000000000000000 PUSH1 0x0 DUP3 ADD MSTORE POP JUMP JUMPDEST PUSH1 0x0 PUSH2 0x1102 PUSH1 0x16 DUP4 PUSH2 0xB5A JUMP JUMPDEST SWAP2 POP PUSH2 0x110D DUP3 PUSH2 0x10CC JUMP JUMPDEST PUSH1 0x20 DUP3 ADD SWAP1 POP SWAP2 SWAP1 POP JUMP JUMPDEST PUSH1 0x0 PUSH1 0x20 DUP3 ADD SWAP1 POP DUP2 DUP2 SUB PUSH1 0x0 DUP4 ADD MSTORE PUSH2 0x1131 DUP2 PUSH2 0x10F5 JUMP JUMPDEST SWAP1 POP SWAP2 SWAP1 POP JUMP JUMPDEST PUSH32 0x436F6D6D69746D656E7420616C72656164792065786973747300000000000000 PUSH1 0x0 DUP3 ADD MSTORE POP JUMP JUMPDEST PUSH1 0x0 PUSH2 0x116E PUSH1 0x19 DUP4 PUSH2 0xB5A JUMP JUMPDEST SWAP2 POP PUSH2 0x1179 DUP3 PUSH2 0x1138 JUMP JUMPDEST PUSH1 0x20 DUP3 ADD SWAP1 POP SWAP2 SWAP1 POP JUMP JUMPDEST PUSH1 0x0 PUSH1 0x20 DUP3 ADD SWAP1 POP DUP2 DUP2 SUB PUSH1 0x0 DUP4 ADD MSTORE PUSH2 0x119D DUP2 PUSH2 0x1161 JUMP JUMPDEST SWAP1 POP SWAP2 SWAP1 POP JUMP JUMPDEST PUSH1 0x0 DUP2 PUSH1 0x1 SHR SWAP1 POP SWAP2 SWAP1 POP JUMP JUMPDEST PUSH1 0x0 DUP1 DUP3 SWAP2 POP DUP4 SWAP1 POP JUMPDEST PUSH1 0x1 DUP6 GT ISZERO PUSH2 0x11FB JUMPI DUP1 DUP7 DIV DUP2 GT ISZERO PUSH2 0x11D7 JUMPI PUSH2 0x11D6 PUSH2 0x1069 JUMP JUMPDEST JUMPDEST PUSH1 0x1 DUP6 AND ISZERO PUSH2 0x11E6 JUMPI DUP1 DUP3 MUL SWAP2 POP JUMPDEST DUP1 DUP2 MUL SWAP1 POP PUSH2 0x11F4 DUP6 PUSH2 0x11A4 JUMP JUMPDEST SWAP5 POP PUSH2 0x11BB JUMP JUMPDEST SWAP5 POP SWAP5 SWAP3 POP POP POP JUMP JUMPDEST PUSH1 0x0 DUP3 PUSH2 0x1214 JUMPI PUSH1 0x1 SWAP1 POP PUSH2 0x12D0 JUMP JUMPDEST DUP2 PUSH2 0x1222 JUMPI PUSH1 0x0 SWAP1 POP PUSH2 0x12D0 JUMP JUMPDEST DUP2 PUSH1 0x1 DUP2 EQ PUSH2 0x1238 JUMPI PUSH1 0x2 DUP2 EQ PUSH2 0x1242 JUMPI PUSH2 0x1271 JUMP JUMPDEST PUSH1 0x1 SWAP2 POP POP PUSH2 0x12D0 JUMP JUMPDEST PUSH1 0xFF DUP5 GT ISZERO PUSH2 0x1254 JUMPI PUSH2 0x1253 PUSH2 0x1069 JUMP JUMPDEST JUMPDEST DUP4 PUSH1 0x2 EXP SWAP2 POP DUP5 DUP3 GT ISZERO PUSH2 0x126B JUMPI PUSH2 0x126A PUSH2 0x1069 JUMP JUMPDEST JUMPDEST POP PUSH2 0x12D0 JUMP JUMPDEST POP PUSH1 0x20 DUP4 LT PUSH2 0x133 DUP4 LT AND PUSH1 0x4E DUP5 LT PUSH1 0xB DUP5 LT AND OR ISZERO PUSH2 0x12A6 JUMPI DUP3 DUP3 EXP SWAP1 POP DUP4 DUP2 GT ISZERO PUSH2 0x12A1 JUMPI PUSH2 0x12A0 PUSH2 0x1069 JUMP JUMPDEST JUMPDEST PUSH2 0x12D0 JUMP JUMPDEST PUSH2 0x12B3 DUP5 DUP5 DUP5 PUSH1 0x1 PUSH2 0x11B1 JUMP JUMPDEST SWAP3 POP SWAP1 POP DUP2 DUP5 DIV DUP2 GT ISZERO PUSH2 0x12CA JUMPI PUSH2 0x12C9 PUSH2 0x1069 JUMP JUMPDEST JUMPDEST DUP2 DUP2 MUL SWAP1 POP JUMPDEST SWAP4 SWAP3 POP POP POP JUMP JUMPDEST PUSH1 0x0 PUSH1 0xFF DUP3 AND SWAP1 POP SWAP2 SWAP1 POP JUMP JUMPDEST PUSH1 0x0 PUSH2 0x12EF DUP3 PUSH2 0x9F4 JUMP JUMPDEST SWAP2 POP PUSH2 0x12FA DUP4 PUSH2 0x12D7 JUMP JUMPDEST SWAP3 POP PUSH2 0x1327 PUSH32 0xFFFFFFFFFFFFFFFFFFFFFFFFFFFFFFFFFFFFFFFFFFFFFFFFFFFFFFFFFFFFFFFF DUP5 DUP5 PUSH2 0x1204 JUMP JUMPDEST SWAP1 POP SWAP3 SWAP2 POP POP JUMP JUMPDEST PUSH32 0x547265652069732066756C6C0000000000000000000000000000000000000000 PUSH1 0x0 DUP3 ADD MSTORE POP JUMP JUMPDEST PUSH1 0x0 PUSH2 0x1365 PUSH1 0xC DUP4 PUSH2 0xB5A JUMP JUMPDEST SWAP2 POP PUSH2 0x1370 DUP3 PUSH2 0x132F JUMP JUMPDEST PUSH1 0x20 DUP3 ADD SWAP1 POP SWAP2 SWAP1 POP JUMP JUMPDEST PUSH1 0x0 PUSH1 0x20 DUP3 ADD SWAP1 POP DUP2 DUP2 SUB PUSH1 0x0 DUP4 ADD MSTORE PUSH2 0x1394 DUP2 PUSH2 0x1358 JUMP JUMPDEST SWAP1 POP SWAP2 SWAP1 POP JUMP JUMPDEST PUSH32 0x4E487B7100000000000000000000000000000000000000000000000000000000 PUSH1 0x0 MSTORE PUSH1 0x12 PUSH1 0x4 MSTORE PUSH1 0x24 PUSH1 0x0 REVERT JUMPDEST PUSH1 0x0 PUSH2 0x13D5 DUP3 PUSH2 0x9F4 JUMP JUMPDEST SWAP2 POP PUSH2 0x13E0 DUP4 PUSH2 0x9F4 JUMP JUMPDEST SWAP3 POP DUP3 PUSH2 0x13F0 JUMPI PUSH2 0x13EF PUSH2 0x139B JUMP JUMPDEST JUMPDEST DUP3 DUP3 MOD SWAP1 POP SWAP3 SWAP2 POP POP JUMP JUMPDEST PUSH1 0x0 PUSH1 0x60 DUP3 ADD SWAP1 POP PUSH2 0x1410 PUSH1 0x0 DUP4 ADD DUP6 PUSH2 0xE30 JUMP JUMPDEST PUSH2 0x141D PUSH1 0x40 DUP4 ADD DUP5 PUSH2 0x9FE JUMP JUMPDEST SWAP4 SWAP3 POP POP POP JUMP JUMPDEST PUSH1 0x0 DUP2 MLOAD SWAP1 POP PUSH2 0x1433 DUP2 PUSH2 0xA2D JUMP JUMPDEST SWAP3 SWAP2 POP POP JUMP JUMPDEST PUSH1 0x0 PUSH1 0x20 DUP3 DUP5 SUB SLT ISZERO PUSH2 0x144F JUMPI PUSH2 0x144E PUSH2 0xA28 JUMP JUMPDEST JUMPDEST PUSH1 0x0 PUSH2 0x145D DUP5 DUP3 DUP6 ADD PUSH2 0x1424 JUMP JUMPDEST SWAP2 POP POP SWAP3 SWAP2 POP POP JUMP JUMPDEST PUSH1 0x0 PUSH2 0x1471 DUP3 PUSH2 0x9F4 JUMP JUMPDEST SWAP2 POP PUSH2 0x147C DUP4 PUSH2 0x9F4 JUMP JUMPDEST SWAP3 POP DUP3 PUSH2 0x148C JUMPI PUSH2 0x148B PUSH2 0x139B JUMP JUMPDEST JUMPDEST DUP3 DUP3 DIV SWAP1 POP SWAP3 SWAP2 POP POP JUMP JUMPDEST PUSH1 0x0 PUSH2 0x14A2 DUP3 PUSH2 0x12D7 JUMP JUMPDEST SWAP2 POP PUSH1 0xFF DUP3 SUB PUSH2 0x14B5 JUMPI PUSH2 0x14B4 PUSH2 0x1069 JUMP JUMPDEST JUMPDEST PUSH1 0x1 DUP3 ADD SWAP1 POP SWAP2 SWAP1 POP JUMP JUMPDEST PUSH1 0x0 PUSH1 0xA SWAP1 POP SWAP2 SWAP1 POP JUMP JUMPDEST PUSH1 0x0 DUP2 SWAP1 POP SWAP3 SWAP2 POP POP JUMP JUMPDEST PUSH1 0x0 DUP2 SWAP1 POP SWAP2 SWAP1 POP JUMP JUMPDEST PUSH1 0x0 PUSH1 0x20 DUP3 ADD SWAP1 POP SWAP2 SWAP1 POP JUMP JUMPDEST PUSH2 0x14F6 DUP2 PUSH2 0x14C0 JUMP JUMPDEST PUSH2 0x1500 DUP2 DUP5 PUSH2 0x14CB JUMP JUMPDEST SWAP3 POP PUSH2 0x150B DUP3 PUSH2 0x14D6 JUMP JUMPDEST DUP1 PUSH1 0x0 JUMPDEST DUP4 DUP2 LT ISZERO PUSH2 0x153C JUMPI DUP2 MLOAD PUSH2 0x1523 DUP8 DUP3 PUSH2 0xE0B JUMP JUMPDEST SWAP7 POP PUSH2 0x152E DUP4 PUSH2 0x14E0 JUMP JUMPDEST SWAP3 POP POP PUSH1 0x1 DUP2 ADD SWAP1 POP PUSH2 0x150F JUMP JUMPDEST POP POP POP POP POP POP JUMP JUMPDEST PUSH1 0x0 PUSH1 0xA SWAP1 POP SWAP2 SWAP1 POP JUMP JUMPDEST PUSH1 0x0 DUP2 SWAP1 POP SWAP3 SWAP2 POP POP JUMP JUMPDEST PUSH1 0x0 DUP2 SWAP1 POP SWAP2 SWAP1 POP JUMP JUMPDEST PUSH2 0x156D DUP2 PUSH2 0x12D7 JUMP JUMPDEST DUP3 MSTORE POP POP JUMP JUMPDEST PUSH1 0x0 PUSH2 0x157F DUP4 DUP4 PUSH2 0x1564 JUMP JUMPDEST PUSH1 0x20 DUP4 ADD SWAP1 POP SWAP3 SWAP2 POP POP JUMP JUMPDEST PUSH1 0x0 PUSH1 0x20 DUP3 ADD SWAP1 POP SWAP2 SWAP1 POP JUMP JUMPDEST PUSH2 0x15A1 DUP2 PUSH2 0x1544 JUMP JUMPDEST PUSH2 0x15AB DUP2 DUP5 PUSH2 0x154F JUMP JUMPDEST SWAP3 POP PUSH2 0x15B6 DUP3 PUSH2 0x155A JUMP JUMPDEST DUP1 PUSH1 0x0 JUMPDEST DUP4 DUP2 LT ISZERO PUSH2 0x15E7 JUMPI DUP2 MLOAD PUSH2 0x15CE DUP8 DUP3 PUSH2 0x1573 JUMP JUMPDEST SWAP7 POP PUSH2 0x15D9 DUP4 PUSH2 0x158B JUMP JUMPDEST SWAP3 POP POP PUSH1 0x1 DUP2 ADD SWAP1 POP PUSH2 0x15BA JUMP JUMPDEST POP POP POP POP POP POP JUMP JUMPDEST PUSH1 0x0 PUSH2 0x2A0 DUP3 ADD SWAP1 POP PUSH2 0x1605 PUSH1 0x0 DUP4 ADD DUP7 PUSH2 0x9FE JUMP JUMPDEST PUSH2 0x1612 PUSH1 0x20 DUP4 ADD DUP6 PUSH2 0x14ED JUMP JUMPDEST PUSH2 0x1620 PUSH2 0x160 DUP4 ADD DUP5 PUSH2 0x1598 JUMP JUMPDEST SWAP5 SWAP4 POP POP POP POP JUMP INVALID LOG2 PUSH5 0x6970667358 0x22 SLT KECCAK256 PUSH20 0xA5F041F9BA7D67E6CE7B1474065A4ED7E7F712F4 ORIGIN 0xA9 0xAB 0xD6 CALLVALUE 0x21 PUSH16 0xD3D62D764736F6C6343000814003300 "
        },
        "methodIdentifiers": {
          "deposit(uint256)": "b6b55f25",
          "depositAmount()": "419759f5",
          "fees()": "9af1d35a",
          "nextLeafIndex()": "0be4f422",
          "setFees(uint256)": "3d18678e",
          "withdraw(uint256[2],uint256[2][2],uint256[2],uint256[1])": "768ea39d"
        }
      }
    }
  }
}